:1000000000400020591E0000A11E0000A31E000099
:1000100000000000000000000000000000000000E0
:10002000000000000000000000000000A51E00000D
:100030000000000000000000A71E0000A91E000034
:10004000AB1E0000AB1E0000AB1E0000AB1E00008C
:10005000AB1E000000000000AB1E0000AB1E000045
:10006000AB1E0000AB1E0000AB1E00002D03000005
:10007000AB1E0000AB1E0000AB1E0000AB1E00005C
:10008000AB1E0000F1140000AB1E0000AB1E000010
:1000900041150000AB1E0000AB1E0000AB1E0000AF
:1000A000AB1E0000AB1E00000000000000000000BE
:1000B0000000000000000000000000000000000040
:1000C00010B5064C2378002B07D1054B002B02D02E
:1000D000044800E000BF0123237010BD4404002049
:1000E0000000000028220000084B10B5002B03D0B0
:1000F0000749084800E000BF07480368002B00D10B
:1001000010BD064B002BFBD09847F9E7000000001C
:1001100048040020282200004004002000000000C5
:10012000164B002B00D1144B9D46402292029A1A86
:10013000924600218B460F461348144A121A01F0CA
:10014000E9FE0F4B002B00D098470E4B002B00D040
:1001500098470020002104000D000D48002802D01F
:100160000C4801F0A7FF01F0B1FE2000290000F0CB
:1001700011F901F09BFEC04600000800004000207D
:1001800000000000000000004404002040070020A0
:10019000B5200000C520000080B582B000AF7860B7
:1001A000A023DB057A68C132FF3292000321D150CF
:1001B000C046BD4602B080BD80B582B000AF786059
:1001C000A023DA0501217B689940A123DB00D150EF
:1001D000C046BD4602B080BD80B582B000AF786039
:1001E000A023DB0501217A6891400A0002495A5098
:1001F000C046BD4602B080BD0C05000080B584B08D
:1002000000AF786001227B689A401300FB60A02356
:10021000DB050D4A9A587B68DA401300012213402F
:10022000BB60BB68002B06D1A023DA05A123DB004D
:10023000F968D15004E0A023DB050449FA685A505C
:10024000C046BD4604B080BD040500000C0500009A
:1002500080B582B000AF786039603B68002B04D174
:100260007B681800FFF7B8FF03E07B681800FFF712
:10027000A3FFC046BD4602B080BDC04680B584B075
:1002800000AFF860B9607A60C046BD4604B080BD7A
:1002900080B582B000AF78601920FFF7AFFF064B42
:1002A000186880231B020022190001F087FAC0465B
:1002B000BD4602B080BDC0466004002080B500AFDE
:1002C0008023DA05A323DB000021D1508023DA0547
:1002D00082235B000021D1508023DB0501229A603C
:1002E000C0468023DA0582235B00D358002BF8D068
:1002F0008023DA0582235B000021D150C046BD4631
:1003000080BDC04680B500AF1920FFF745FF1A2019
:10031000FFF742FF00211920FFF79AFF00211A2062
:10032000FFF796FFC046BD4680BDC04680B500AF12
:10033000174A80235B00D358002B0ED0144AC123E8
:100340009B00D3580122134007D0114A80235B0041
:100350000021D1501920FFF751FF0D4AA0235B0067
:10036000D358002B10D00A4AC1239B00D2588023B7
:100370005B02134008D0064AA0235B000021D15045
:1003800001211A20FFF764FFC046BD4680BDC0466C
:1003900000B0004080B586B002AFFFF7B3FFFFF7B3
:1003A0008DFF194A00230093130006220421002028
:1003B00001F0CEF80300FB60FB68BB60BB68002B5C
:1003C00005D0124ABB687D211800FFF757FF104A7D
:1003D000104B0021180001F079F903007B607B6865
:1003E0003B603B68002B05D0084A3B68832118001E
:1003F000FFF744FF074B1868A023DB020022190017
:1004000001F0DCF9FEE7C04664040020E8210000AA
:10041000910200006004002080B582B000AF7860D7
:10042000C046C046C046C046C046C046C046C0469C
:10043000C046C046C046C046C046C0467B68013B79
:100440007B60002BECD1C046BD4602B080BDC046EB
:1004500080B582B000AF7860A023DB057A68C13236
:10046000FF3292000321D150C046BD4602B080BD8C
:1004700080B582B000AF78600A00FB1C1A70A02320
:10048000DB05FA1C1278920011007A68C132FF3243
:100490009200D150C046BD4602B080BD80B500AFCD
:1004A000C046094A84235B00D358012BF9D1064A80
:1004B00084235B000021D150034AA323DB00D358DF
:1004C000DBB21800BD4680BD0020004080B584B07E
:1004D00000AF786039600F23FB1801221A700FE01B
:1004E0007B685A1E7A60002B05DBFA239B001800FC
:1004F000FFF792FF04E00F23FB1800221A7005E0BB
:100500000D4A84235B00D358012BE9D17B68002B73
:100510000BDB094A84235B000021D150064AA32348
:10052000DB00D358DAB23B681A700F23FB181B7834
:100530001800BD4604B080BD0020004080B582B0E8
:1005400000AF0200FB1D1A700A49FB1D1B780A4A06
:100550008B50C046074A8E235B00D358012BF9D13C
:10056000044A8E235B000021D150C046BD4602B034
:1005700080BDC046002000401C05000080B584B04E
:1005800000AF78600023FB60FB685A1CFA607A6851
:10059000D2180B23FB1812781A700EE00B23FB18ED
:1005A0001B781800FFF7CAFFFB685A1CFA607A68CC
:1005B000D2180B23FB1812781A700B23FB181B7828
:1005C000002BEBD1C046BD4604B080BDB0B582B0B3
:1005D00000AF05000C0010001900FB1D2A1C1A704A
:1005E000BB1D221C1A707B1D021C1A703B1D0A1CAD
:1005F0001A70BB1D1B781800FFF72AFF3B1D1B78E4
:1006000000211800FFF734FF2049BB1D1B78204A4A
:100610008B501E493B1D1B781E4A8B501823FB181C
:100620001B78002B1AD0FB1D1B781800FFF710FF5A
:100630007B1D1B7800211800FFF71AFF13497B1D53
:100640001A78A223DB00CA501049FB1D1A78A12397
:10065000DB00CA500D4A104B0121D1500B4A0F4B01
:100660000F49D150094AA023DB000421D150074B88
:1006700001229A60054B01221A60044A84235B0020
:100680000021D150C046BD4602B0B0BD00200040A0
:100690000C050000140500006C0500002405000096
:1006A00000509D0080B582B000AF78607B68032267
:1006B00013405A425341DBB21800BD4602B080BD20
:1006C00080B582B000AF0200FB1D1A70064BFA1D08
:1006D000127811001F220A40012191400A001A607D
:1006E000C046BD4602B080BD00E100E080B582B0EA
:1006F00000AF0200FB1D1A70074AFB1D1B78190092
:100700001F230B40012199400B0019008023D15079
:10071000C046BD4602B080BD00E100E080B582B0B9
:1007200000AF0200FB1D1A70084AFB1D1B78190060
:100730001F230B40012199400B00190080235B000F
:10074000D150C046BD4602B080BDC04600E100E0C9
:1007500080B582B000AF0200FB1D1A70084AFB1D75
:100760001B7819001F230B40012199400B00190031
:10077000C0235B00D150C046BD4602B080BDC0461C
:1007800000E100E0B0B582B000AF02003960FB1DAF
:100790001A70FB1D1B787F2B32D92F4CFB1D1B7849
:1007A0001A000F231340083B99082B4AFB1D1B78A6
:1007B00018000F230340083B9B0806339B00D31807
:1007C00004331B68FA1D1278100003220240D20085
:1007D000FF2090400200D2431A403B689B01FF205B
:1007E0001840FB1D1B781D0003232B40DB009840A5
:1007F00003001A438B1D9B00E31804331A6027E0A3
:10080000164CFB1D1B785BB29B081449FA1D12782D
:1008100052B29208C03292005258F91D097808006D
:1008200003210140C900FF2088400100C943114055
:100830003A689201FF201040FA1D12781500032239
:100840002A40D200904002000A43C0339B001A5154
:10085000C046BD4602B0B0BD00ED00E000E100E0E2
:1008600080B582B000AF0200FB1D1A70FB1D1B7823
:100870007F2B18D9174AFB1D1B7819000F230B403B
:10088000083B9B0806339B00D31804331A68FB1DF2
:100890001B78190003230B40DB00DA401300FF2212
:1008A00013409B0912E00C4AFB1D1B785BB29B08AE
:1008B000C0339B009A58FB1D1B78190003230B4083
:1008C000DB00DA401300FF2213409B091800BD46ED
:1008D00002B080BD00ED00E000E100E080B582B034
:1008E00000AF7860C046C046C046C046C046C0465D
:1008F000C046C046C046C046C046C046C046C046C8
:100900007B68013B7B60002BECD1C046BD4602B04A
:1009100080BDC04680B582B000AF0C4B5B68DB0584
:10092000DB0D7B607B68002B0AD07B68103B3B6053
:100930003B685BB21800FFF793FF0300DBB200E0F7
:1009400004231800BD4602B080BDC04600ED00E0A3
:1009500080B582B000AF78600649A123DB007A68D9
:10096000CA5003211120FFF70DFFC046BD4602B05B
:1009700080BDC0460010014080B500AF0E49D123B4
:100980009B0080225202CA500B49C1239B00802247
:100990005202CA501120FFF7DBFE1120FFF790FE34
:1009A000054B01221A602F20FFF798FF034B01220D
:1009B0001A70C046BD4680BD001001403C070020B3
:1009C00080B500AF1120FFF791FE1049D2239B00A4
:1009D00080225202CA500D49C2239B00802252023B
:1009E000CA500A4B01225A602F20FFF777FF074BAE
:1009F00001229A60064B00221A602F20FFF76EFF3B
:100A0000044B00221A70C046BD4680BD0010014054
:100A1000280700203C07002080B500AF024A034BA6
:100A2000D3581800BD4680BD0010014004050000E9
:100A300080B582B000AF786039607A683B68D31ABD
:100A40001B021B0A1800BD4602B080BD80B582B0F3
:100A500000AF78600449A823DB007A68CA50C0461A
:100A6000BD4602B080BDC0460010014080B586B0D2
:100A700000AF78604C4B19687A681300DB009B1854
:100A80009B00CB18BB60494B1B68013303D1474B1C
:100A90007A681A6084E0BB685968434B1868434B16
:100AA0001A681300DB009B189B00C3185B6899420F
:100AB0001ED83D4B19683D4B1A681300DB009B188C
:100AC0009B00CA18384B1868384B19680B00DB00BC
:100AD0005B189B00C3185968BB685B68CB1A5360EE
:100AE000324B1A68BB681A62304B7A681A6057E05A
:100AF000BB685B68FB602D4B1B687B612B4B1B68E5
:100B00003B6117E0284B19683A691300DB009B181A
:100B10009B00CB185B68FA68D31AFB603B697B616A
:100B2000214B19683A691300DB009B189B00CB1816
:100B30001B6A3B613B6901330BD01B4B19683A6957
:100B40001300DB009B189B00CB185A68FB689A4285
:100B5000D8D33B69013313D0134B19683A6913009A
:100B6000DB009B189B00CA180F4B186839690B00F3
:100B7000DB005B189B00C3185968FB68CB1A5360F5
:100B8000BB68FA685A60BB683A691A62064B196812
:100B90007A691300DB009B189B00CB187A681A62F5
:100BA000C046BD4606B080BD1807002024070020BF
:100BB00080B586B000AF78603A4B1B687B617B697B
:100BC0003B610FE03A697B689A420FD03B697B61D9
:100BD000354B19683A691300DB009B189B00CB1852
:100BE0001B6A3B613B690133ECD100E0C0463B69C5
:100BF000013353D07A693B699A4211D12A4B196863
:100C0000284B1A681300DB009B189B00CB181A6A4C
:100C1000244B1A60234B1B68013301D1FFF7D0FE30
:100C2000214B19683A691300DB009B189B00CB1815
:100C30005B68FB601C4B19687A691300DB009B182A
:100C40009B00CA18184B186839690B00DB005B1849
:100C50009B00C3181B6A1362134B19687A6913004F
:100C6000DB009B189B00CB181B6A3B613B6901337F
:100C700015D00D4B19683A691300DB009B189B00D7
:100C8000CA18094B186839690B00DB005B189B0018
:100C9000C3185968FB68CB18536000E0C046BD46D6
:100CA00006B080BD240700201807002080B500AFE3
:100CB0001120FFF733FDC046BD4680BD80B500AFB3
:100CC0001420FFF72BFDC046BD4680BD80B584B023
:100CD00000AF7860124B1B68002B17D0104B1A68BE
:100CE0007B6898697B68DB69190090470300FB60AB
:100CF000FB68BB60BB68002B0ED00A4A6423FF333D
:100D00001900BB681800FFF7B9FA05E07B689A691B
:100D10007B68DB6918009047C046BD4604B080BDC3
:100D200038070020F421000080B584B000AF2C4BC0
:100D30001B68013350D000237B60FFF76DFE02007B
:100D4000284B1B6819001000FFF772FE0300BB6000
:100D5000234B1B68FB601EE0234B1968FA681300E5
:100D6000DB009B189B00CB183B603B685A68BB6854
:100D70009A4214D83B685B68BA68D31ABB603B6878
:100D80005B687A68D3187B603B681B6AFB603B68D2
:100D90001800FFF79BFFFB680133DDD100E0C04680
:100DA000124B1A78124B1B789A420CD1104B1B78BD
:100DB0000133DAB20E4B1A700D4B1B78022B02D1A5
:100DC0000B4B00221A700A4B1B781A00094B920039
:100DD0007968D150FFF772FFC046BD4604B080BDB0
:100DE00024070020280700201807002034070020CF
:100DF000350700202C07002080B582B000AF786056
:100E0000184B1A78184B1B789A4223D0154B1B7835
:100E10000133DAB2134B1A70124B1B78022B02D13A
:100E2000104B00221A700F4B1B781A000F4B9200C8
:100E3000D2587B681A607B681A680D4B1B68D21801
:100E40000B4B1A600A4B1B681B021A0A084B1A60EC
:100E5000012303E07B6800221A6000231800BD46CE
:100E600002B080BD34070020350700202C07002089
:100E70002807002080B586B000AF424B1B683B615D
:100E80001723FB18404A12781A7066E03F4B1A6825
:100E90001723FB181B78DB00D318FB601623FB1805
:100EA000FA6812781A7051E0FB6859681623FB182B
:100EB0001A7813005B009B18DB00CB18BB6016236D
:100EC000FB181A781623FB1801321A70FB689B78FE
:100ED0001622BA1812789A4203D11623FB18002260
:100EE0001A70BB681B78022B02D0032B28D02CE091
:100EF000274B1968BB685A681300DB009B189B00DE
:100F0000CB187B607B681B7D002B1FD0BB685B68A8
:100F10001800FFF74DFE7B6800221A7516E01C4B87
:100F20001968184B1A681300DB009B189B00CB183C
:100F30003B603B6800221A753B681A6A114B1A60C5
:100F4000104B1B680133EAD100E0C046FB685B78B8
:100F50001622BA1812789A42A6D11723FB181B78CA
:100F60001722BA18591E1170002B8FD1054B1A6821
:100F70003B69D31A5A1E9341DBB21800BD4606B036
:100F800080BDC046240700201C0700202007002049
:100F90001807002080B588B000AFF860B9607A60AB
:100FA0000023FB6142E0254B1968254B1A681300AA
:100FB000DB009B189B00CB18BB61BB695A68FB68C0
:100FC0009A4206D9BB695A68FB68D21ABB695A6053
:100FD00030E0BB695B68FA68D31AFB60BB695B6889
:100FE000FA69D318FB61BB6900225A60BB69002211
:100FF0001A75134B1B687B61BB691A6A104B1A6028
:10100000BB691B69002B11D0BA68FB69D3181B029E
:101010001A0ABB699A60BB691A69BB69DA607B68A6
:101020001A68BB691A627B687A691A60044B1B688C
:101030000133B8D1C046BD4608B080BD18070020B6
:101040002407002080B58AB000AF7860624B1B682F
:10105000BB612723FB18614A12781A70A7E0604B26
:101060001A682723FB181B78DB00D3187B6193E0F9
:101070007B6801330ED07B683B625A4B19683A6A31
:101080001300DB009B189B00CB18FB61FB691B6AFC
:101090007B603EE07B695A687B691B7819000B0016
:1010A0005B005B18DB00D3183B617B691B78013365
:1010B000DAB27B691A707B691A787B699B789A42ED
:1010C00002D17B6900221A703B695B683B62454B29
:1010D00019683A6A1300DB009B189B00CB18FB6170
:1010E0003B691B78012B57D1FB691B7D002B00D07E
:1010F00052E03B699A68FB699A603B69DA68FB6970
:10110000DA603B691A69FB691A613B695A69FB69D4
:10111000DA61FB699A68344B1B68D31A1B021B0AFD
:10112000324A93420ED8FB699A682F4B1B6819000C
:101130001000FFF77DFC0200FB69DB68D218FB6939
:101140005A6018E0284B1A68FB699B681900100068
:10115000FFF76EFC0300FB60FB69DA68FB689A42EC
:1011600006D9FB69DA68FB68D21AFB695A6002E0AB
:10117000FB6900225A60FB6900229A60FB69002229
:10118000DA60FB6901221A75FB69012252421A6278
:101190003B6A1800FFF76AFC7B68013300D067E701
:1011A0007B691A787B695B789A4200D060E72723D5
:1011B000FB181B782722BA18591E1170002B00D07B
:1011C0004DE7054B1A68BB69D31A5A1E9341DBB22F
:1011D0001800BD460AB080BD240700201C0700206F
:1011E000200700201807002028070020FEFF7F00AE
:1011F00090B589B000AF78602A4B1B6801334BD0A3
:10120000294B1968274B1A681300DB009B189B00B9
:10121000CB185B68FB61FFF7FFFB0300BB61234B4F
:101220001B687B617A69BB6911001800FFF700FC3D
:10123000030003333B611E4B1B7801225340DBB29A
:10124000002B01D0FFF798FBFA693B69934200D26B
:1012500013007A69D3187B617B691B021B0A7B61CF
:101260007B691800FFF7F2FBFFF7D6FB0300FB607A
:10127000BA69FB6811001800FFF7DAFB0300DC1CF9
:10128000BA697B6911001800FFF7D2FB03009C428A
:1012900004D9FFF70BFD01E0FFF792FBC046BD4606
:1012A00009B090BD2407002018070020280700205F
:1012B0003C07002090B587B000AF01235B427B6004
:1012C0001C4B1B683B611C4B1B68FB600B23FC1811
:1012D0003B001800FFF790FD030023701723FC1854
:1012E000FFF7C8FD030023700B23FB181B78002BAE
:1012F00009D03B683A1D39691800FFF74BFE1723E8
:10130000FB1801221A707B681800FFF79BFE031E72
:1013100003D01723FB1801221A701723FB181B7820
:10132000002B03D0FB681800FFF762FFC046BD46E4
:1013300007B090BD280700202407002080B582B0A8
:1013400000AF786039603B68DAB27B685A70C0469B
:10135000BD4602B080BDC04680B584B000AF7860A5
:1013600039607B685B780133FB607B689B781A1E71
:10137000FB689A4201D10023FB607B681B781A1E30
:10138000FB689A4201D100230EE03B68FA681A60BC
:101390007B685A687B685B7819000B005B005B1800
:1013A000DB00D318BB60BB681800BD4604B080BD2D
:1013B00080B586B000AFF860B9607A603B601B4BC7
:1013C0001A68FB68DB00D3181022BA181100180045
:1013D000FFF7C2FF03007B617B69002B01D104236F
:1013E00020E07B6901221A707B69BA685A60FFF7B6
:1013F00013FB02007B699A607B697A68DA607B691B
:101400003A681A617B693A6A5A61084B1A68FB6844
:10141000DB00D3183A6911001800FFF78FFFFFF7C0
:101420004DFC00231800BD4606B080BD20070020FB
:1014300080B584B000AF78603960144B1A687B685F
:10144000DB00D3180822BA1811001800FFF784FF38
:101450000300FB60FB68002B01D1042312E0FB6852
:1014600002221A70FB683A685A60084B1A687B6857
:10147000DB00D318BA6811001800FFF75FFFFFF711
:101480001DFC00231800BD4604B080BD20070020CD
:1014900080B584B000AF7860144B1A687B68DB00BD
:1014A000D3180822BA1811001800FFF755FF0300DF
:1014B000FB60FB68002B01D1042313E0FB680322CF
:1014C0001A70FB68012252425A60084B1A687B6806
:1014D000DB00D318BA6811001800FFF72FFFFFF7E1
:1014E000EDFB00231800BD4604B080BD200700209E
:1014F00080B500AF114AA0235B000021D1500F4AF4
:10150000A2235B000021D1500C4AA4235B000021E0
:10151000D1500A4AA6235B000021D150074A8023FC
:101520005B000021D150054A82235B000021D1508D
:10153000FFF7FAFBC046BD4680BDC0460010014023
:1015400080B500AFFFF7B6FEC046BD4680BDC046C1
:1015500080B586B000AFF860080011007B600B23F7
:10156000FB18021C1A700A23FB180A1C1A707B68ED
:101570001800FFF797F803001A0001235340DBB26D
:10158000002B01D007238BE07B68002B01D10723C0
:1015900086E0FFF715FA444B3A6A1A60434B0B2278
:1015A000BA1812781A70424B7A681A6000237B616D
:1015B00016E03F4B19687A691300DB009B189B000B
:1015C000CB1800221A703A4B19687A691300DB00B5
:1015D0009B189B00CB1800221A757B6901337B6135
:1015E0000B23FB181A787B699A42E2DC0B23FB1869
:1015F0001A781300DB009B189B001A007B689B186D
:101600007B602C4B03221A702B4B7A681A607B6824
:1016100018337B6000237B6121E0274B1A687B69CC
:10162000DB00D3183B613B6900221A703B69002242
:101630005A703B690A22BA1812789A703B697A6824
:101640005A600A23FB181A7813005B009B18DB0012
:101650001A007B689B187B607B6901337B617B6927
:10166000022BDADD154B012252421A60144B002284
:101670001A70144B00221A701420FFF769F8032126
:101680001420FFF77FF81420FFF71AF8FB68180002
:10169000FFF75EF9FFF7C0F902000B4B1A60002359
:1016A0001800BD4606B080BD380700201407002092
:1016B000180700201C070020200700202407002016
:1016C00034070020350700202807002080B586B0A9
:1016D00000AFF8607A600B23FB180A1C1A70284BC5
:1016E0001B68002B01D1082346E07B68002B01D149
:1016F000072341E0FB68002B01D107233CE00023D6
:101700007B6132E01E4B19687A691300DB009B187D
:101710009B00CB181B78002B24D1194B19687A69D0
:101720001300DB009B189B00CB1801221A70144B8E
:1017300019687A691300DB009B189B00CB180B22F9
:10174000BA1812785A700E4B19687A691300DB00C8
:101750009B189B00CB187A689A617A69FB681A60BB
:10176000002309E07B6901337B61064B1B781A1E5D
:101770007B699A42C6DC04231800BD4606B080BDD2
:10178000180700201407002080B582B000AFFFF7D3
:10179000C1F8031E012B02D0032B03D005E0002368
:1017A0007B6005E001237B6002E002237B60C04692
:1017B0007B681800BD4602B080BDC04690B589B0B8
:1017C00002AFF860B9607A601E4B1B68002B01D134
:1017D000082333E01C4B1B781A1EFB689A4202D97F
:1017E000BB68042B01D8072328E0164B1968FA6858
:1017F0001300DB009B189B00CB181B78012B01D03A
:1018000008231BE00F4B1968FA681300DB009B18D4
:101810009B00CB185B78012B01D1BB6800E0002353
:101820007B61FFF7B1FF04007869BA68F9687B68EB
:10183000009303002000FFF7BBFD03001800BD4626
:1018400007B090BD180700201407002080B582B0B3
:1018500000AF7860134B1B68002B01D108231DE0FB
:10186000114B1B781A1E7B689A4201D8072315E09A
:101870000C4B19687A681300DB009B189B00CB188F
:101880001B78012B01D0082308E0FFF77DFF020041
:101890007B6819001000FFF7CBFD03001800BD4660
:1018A00002B080BD180700201407002080B500AFEB
:1018B000074B1B68002B01D1082306E0FFF764FFEC
:1018C00003001800FFF7E4FD03001800BD4680BDCB
:1018D0001807002080B582B000AF7860FFF79CF851
:1018E00002007B681A6000231800BD4602B080BD6C
:1018F00080B584B000AFF860B9607A60BA68FB6800
:1019000011001800FFF794F802007B681A600023AA
:101910001800BD4604B080BD80B582B000AF0200A3
:10192000FB1D1A70064BFA1D127811001F220A4087
:10193000012191400A001A60C046BD4602B080BD38
:1019400000E100E080B582B000AF0200FB1D1A701C
:10195000074AFB1D1B7819001F230B4001219940EA
:101960000B0019008023D150C046BD4602B080BD97
:1019700000E100E080B582B000AF0200FB1D1A70EC
:101980000A4A80235B00D358FA1D127811001F22E7
:101990000A40012191400A00134001D0012300E0D8
:1019A00000231800BD4602B080BDC04600E100E043
:1019B00080B582B000AF0200FB1D1A70084AFB1D03
:1019C0001B7819001F230B40012199400B001900BF
:1019D00080235B00D150C046BD4602B080BDC046EA
:1019E00000E100E080B582B000AF0200FB1D1A707C
:1019F000084AFB1D1B7819001F230B400121994049
:101A00000B001900C0235B00D150C046BD4602B098
:101A100080BDC04600E100E0B0B582B000AF02007A
:101A20003960FB1D1A70FB1D1B787F2B32D92F4CA0
:101A3000FB1D1B781A000F231340083B99082B4A03
:101A4000FB1D1B7818000F230340083B9B0806333F
:101A50009B00D31804331B68FA1D12781000032270
:101A60000240D200FF2090400200D2431A403B685F
:101A70009B01FF201840FB1D1B781D0003232B40FA
:101A8000DB00984003001A438B1D9B00E3180433CE
:101A90001A6027E0164CFB1D1B785BB29B081449AB
:101AA000FA1D127852B29208C03292005258F91DB3
:101AB0000978080003210140C900FF208840010087
:101AC000C94311403A689201FF201040FA1D127874
:101AD000150003222A40D200904002000A43C0337E
:101AE0009B001A51C046BD4602B0B0BD00ED00E0FB
:101AF00000E100E080B582B000AF0200FB1D1A706B
:101B0000FB1D1B787F2B18D9174AFB1D1B7819006A
:101B10000F230B40083B9B0806339B00D31804336C
:101B20001A68FB1D1B78190003230B40DB00DA4009
:101B30001300FF2213409B0912E00C4AFB1D1B7887
:101B40005BB29B08C0339B009A58FB1D1B781900A1
:101B500003230B40DB00DA401300FF2213409B09F4
:101B60001800BD4602B080BD00ED00E000E100E0DD
:101B700080B500AFBFF34F8F024B034ADA60BFF36B
:101B80004F8FFEE700ED00E00400FA0580B582B05B
:101B900000AF0200FB1D1A70FB1D1B785BB2180022
:101BA000FFF7BAFE00231800BD4602B080BDC04654
:101BB00080B582B000AF0200FB1D1A70FB1D1B78C0
:101BC0005BB21800FFF7BEFE00231800BD4602B04E
:101BD00080BDC04680B582B000AF02003960FB1DF9
:101BE0001A703B68002B0AD0FB1D1B785BB21800F3
:101BF000FFF7C0FE02003B681A60002300E00E23DE
:101C00001800BD4602B080BD80B582B000AF0200B2
:101C1000FB1D1A70FB1D1B785BB21800FFF7C8FE96
:101C200000231800BD4602B080BDC04680B582B01A
:101C300000AF0200FB1D1A70FB1D1B785BB2180081
:101C4000FFF7D0FE00231800BD4602B080BDC0469D
:101C500080B582B000AF0200FB1D1A70BB1D0A1CCC
:101C60001A70BB1D1A78FB1D1B785BB2110018009F
:101C7000FFF7D2FE00231800BD4602B080BDC0466B
:101C800080B582B000AF02003960FB1D1A703B685E
:101C9000002B0BD0FB1D1B785BB21800FFF72AFF4F
:101CA0000300DAB23B681A70002300E00E2318002C
:101CB000BD4602B080BDC04680B500AFFFF758FFFB
:101CC00000231800BD4680BD80B582B000AF7860AB
:101CD00072B6094B1B785A1E9341DBB21A007B681F
:101CE0001A70054B1B780133DAB2034B1A700023CC
:101CF0001800BD4602B080BD3D07002080B582B00F
:101D000000AF0200FB1D1A70094B1B78013BDAB2D1
:101D1000074B1A70FB1D1B78002B03D1044B0022CC
:101D20001A7062B600231800BD4602B080BDC046DE
:101D30003D07002080B500AF024B034A1A60C04641
:101D4000BD4680BD040000200024F40080B500AF33
:101D500000F01CF8031E06D0094B0A4A1A600A4B11
:101D6000802212021A6000F051F8031E05D0802371
:101D7000DA05C123DB000121D150C046BD4680BD3C
:101D800004050040DFFF07C0186C004080B500AFBD
:101D90001A4B1B68FF221340012B2AD1184B1B68DA
:101DA0000F22134025D1174B1B68F022134006D198
:101DB000154B1B68F022134001D101231AE0114B8F
:101DC0001B68F0221340102B06D10F4B1B68F0222A
:101DD000134001D101230DE00A4B1B68F022134090
:101DE000302B06D1084B1B68F022134001D1012390
:101DF00000E000231800BD4680BDC046E00F00F0A3
:101E0000E40F00F0E80F00F0EC0F00F080B500AF39
:101E10000D4B1B68FF221340012B11D10B4B1B688C
:101E20000F2213400CD10A4B1B68F0221340402BA9
:101E300006D1084B1B68F022134001D1012300E0BA
:101E400000231800BD4680BDE00F00F0E40F00F055
:101E5000E80F00F0EC0F00F003210A4802680A4383
:101E60000260094802680A4302600849084A094BAF
:101E70009B1A03DD043BC858D050FBDC0648804762
:101E80000648004724050040540500403422000065
:101E900000000020440400204D1D0000210100002E
:101EA000FEE7FEE7FEE7FEE7FEE7FEE710B50021EE
:101EB000040000F081F8044B1868C36B002B00D0BD
:101EC0009847200000F082F92422000070B50D4EE2
:101ED0000D4D0024AD1BAD1005D0A300F358013407
:101EE0009847A542F9D100F073F9084E084D002437
:101EF000AD1BAD1005D0A300F35801349847A5429F
:101F0000F9D170BD340400203404002034040020D2
:101F10003C04002070B583073FD0541E002A3BD0FC
:101F2000CEB20300032503E0621E002C34D014005F
:101F300001335A1E16702B42F6D1032C24D9FF25EB
:101F40000D402A0215432A0415430F2C11D92600EF
:101F5000103E3609013636011A009B19156055608E
:101F60009560D56010329342F8D10F221440032CB3
:101F70000AD9261FB6080136B6001A009B1920C2DE
:101F80009342FCD103221440002C05D0C9B21C1985
:101F9000197001339C42FBD170BD14000300CCE7E3
:101FA000034B10B5002B02D0024800F083F810BD9F
:101FB00000000000C5200000F0B55F4656464D46C3
:101FC0004446F0B40F00394B85B01B680190029372
:101FD0004933FF330393A422029B52009E58002EE4
:101FE0004ED0039B9946C4235B00984604339A461F
:101FF0007468B044A5007519B244013C08D52DE0C1
:102000006B1DFF331B689F4204D0043D013C25D368
:10201000002FF5D173686A68013BA34239D00023D1
:102020006B60002AF1D0736841469B460123A340B0
:10203000096819422BD05146096819422BD12B004F
:10204000843319680198904773685B45C3D14B4648
:102050001B68B342BFD1043D013CD9D2144B002BC5
:102060000ED07368002B1BD13368002B1CD04A465E
:102070003000136000E000BF4B461E68002EB2D156
:1020800005B03CBC90469946A246AB46F0BD904791
:10209000DAE77460C5E72B00843318689047D3E70C
:1020A0003368B1461E00E9E70023FAE72422000066
:1020B0000000000010B5010000230022002000F005
:1020C0001BF810BD70B5094B094CE41AA41009D0D7
:1020D000084AA518AD00ED182B68013C9847043D4F
:1020E000002CF9D100F07AF870BDC0463C04002005
:1020F00040040020FFFFFF3FF8B544465F465646C8
:102100004D469B462F4BF0B41C68A4235B00050092
:10211000E0580E00904600284BD043681F2B0DDC82
:102120005C1C002D21D102339B0044601E50002016
:102130003CBC90469946A246AB46F8BD224B002BCC
:102140003CD0C820400000E000BF002836D0A422C8
:1021500000235200A15843600160A05040328350D8
:10216000043283500124002DDDD09A009146814431
:10217000424688214F467A50C422520090468044FD
:1021800042468739994012688A460A439446424635
:1021900061461160842249465F4652008F50022DED
:1021A000C1D1020055468D32FF3211680D431560D2
:1021B000B9E720004D30FF30E050AEE7012040424B
:1021C000B6E7C0462422000000000000FEE7C0463B
:1021D000F8B5C046F8BC08BC9E467047F8B5C04686
:1021E000F8BC08BC9E4670472E2E2F6D61696E2E7E
:1021F000630000002E2E2F2E2E2F2E2E2F2E2E2F50
:102200002F536F757263652F6170705F636F6D6DB3
:102210006F6E2F6170705F74696D65722E63000060
:0C22200043000000080000200000000047
:08222C00F4DEFF7F0100000059
:10223400000000000024F40000000000F40200206C
:102244005C030020C4030020000000000000000024
:10225400000000000000000000000000000000007A
:102264000000000000000000000000002022000028
:10227400000000000000000000000000000000005A
:10228400000000000000000000000000000000004A
:10229400000000000000000000000000000000003A
:1022A400000000000000000000000000000000002A
:1022B400000000000000000000000000000000001A
:1022C400000000000000000000000000000000000A
:1022D40000000000000000000000000000000000FA
:1022E40001000000000000000E33CDAB34126DE697
:1022F400ECDE05000B000000000000000000000000
:1023040000000000000000000000000000000000C9
:1023140000000000000000000000000000000000B9
:1023240000000000000000000000000000000000A9
:102334000000000000000000000000000000000099
:1026640008000020A11F0000E9000000C1000000D4
:042674000000000062
:0400000300001E5982
:00000001FF
