:100000000040002085030000CD030000CF03000066
:1000100000000000000000000000000000000000E0
:10002000000000000000000000000000D1030000FC
:100030000000000000000000D3030000D503000012
:10004000D7030000D7030000D7030000D703000048
:10005000D703000000000000D7030000D703000012
:10006000D7030000D7030000D7030000D703000028
:10007000D7030000D7030000D7030000D703000018
:10008000D7030000D7030000D7030000D703000008
:10009000D7030000D7030000D7030000D7030000F8
:1000A000D7030000D703000000000000000000009C
:1000B0000000000000000000000000000000000040
:1000C00010B5064C2378002B07D1054B002B02D02E
:1000D000044800E000BF0123237010BD4404002049
:1000E000000000001C070000084B10B5002B03D0D7
:1000F0000749084800E000BF07480368002B00D10B
:1001000010BD064B002BFBD09847F9E7000000001C
:10011000480400201C0700004004002000000000EC
:10012000164B002B00D1144B9D46402292029A1A86
:10013000924600218B460F461348144A121A00F0CB
:100140007FF90F4B002B00D098470E4B002B00D0AF
:1001500098470020002104000D000D48002802D01F
:100160000C4800F03DFA00F047F92000290000F0AB
:1001700033F800F031F9C0460000080000400020CC
:100180000000000000000000440400206004002083
:10019000E1050000F105000080B582B000AF786095
:1001A000A023DB057A68C132FF3292000321D150CF
:1001B000C046BD4602B080BD80B582B000AF786059
:1001C000A023DA0501217B689940A123DB00D150EF
:1001D000C046BD4602B080BD80B500AF1820FFF715
:1001E000DBFF1820FFF7E8FF1820FFF7E5FFFA23F1
:1001F0005B00180000F01EF8F6E7C04680B582B03C
:1002000000AF7860C046C046C046C046C046C04643
:10021000C046C046C046C046C046C046C046C046AE
:100220007B68013B7B60002BECD1C046BD4602B031
:1002300080BDC04680B582B000AF786006E07B68C4
:10024000013B7B60054B1800FFF7D8FF7B68002B54
:10025000F5D1C046BD4602B080BDC046E7030000F0
:1002600080B500AF024B034A1A60C046BD4680BD50
:10027000040000200024F40080B500AF00F01CF85A
:10028000031E06D0094B0A4A1A600A4B802212024A
:100290001A6000F051F8031E05D08023DA05C1234F
:1002A000DB000121D150C046BD4680BD04050040A1
:1002B000DFFF07C0186C004080B500AF1A4B1B6809
:1002C000FF221340012B2AD1184B1B680F22134029
:1002D00025D1174B1B68F022134006D1154B1B6824
:1002E000F022134001D101231AE0114B1B68F022C8
:1002F0001340102B06D10F4B1B68F022134001D185
:1003000001230DE00A4B1B68F0221340302B06D16D
:10031000084B1B68F022134001D1012300E00023A9
:100320001800BD4680BDC046E00F00F0E40F00F0AD
:10033000E80F00F0EC0F00F080B500AF0D4B1B682C
:10034000FF221340012B11D10B4B1B680F221340CE
:100350000CD10A4B1B68F0221340402B06D1084BEE
:100360001B68F022134001D1012300E00023180094
:10037000BD4680BDE00F00F0E40F00F0E80F00F094
:10038000EC0F00F003210A4802680A4302600948A2
:1003900002680A4302600849084A094B9B1A03DDB8
:1003A000043BC858D050FBDC06488047064800474D
:1003B00024050040540500402807000000000020EC
:1003C000440400207902000021010000FEE7FEE75E
:1003D000FEE7FEE7FEE7FEE710B50021040000F0AF
:1003E00081F8044B1868C36B002B00D0984720009D
:1003F00000F082F91807000070B50D4E0D4D002475
:10040000AD1BAD1005D0A300F35801349847A542A9
:10041000F9D100F073F9084E084D0024AD1BAD1062
:1004200005D0A300F35801349847A542F9D170BD17
:100430003404002034040020340400203C04002054
:1004400070B583073FD0541E002A3BD0CEB20300C4
:10045000032503E0621E002C34D0140001335A1E21
:1004600016702B42F6D1032C24D9FF250D402A0209
:1004700015432A0415430F2C11D92600103E3609C6
:10048000013636011A009B19156055609560D560DC
:1004900010329342F8D10F221440032C0AD9261FA0
:1004A000B6080136B6001A009B1920C29342FCD14F
:1004B00003221440002C05D0C9B21C191970013355
:1004C0009C42FBD170BD14000300CCE7034B10B578
:1004D000002B02D0024800F083F810BD000000009D
:1004E000F1050000F0B55F4656464D464446F0B46F
:1004F0000F00394B85B01B68019002934933FF33DD
:100500000393A422029B52009E58002E4ED0039BC0
:100510009946C4235B00984604339A467468B044F5
:10052000A5007519B244013C08D52DE06B1DFF33C1
:100530001B689F4204D0043D013C25D3002FF5D118
:1005400073686A68013BA34239D000236B60002ABC
:10055000F1D0736841469B460123A34009681942C4
:100560002BD05146096819422BD12B0084331968CE
:100570000198904773685B45C3D14B461B68B342F3
:10058000BFD1043D013CD9D2144B002B0ED073686F
:10059000002B1BD13368002B1CD04A46300013605F
:1005A00000E000BF4B461E68002EB2D105B03CBC37
:1005B00090469946A246AB46F0BD9047DAE7746094
:1005C000C5E72B00843318689047D3E73368B146FA
:1005D0001E00E9E70023FAE718070000000000000A
:1005E00010B5010000230022002000F01BF810BD10
:1005F00070B5094B094CE41AA41009D0084AA51893
:10060000AD00ED182B68013C9847043D002CF9D152
:1006100000F07AF870BDC0463C0400204004002081
:10062000FFFFFF3FF8B544465F4656464D469B46A2
:100630002F4BF0B41C68A4235B000500E0580E00AB
:10064000904600284BD043681F2B0DDC5C1C002D0E
:1006500021D102339B0044601E5000203CBC9046D8
:100660009946A246AB46F8BD224B002B3CD0C82091
:10067000400000E000BF002836D0A4220023520032
:10068000A15843600160A05040328350043283502F
:100690000124002DDDD09A009146814442468821F4
:1006A0004F467A50C42252009046804442468739D1
:1006B000994012688A460A43944642466146116050
:1006C000842249465F4652008F50022DC1D102005C
:1006D00055468D32FF3211680D431560B9E7200091
:1006E0004D30FF30E050AEE701204042B6E7C04653
:1006F0001807000000000000FEE7C046F8B5C0463D
:10070000F8BC08BC9E467047F8B5C046F8BC08BCAB
:100710009E467047430000000800002000000000D3
:0807200000FAFF7F0100000058
:10072800000000000024F40000000000F402002093
:100738005C030020C403002000000000000000004B
:1007480000000000000000000000000000000000A1
:100758000000000000000000000000001407000076
:100768000000000000000000000000000000000081
:100778000000000000000000000000000000000071
:100788000000000000000000000000000000000061
:100798000000000000000000000000000000000051
:1007A8000000000000000000000000000000000041
:1007B8000000000000000000000000000000000031
:1007C8000000000000000000000000000000000021
:1007D80001000000000000000E33CDAB34126DE6BE
:1007E800ECDE05000B000000000000000000000027
:1007F80000000000000000000000000000000000F1
:1008080000000000000000000000000000000000E0
:1008180000000000000000000000000000000000D0
:1008280000000000000000000000000000000000C0
:100B580008000020CD040000E9000000C1000000EA
:040B68000000000089
:040000030000038571
:00000001FF
