:10000000004000203D660000856600008766000015
:1000100000000000000000000000000000000000E0
:1000200000000000000000000000000089660000E1
:1000300000000000000000008B6600008D660000DC
:100040008F6600008F6600008F6600004506000086
:100050008F66000000000000511700008F6600004E
:100060008F6600008F6600008F6600008F660000BC
:100070008F6600008F6600008F6600008F660000AC
:100080008F660000654F00008F6600008F660000DD
:10009000B54F00008F6600008F6600008F6600007D
:1000A0008F6600008F660000000000000000000066
:1000B0000000000000000000000000000000000040
:1000C00010B5064C2378002B07D1054B002B02D02E
:1000D000044800E000BF0123237010BD6009002028
:1000E0000000000014EB0000084B10B5002B03D0FB
:1000F0000749084800E000BF07480368002B00D10B
:1001000010BD064B002BFBD09847F9E7000000001C
:100110006409002014EB00005C09002000000000CE
:10012000164B002B00D1144B9D46402292029A1A86
:10013000924600218B460F461348144A121A08F0C3
:100140005BFC0F4B002B00D098470E4B002B00D0D0
:1001500098470020002104000D000D48002802D01F
:100160000C480AF0BDF908F0E5FB2000290000F07A
:100170006DF808F0CFFBC0460000080000400020EA
:1001800000000000000000006009002008130020AB
:10019000E1A4000095B5000080B582B000AF7860A2
:1001A00039600AE0A023DB057A68C132FF32920091
:1001B0000321D1507B6801337B607A683B689A42A7
:1001C000F0D9C046BD4602B080BDC04680B584B0FF
:1001D00000AF786001227B689A401300FB60A02387
:1001E000DB050D4A9A587B68DA4013000122134060
:1001F000BB60BB68002B06D1A023DA05A123DB007E
:10020000F968D15004E0A023DB050449FA685A508C
:10021000C046BD4604B080BD040500000C050000CA
:1002200080B586B002AFF860B9607A601B20FFF736
:10023000CDFFF868BA6804497B680093030000208A
:1002400006F052F9FEE7C046A8DF000090B58DB079
:100250000AAFC64B1900002005F06AFC1A211920CC
:10026000FFF79AFFFB1D01221A70C14B1B689847CC
:10027000BF4BDB68BF4A10009847BD4BDC69BE4BE3
:10028000089300230793002306930023059301237B
:10029000049300230393082302930123019307236C
:1002A0000093002300220E210120A047B04B9C693F
:1002B0000123099300230893002307930023069347
:1002C0000123059300230493002303930523029342
:1002D000082301930023009301230722002101201A
:1002E000A047A34B1B6BA54A10009847A44B1900CD
:1002F000002005F01DFC9E4B1B6D9847A14B1B7801
:10030000052B00D92FE19A009F4BD3181B689F46FD
:100310009E4B1900002005F00BFC9D4B190000209E
:1003200005F006FC994B1900002005F001FCFB1DAF
:100330001B78002B5CD0974B1B88002B00D19EE0D4
:100340009549964B0422180008F0DEFB031E32D1BB
:100350001A20FFF73BFF914B50221A708F4B492216
:100360005A708E4B4E229A708C4B4722DA70BB1D0E
:1003700004221A700CE0BB1D1B78BA1D1278043AD7
:10038000D1B2864AD154BB1D1A78BB1D01321A70F6
:10039000BB1D1B789AB27F4B1B889A42EBD301207E
:1003A00000F0A8FE724B5B6A7A4A1288D1B27B4A8F
:1003B0001000984763E07A49784B0422180008F04F
:1003C000A3FB031E0BD1FB1D00221A701A20FFF79E
:1003D000FDFE674B1B6B694A100098474FE0FB1D01
:1003E00001221A70624B1B6B644A1000984746E06A
:1003F000684B1B88002B42D06949684B04221800C7
:1004000008F082FB031E32D11A20FFF7DFFE634B98
:1004100050221A70614B4F225A70604B4E229A70D4
:100420005E4B4722DA70BB1D04221A700CE0BB1D24
:100430001B78BA1D1278043AD1B2584AD154BB1D68
:100440001A78BB1D01321A70BB1D1B789AB2514B32
:100450001B889A42EBD3012000F04CFE444B5B6AB0
:100460004C4A1288D1B24D4A1000984707E0FB1D54
:1004700001221A703E4B1B6B404A10009847414BBB
:1004800000221A7070E0414B1900002005F050FB6B
:10049000444B1900002005F04BFB3C4B1900002099
:1004A00005F046FB1920FFF791FE314B1B6B334AD9
:1004B00010009847334B00221A7055E03A4B190050
:1004C000002005F035FBFB1D1B78002B34D0374B8B
:1004D0001900002005F02CFB304B50221A702F4BD6
:1004E00049225A702D4B4E229A702C4B4722DA70BB
:1004F000BB1D04221A700CE0BB1D1B78BA1D1278BC
:10050000043AD1B2254AD154BB1D1A78BB1D013221
:100510001A70BB1D1B789AB21E4B1B889A42EBD3F4
:10052000012000F0E7FD124B5B6A1A4A1288D1B233
:100530001A4A1000984704E00D4B1B6B0F4A10003D
:100540009847104B00221A700EE0194B190000203A
:1005500005F0EEFA064B1B6B084A10009847094B52
:1005600000221A7000E0C046C5E6C046D8DF000091
:10057000E8E000004018D833B80B000088130000F2
:10058000ECDF00007C090020A4E0000000E0000097
:1005900024E0000004000020A0DF0000441200203E
:1005A00098DF000048E000006CE0000084E00000FC
:1005B00098E0000080B582B000AF7860A023DB0532
:1005C0007A68C132FF3292000321D150C046BD4645
:1005D00002B080BD80B582B000AF78600A00FB1C1D
:1005E0001A70A023DB05FA1C1278920011007A68B9
:1005F000C132FF329200D150C046BD4602B080BD2C
:1006000080B582B000AF7860A023DA0501217B6855
:100610009940A123DB00D150C046BD4602B080BD49
:1006200080B582B000AF7860A023DB0501217A6835
:1006300091400A0002495A50C046BD4602B080BDF2
:100640000C05000080B582B000AF0F4A84235B0028
:10065000D358012B14D10C4AC1239B00D358042238
:1006600013400DD0084A84235B000021D1500020A4
:1006700000F00CF803007B607B68180000F0BEF906
:10068000C046BD4602B080BD0030004080B582B09B
:1006900000AF0200FB1D1A70FB1D1B78002B08D158
:1006A000FB1D1A7813009B009B18DB00034A9B1864
:1006B00000E000231800BD4602B080BD8009002084
:1006C00080B586B000AFF86008007A6019000B238F
:1006D000FB18021C1A700A23FB180A1C1A70172335
:1006E000FB187A68511E8A411A701723FB181B7871
:1006F00001225340DBB2002B05D01F4B1A007121A1
:100700000020FFF78DFD7B68FA681A607B680B227A
:10071000BA1812781A717B6800229A607B680022EE
:100720009A817B680022DA817B6800221A617B68EB
:1007300000229A827B680022DA827B6800225A8338
:100740007B6800221A837B6800221A777B6800226C
:100750001A627B682422002199547B68252200219B
:1007600099540A23FB181B78D9B27B682622995426
:10077000C046BD4606B080BDBCE0000080B586B076
:1007800000AFF8607A603B600A23FB180A1C1A80ED
:100790001723FB187A68511E8A411A701723FB1819
:1007A0001B7801225340DBB2002B05D0204B1A00EE
:1007B00092210020FFF734FD1623FB183A68511EE2
:1007C0008A411A701623FB181B7801225340DBB2B2
:1007D000002B05D0164B1A0093210020FFF720FDB7
:1007E0001523FB183A6A511E8A411A701523FB180B
:1007F0001B7801225340DBB2002B05D00C4B1A00B2
:1008000094210020FFF70CFD7B68FA681A60FB68F2
:10081000002B03D00A23FB181A8800E000223B6853
:100820001A803B6A00221A80C046BD4606B080BDD1
:10083000BCE0000080B584B000AF786039600F2361
:10084000FB187A68511E8A411A700F23FB181B7817
:1008500001225340DBB2002B05D0124B1A00A1211C
:100860000020FFF7DDFC0E23FB183A68511E8A4179
:100870001A700E23FB181B7801225340DBB2002BA9
:1008800005D0084B1A00A2210020FFF7C9FC7B68A5
:1008900000221A603B6800221A80C046BD4604B0A0
:1008A00080BDC046BCE0000080B584B000AF786079
:1008B00008001100FB1C021C1A703B000A1C1A8065
:1008C0000F23FB187A68511E8A411A700F23FB18F8
:1008D0001B7801225340DBB2002B05D0124B1A00CB
:1008E000AF210020FFF79CFC7B681B6A002B17D010
:1008F0000823FB1802221A700823FB1800225A80D2
:100900000823FB18FA1C12781A700823FB183A0007
:1009100012885A807B681A6A0823FB181868904767
:10092000C046BD4604B080BDBCE0000080B584B0C8
:1009300000AF78600F23FB187A68511E8A411A7045
:100940000F23FB181B7801225340DBB2002B05D08C
:10095000284B1A00C0210020FFF762FC7B681A6850
:100960007B689B68002B0FD07B68DB8999B27B6822
:100970009B899BB2994207D27B689B687968C98939
:1009800089B25B181B7800E000231B4953507B6839
:10099000DB899BB201339AB27B68DA817B68DB89A1
:1009A0009AB27B681B8B9BB29A421FD27B681A68F3
:1009B0007B689B68002B0FD07B68DB8999B27B68D2
:1009C0009B899BB2994207D27B689B687968C989E9
:1009D00089B25B181B7800E00023074953507B68FD
:1009E000DB899BB201339AB27B68DA81C046BD468F
:1009F00004B080BDBCE000001C05000080B584B0E0
:100A000000AF78600F23FB187A68511E8A411A7074
:100A10000F23FB181B7801225340DBB2002B05D0BB
:100A2000504B1A00D8210020FFF7FAFB7B685B8B44
:100A30009BB201339AB27B685A837B6825229B5C08
:100A4000DBB201225340DBB2002B0BD07B682522A6
:100A5000012199547B685B8B9AB27B680021180056
:100A6000FFF722FF7B681A68A323DB00D2580E230E
:100A7000FB181A707B681B69002B15D07B68DB8A1A
:100A80009AB27B689B8A9BB29A420DD27B681A69A4
:100A90007B68DB8A9BB2591C88B27968C882D318FC
:100AA0000E22BA1812781A707B68DB899AB27B68BA
:100AB0001B8B9BB29A421FD27B681A687B689B682B
:100AC000002B0FD07B68DB8999B27B689B899BB236
:100AD000994207D27B689B687968C98989B25B189B
:100AE0001B7800E00023204953507B68DB899BB2D0
:100AF00001339AB27B68DA817B685B8B9AB27B6840
:100B00001B8B9BB29A4228D37B681B7FDBB21800F9
:100B1000FFF776FD0C23FB187A68D2891A807B6870
:100B200008331A007B680C3319001000FFF782FEAF
:100B30007B6810331A007B68143319001000FFF72C
:100B400079FE7B682422022199540C23FB181A8811
:100B50007B6801211800FFF7A7FEC046BD4604B020
:100B600080BDC046BCE000001C05000080B588B018
:100B700000AF02003960FB1D1A703B68002B01D1E9
:100B80000E23CEE0FB1D1B781800FFF77FFD03004E
:100B9000FB611B23FB18FA69511E8A411A701B2343
:100BA000FB181B7801225340DBB2002B06D05F4AB2
:100BB00089235B0019000020FFF732FBFB1D1B7827
:100BC000002B00D00AE03B68DB7E5A1E9341DBB26B
:100BD000FA6957480321FFF773FDC0463B681B695C
:100BE0001800FFF70DFD3B681B691800FFF7E2FCDA
:100BF0003B681B691800FFF703FD3B685B68180042
:100C0000FFF7D8FC3B68DB681800FFF7D3FC3B68B4
:100C10009B6800211800FFF7DDFC3B681B69DAB216
:100C2000FB691A77FB691A683B685968A123DB00E6
:100C3000D150FB691A683B68DB683E495350FB6939
:100C40001A683B689968A223DB00D150FB691A68D7
:100C50003B681B6838495350FB691B683A68927EB1
:100C6000520011003A68527E92000A433968097EA8
:100C70000A4332495A50FB691A6884235B000021F9
:100C8000D150FB691B795BB2180000F0D3FB030065
:100C90007B617B69002B07D0244A4223FF33190074
:100CA0007B691800FFF7BCFAFB691B795AB23B68F5
:100CB0005B69DBB21900100000F0CEFB03003B6162
:100CC0003B69002B06D0194AA12359003B69180043
:100CD000FFF7A6FAFB6900221A62FB691A68C123B2
:100CE0009B000421D150FB691B795BB2180000F016
:100CF00051FB0300FB60FB68002B07D00B4A4A2323
:100D0000FF331900FB681800FFF78AFAFB691A68BD
:100D1000A023DB000121D150FB6924220221995438
:100D200000231800BD4608B080BDC046BCE00000EE
:100D3000003000400C0500002405000054050000B0
:100D400080B586B000AF0200FB1D1A70FB1D1B783A
:100D50001800FFF79BFC03007B611323FB187A69E3
:100D6000511E8A411A701323FB181B78012253402D
:100D7000DBB2002B06D02C4A5E23FF331900002083
:100D8000FFF74EFA7B691B795BB2180000F052FB4B
:100D90000300FB60FB68002B06D0234AB0235900F8
:100DA000FB681800FFF73CFA7B691B795BB21800FF
:100DB00000F002FB0300BB60BB68002B07D01A4A9F
:100DC0006223FF331900BB681800FFF729FA7B691B
:100DD0001A68A023DB000021D1507B691B7FDBB2A6
:100DE0001800FFF71DFC7B69FF221A777B691A68E0
:100DF000A123DB0001214942D1507B691B680B49CB
:100E0000012252425A507B691A68A223DB00012159
:100E10004942D1507A69002300210020FFF750FC9D
:100E2000C046BD4606B080BDBCE000000C05000019
:100E300080B584B000AF0200FB1D1A70FB1D1B784B
:100E40001800FFF723FC0300FB600B23FB18FA6874
:100E5000511E8A411A700B23FB181B780122534044
:100E6000DBB2002B06D0074A7C23FF331900002099
:100E7000FFF7D6F9FB6824229B5CDBB21800BD4665
:100E800004B080BDBCE0000080B584B000AF0200BB
:100E90003960FB1D1A70FB1D1B781800FFF7F6FB6D
:100EA0000300FB600B23FB18FA68511E8A411A707D
:100EB0000B23FB181B7801225340DBB2002B06D01A
:100EC000064A8A23FF3319000020FFF7A9F9FB68BF
:100ED0003A681A62C046BD4604B080BDBCE000005E
:100EE000B0B58EB002AFB96011007B600F23FB1864
:100EF000021C1A700C23FB180A1C1A800F23FB1803
:100F00001B781800FFF7C2FB0300BB622723FB1806
:100F1000BA6A511E8A411A702723FB181B780122D6
:100F20005340DBB2002B06D0634A9A23FF331900EB
:100F30000020FFF775F90023FB622423FB18002231
:100F40001A801323FB1800221A70BB6A26229B5CAE
:100F5000DBB2002B11D01323FB18180000F0B8FAF5
:100F600003003B623B6A002B1AD0534AD22359003C
:100F70003B6A1800FFF754F912E0BB6A1B795BB2B9
:100F8000180000F019FA0300FB61FB69002B07D081
:100F9000494AAA23FF331900FB691800FFF740F9FB
:100FA000BB6A24229B5CDBB2022B51D12423FA18AA
:100FB0000C23FB18402179180C881B8898B2A1B229
:100FC000884200D2231C13802423FB181B88002B8B
:100FD0003BD0BB6A242201219954BB6A00225A8368
:100FE000BB6A252200219954BB6A2422BA181288B0
:100FF0001A83BB6A08331C00BB6A0C331D00BB6A32
:101000000E330C22BA181188B86800932B00220006
:10101000FFF7B4FBBB6A10331A00BB6A14331C0021
:10102000BB6A163340217918098878680093230039
:10103000FFF7A4FBBB6A1B7FDBB21800FFF7F0FAD7
:10104000BB6A1800FFF772FC04E00723FB6201E0B3
:101050001123FB62BB6A26229B5CDBB2002B12D001
:101060001323FB181B78180000F04CFA0300BB6137
:10107000BB69002B1AD0104AEB235900BB6918003A
:10108000FFF7CEF812E0BB6A1B795BB2180000F0E4
:1010900081F903007B617B69002B07D0064ADC23C2
:1010A000FF3319007B691800FFF7BAF8FB6A1800D4
:1010B000BD460CB0B0BDC046BCE0000080B582B0FB
:1010C00000AF7860C046C046C046C046C046C04675
:1010D000C046C046C046C046C046C046C046C046E0
:1010E0007B68013B7B60002BECD1C046BD4602B063
:1010F00080BDC04680B582B000AF786006E07B68F6
:10110000013B7B60054B1800FFF7D8FF7B68002B85
:10111000F5D1C046BD4602B080BDC046E703000021
:1011200080B582B000AF0200FB1D1A70064BFA1D9D
:10113000127811001F220A40012191400A001A6012
:10114000C046BD4602B080BD00E100E080B582B07F
:1011500000AF0200FB1D1A70074AFB1D1B78190027
:101160001F230B40012199400B0019008023D1500F
:10117000C046BD4602B080BD00E100E080B582B04F
:1011800000AF0200FB1D1A700A4A80235B00D3588F
:10119000FA1D127811001F220A40012191400A0015
:1011A000134001D0012300E000231800BD4602B027
:1011B00080BDC04600E100E080B582B000AF020013
:1011C000FB1D1A70084AFB1D1B7819001F230B40DA
:1011D000012199400B00190080235B00D150C046CB
:1011E000BD4602B080BDC04600E100E080B582B0DF
:1011F00000AF0200FB1D1A70084AFB1D1B78190086
:101200001F230B40012199400B001900C0235B00F4
:10121000D150C046BD4602B080BDC04600E100E0EE
:10122000B0B582B000AF02003960FB1D1A70FB1D23
:101230001B787F2B32D92F4CFB1D1B781A000F23F4
:101240001340083B99082B4AFB1D1B7818000F23FD
:101250000340083B9B0806339B00D31804331B68EC
:10126000FA1D1278100003220240D200FF209040A5
:101270000200D2431A403B689B01FF201840FB1D2F
:101280001B781D0003232B40DB00984003001A430A
:101290008B1D9B00E31804331A6027E0164CFB1DDE
:1012A0001B785BB29B081449FA1D127852B292085F
:1012B000C03292005258F91D0978080003210140FC
:1012C000C900FF2088400100C94311403A689201DB
:1012D000FF201040FA1D1278150003222A40D20088
:1012E000904002000A43C0339B001A51C046BD46DD
:1012F00002B0B0BD00ED00E000E100E080B582B0DA
:1013000000AF0200FB1D1A70FB1D1B787F2B18D944
:10131000174AFB1D1B7819000F230B40083B9B0845
:1013200006339B00D31804331A68FB1D1B78190081
:1013300003230B40DB00DA401300FF2213409B091C
:1013400012E00C4AFB1D1B785BB29B08C0339B006C
:101350009A58FB1D1B78190003230B40DB00DA4071
:101360001300FF2213409B091800BD4602B080BD48
:1013700000ED00E000E100E080B500AFBFF34F8F6B
:10138000024B034ADA60BFF34F8FFEE700ED00E047
:101390000400FA0580B582B000AF0200FB1D1A7090
:1013A000FB1D1B785BB21800FFF7BAFE0023180084
:1013B000BD4602B080BDC04680B582B000AF02001D
:1013C000FB1D1A70FB1D1B785BB21800FFF7BEFEF9
:1013D00000231800BD4602B080BDC04680B582B073
:1013E00000AF02003960FB1D1A703B68002B0AD069
:1013F000FB1D1B785BB21800FFF7C0FE02003B68C4
:101400001A60002300E00E231800BD4602B080BD24
:1014100080B582B000AF0200FB1D1A70FB1D1B7867
:101420005BB21800FFF7C8FE00231800BD4602B0EB
:1014300080BDC04680B582B000AF0200FB1D1A70AF
:10144000FB1D1B785BB21800FFF7D0FE00231800CD
:10145000BD4602B080BDC04680B582B000AF02007C
:10146000FB1D1A70BB1D0A1C1A70BB1D1A78FB1DD0
:101470001B785BB211001800FFF7D2FE00231800A2
:10148000BD4602B080BDC04680B582B000AF02004C
:101490003960FB1D1A703B68002B0BD0FB1D1B78BD
:1014A0005BB21800FFF72AFF0300DAB23B681A703C
:1014B000002300E00E231800BD4602B080BDC046E8
:1014C00080B500AFFFF758FF00231800BD4680BD70
:1014D00080B582B000AF786072B6094B1B785A1E97
:1014E0009341DBB21A007B681A70054B1B780133FD
:1014F000DAB2034B1A7000231800BD4602B080BD5B
:10150000A809002080B582B000AF0200FB1D1A7050
:10151000094B1B78013BDAB2074B1A70FB1D1B7895
:10152000002B03D1044B00221A7062B6002318006E
:10153000BD4602B080BDC046A809002080B582B07B
:1015400000AF0200FB1D1A70064BFA1D1278110045
:101550001F220A40012191400A001A60C046BD4680
:1015600002B080BD00E100E080B582B000AF7860DD
:1015700039600AE0A023DB057A68C132FF329200AD
:101580000321D1507B6801337B607A683B689A42C3
:10159000F0D9C046BD4602B080BDC04680B582B01D
:1015A00000AF7860A023DB057A68C132FF32920079
:1015B0000321D150C046BD4602B080BD80B582B087
:1015C00000AF78600A00FB1C1A70A023DB05FA1C30
:1015D0001278920011007A68C132FF329200D15025
:1015E000C046BD4602B080BD80B582B000AF786015
:1015F000A023DA0501217B689940A123DB00D150AB
:10160000C046BD4602B080BD80B582B000AF7860F4
:10161000A023DB0501217A6891400A0002495A5053
:10162000C046BD4602B080BD0C05000080B584B048
:1016300000AF786001227B689A401300FB60A02312
:10164000DB050D4A9A587B68DA40130001221340EB
:10165000BB60BB68002B06D1A023DA05A123DB0009
:10166000F968D15004E0A023DB050449FA685A5018
:10167000C046BD4604B080BD040500000C05000056
:1016800080B584B000AFF860B960FB1D1A700D49D9
:10169000BB681A02FB1D1B781B04134301221A436B
:1016A000FB684533FF339B005A50C046C046C046D6
:1016B000044AFB6840339B0000219950C046BD4658
:1016C00004B080BD0060004080B500AF1B4B190026
:1016D000002004F02DFA1A4B1A681A4B1B681900E7
:1016E0001000FFF741FF184B5B6803211800FFF75C
:1016F00065FF154B9B6803211800FFF75FFF124B36
:101700005B68012219000020FFF7BAFF0E4B9B68AF
:10171000012219000120FFF7B3FF0C4AC1239B00EF
:101720000121D150094AC1239B000221D15006203A
:10173000FFF704FFC046BD4680BDC0461CE2000066
:101740000C000020100000208412002000600040E7
:1017500080B500AF224A80235B00D358012B1CD1F7
:101760001F4AC1239B00D3580122134015D01C4AA5
:1017700080235B000021D1501A4B1900002004F097
:10178000D7F9194B1A000021002003F0CBFE174BAC
:101790001900002004F0CCF91CE0114A82235B0000
:1017A000D358012B16D10E4AC1239B00D3580222D5
:1017B00013400FD00A4A82235B000021D1500C4B0A
:1017C0001900002004F0B4F90A4B1A00002100208F
:1017D00003F0A8FE1920FFF729FFC046BD4680BDD3
:1017E0000060004038E20000AD37000050E2000029
:1017F0006CE20000653D000080B500AF8023DA0593
:10180000A323DB000021D1508023DA0582235B0073
:101810000021D1508023DB0501229A60C04680233D
:10182000DA0582235B00D358002BF8D08023DA0539
:1018300082235B000021D150034B1900002004F0EB
:1018400077F9C046BD4680BD84E2000080B58AB00D
:1018500002AFFFF7D1FF374A00230093130006229F
:101860000421002003F0AEFB0300FB61FB69BB61B8
:10187000BB69002B07D0304A6023FF331900BB69D6
:101880001800FEF7CDFC2D4A2D4B0021180003F067
:1018900057FC03007B617B693B613B69002B07D0F0
:1018A000254A6623FF3319003B691800FEF7B8FC90
:1018B000224A244B0021180003F042FC03007B6104
:1018C0007B69FB60FB68002B06D01B4AB5235900DF
:1018D000FB681800FEF7A4FC184A1B4B00211800F7
:1018E00003F02EFC03007B617B69BB60BB68002BAF
:1018F00007D0114A7023FF331900BB681800FEF7A8
:101900008FFC124B1A000521022003F0C3FD0300D7
:101910007B607B683B603B68002B06D0064AB9239E
:1019200059003B681800FEF77BFCC046BD4608B076
:1019300080BDC046C40A0020A4E20000DD360000DD
:10194000B80A0020BC0A0020C00A0020740D002044
:1019500080B588B002AFF860B960BB1D1A80B86866
:10196000BB1D1A88F968BB1D1B880093030000206B
:10197000FFF7B6FA03007B617B693B613B69002B93
:1019800007D0074A8223FF3319003B691800FEF78E
:1019900047FC1920FFF74AFEC046BD4606B080BD91
:1019A000A4E2000090B589B000AF3B1D104A13CAF5
:1019B00013C313CA13C312681A600E4B1900002018
:1019C00004F0B6F83B1D09225A603B1D08229A60BC
:1019D0003B1D0722DA603B1D06221A613B1D1900E0
:1019E0000020FFF7C3F803001800BD4609B090BD02
:1019F000DCE20000C8E2000080B582B000AF3B1D11
:101A000018603B1D1B78012B00D003E0034B012223
:101A10001A70C046C046BD4602B080BD0800002016
:101A200080B582B000AF0200FB1D1A70144B20225B
:101A30009B5CFA1D12789A421ED0114BFA1D202190
:101A400012785A54FB1D1B78002B0AD00D4B1B68D3
:101A50001800FFF7D9FD0C4B1B681800FFF7C4FDF9
:101A60000BE0084B1B681800FFF7BEFD064B1B6818
:101A70001800FFF7C9FD00E0C046BD4602B080BDBA
:101A8000841200200C0000201000002080B582B0DD
:101A900000AF0200FB1D1A70C046BD4602B080BDFB
:101AA00080B582B000AF786080231800BD4602B0D8
:101AB00080BDC04680B584B000AFFFF7C7FE384B8D
:101AC0001900002004F034F8FFF76CFF0300BB603E
:101AD000BB687B607B68002B05D0324A32497B684B
:101AE0001800FEF79DFB314B19000020FFF7CCF9E1
:101AF0002F4B1E221A602E4B0C225A602C4B0B22AD
:101B00009A602B4B0122DA61FFF7DEFD01F01AFC2F
:101B100000F006F9002001F03FFC0F23FB18002223
:101B20001A7028E00F23FB181A78224913005B0073
:101B30009B185B5C180001F06DFC0F23FB181A78F2
:101B40001C4913005B009B18CB18013318780F2336
:101B5000FB181A78174913005B009B18CB18023347
:101B60001B78190001F0B2FC0F23FB181A780F2321
:101B7000FB1801321A700F23FB181B780E2BD1D9DA
:101B8000002001F047FC0A4B2422002199540A4B03
:101B90001900002003F0CCFFC046BD4604B080BD54
:101BA000F8E20000A4E2000003020000F9190000BE
:101BB000841200203CE1000008E3000080B500AF83
:101BC000024B24229B5C1800BD4680BD841200207D
:101BD00090B583B000AF7860174B7A689A627868E6
:101BE00006F036FE0022154B05F0C8FB03000C0082
:101BF0001800210004F0B8FF03007B607B681B0C19
:101C0000DBB21900062001F061FC7B681B0ADBB225
:101C10001900072001F05AFC7B68DBB2190008208C
:101C200001F054FC064B1900002003F081FFC04670
:101C3000BD4603B090BDC0468412002080844E4053
:101C400018E3000090B585B000AF39601100FB1DAE
:101C5000021C1A703B1D0A1C1A800E23FB1800225E
:101C60001A80FB1D1B78180001F0D4FB3B6818009C
:101C7000FFF7AEFF052001F08FFB0120FFF73AFAD6
:101C80000E23FC18FB1D1B78180001F00FFB03004E
:101C9000238001F025F80E23FA183B1D0021525E27
:101CA00000215B5E9A4201DD002300E00123180061
:101CB000BD4605B090BDC04680B582B000AF0023E0
:101CC0003B60012001F0A6FBFF21112001F0FEFB8B
:101CD000052001F061FBFB1D00221A7015E00120B8
:101CE000FFF708FA2C2001F005FC03001A0001237D
:101CF0001A40FB1D1B789A4013003A6813433B605F
:101D0000FB1D1A78FB1D01321A70FB1D1B781F2B5F
:101D1000E5D900F0E5FF3B681800BD4602B080BD84
:101D200090B583B000AF374B1900002003F000FFDF
:101D3000FC1D092001F0DEFB03002370062001F0EA
:101D4000D9FB03001C04072001F0D4FB03001B0295
:101D50001C43082001F0CEFB03002343180006F0CB
:101D600077FD0022284B05F02DFF03000C00180022
:101D7000210004F0F9FE03003B600021092001F07E
:101D8000A5FB3B2001F0B6FB03001A0040231343E0
:101D9000DBB219003B2001F099FBC0463B2001F06B
:101DA000A9FB03001A0020231340F7D1174B18009A
:101DB000FFF70EFF3B2001F09DFB03001A004023BC
:101DC0001343DBB219003B2001F080FBC0463B20EF
:101DD00001F090FB03001A0020231340F7D1FB1DF4
:101DE0001B781900092001F071FB3B681800FFF710
:101DF000EFFE074B1900002003F09AFEC046BD46D7
:101E000003B090BD28E3000080844E4000A1BC33A5
:101E100040E3000080B584B000AF78600F23FB186A
:101E200000221A7022E00F23FB181A78144BD200FC
:101E3000D2587B689A4212D80F23FB181B785A1C81
:101E40000F4BD200D2587B689A4208D90F23FB1857
:101E50001B780B4ADB00D31804331B780CE00F23EC
:101E6000FB181A780F23FB1801321A700F23FB1886
:101E70001B78142BD7D9FEE71800BD4604B080BDEF
:101E80006CE1000090B585B000AFB9607A601900D0
:101E90000F23FB18021C1A700E23FB180A1C1A7061
:101EA0000F23FB181B78180001F0B4FA0F23FB185E
:101EB0001A78E44B1900002004F016FB0F23FB18DE
:101EC0001B78002B03D0012B00D1A9E0F1E1DE4B00
:101ED000BA685A63DC4B7A68DA63DB4B3A6A9A6316
:101EE000D94B2C22BA18422112785A54D64B3022A0
:101EF000BA18432112785A54D34B3422BA184421C9
:101F000012785A54D04B202220218C46BC44624483
:101F1000452112785A54CC4B242220218C46BC44B3
:101F20006244462112785A54C74B2422BA184021E1
:101F300012885A52786806F08BFC03000C001A00D5
:101F400023000020C14905F019FA03000C00180015
:101F5000210004F009FE03009BB27B607B681B0A32
:101F6000DBB21900022001F0B1FA7B68DBB2190084
:101F7000032001F0ABFABB681800FFF74BFF03002A
:101F80001900122001F0A2FA3B6A1800FFF742FF85
:101F900003001900132001F099FA2423FB181B8871
:101FA0001B0A9BB2DBB21900252001F08FFA242313
:101FB000FB181B88DBB21900262001F087FA2C23BE
:101FC000FB181B78002B07D03023FB181B78190057
:101FD000322001F07BFA03E0FF21322001F076FA93
:101FE000302001F087FA03005BB26F2213405AB22F
:101FF0002C23FB181B78002B01D0002301E0802349
:102000005B4213435AB23423FB181B781B015BB2AB
:1020100013435BB2DBB21900302001F057FA48E1FC
:10202000BB68022B00D9FEE7BB680733BB60864B59
:10203000BA681A66844B7A685A66834B0E22BA18BD
:10204000692112785A54804B2422BA186A211288C6
:102050005A527D4B2C22BA186C2112785A547A4B62
:102060003022BA186D2112785A54774B3422BA189C
:102070006E2112785A54744B3822BA186F21127894
:102080005A54714B3C22BA18702112785A546E4B34
:10209000202220218C46BC446244712112785A547B
:1020A000694B242220218C46BC4462447221127860
:1020B0005A547B680C2B02D90C237B6004E07B68AC
:1020C000052B01D806237B60BB68072B05D17B68F5
:1020D0000B2B08D07B680C2B05D0BB68082B07D1D5
:1020E0007B680C2B04D1584B68220121995403E0E2
:1020F000554B6822002199541D2001F0FBF9BB6863
:10210000DBB21B01DAB20E23FB181B78DB18DBB243
:102110001343DAB22C23FB181B781343DBB21900EC
:102120001D2001F0D3F91E2001F0E4F903001A008C
:1021300008231340DAB27B68DBB21B01DBB2134326
:10214000DAB23423FB181B789B00DBB21343DAB2FC
:102150002823FB181B881B0A9BB2DBB203210B4010
:10216000DBB21343DBB219001E2001F0AFF92620C9
:1021700001F0C0F903005BB2082293435AB2324B1C
:1021800068215B5CDB005BB213435BB2DBB219001E
:10219000262001F09BF92823FB181B88DBB21900CD
:1021A0001F2001F093F92423FB181B881B0A9BB204
:1021B000DBB21900202001F089F92423FB181B88C9
:1021C000DBB21900212001F081F92C23FB181B78C8
:1021D000002B06D03023FB181B781900222001F0B9
:1021E00075F9194B6F229B5C002B13D0442001F032
:1021F00081F903001A0080235B421343DBB219000C
:10220000442001F063F9104B70229B5C19002420DC
:1022100001F05CF9BB68092B08D10221362001F0DE
:1022200055F964213A2001F051F915E0BB68092BFA
:102230000ED10221362001F049F97F213A2001F028
:1022400045F909E05CE300008412002080847E41AF
:102250000321362001F03AF97B68062B14D1312096
:1022600001F048F903005BB2072293435BB20522F9
:1022700013435BB2DBB21900312001F027F90C21C6
:10228000372001F023F913E0312001F033F9030086
:102290005BB2072293435BB2032213435BB2DBB210
:1022A0001900312001F012F90A21372001F00EF94E
:1022B000C046044B1900002003F03AFCC046BD465E
:1022C00005B090BD78E3000090B587B000AFBA606C
:1022D0007B600F23FB18021C1A700E23FB180A1CCC
:1022E0001A701723FB1800221A701623FB180022FD
:1022F0001A700F23FB181B78180001F08BF80F23BE
:10230000FB181A78E54B1900002004F0EDF81723AC
:10231000FC18092001F0EEF8030023701623FC18C6
:102320004D2001F0E7F8030023701723FB181B78FA
:102330005BB27F2213405CB2D94B9B6A1800FFF757
:10234000AFFB03005BB223435AB21723FB181A708A
:102350001723FB181722BA18127870210A431A7033
:102360001723FB181B785BB2002B00DB76E00E23F3
:10237000FB181B785BB2112B08DD1623FB18162205
:10238000BA18127807210A431A700CE01623FB18BA
:102390001B785BB2072293435BB2042213435AB209
:1023A0001623FB181A701623FB181B7807221340FC
:1023B000072B29D10E23FB181B785BB2042B03DCFF
:1023C0000E23FB1805221A700E23FB181B785BB234
:1023D000142B03DD0E23FB1814221A701723FB188D
:1023E0001B785BB20F2293435AB20E23FB181B7863
:1023F000053BDBB25BB20F210B405BB213435AB219
:102400001723FB181A7052E00E23FB181B785BB2DF
:10241000012B03DC0E23FB1802221A700E23FB187B
:102420001B785BB2112B03DD0E23FB1811221A70EF
:102430001723FB181B785BB20F2293435AB20E236B
:10244000FB181B78023BDBB25BB20F210B405BB287
:1024500013435AB21723FB181A7028E00E23FB18F7
:102460001B785BB2013303DA0E23FB18FF221A70CC
:102470000E23FB181B785BB20E2B03DD0E23FB181B
:102480000E221A701723FB181B785BB20F2293439E
:102490005AB20E23FB181B780133DBB25BB20F215B
:1024A0000B405BB213435AB21723FB181A70172361
:1024B000FB181B781900092001F008F81623FB18F7
:1024C0001B7819004D2001F001F80F23FB181B7831
:1024D000002B03D0012B00D19AE0A0E1704B0E221B
:1024E000BA182C2112785A546D4BBA681A636C4B87
:1024F0007A685A636A4BBA6ADA63694B3022BA184F
:10250000402112885A52664B3422BA18422112785E
:102510005A54634B3822BA18442112785A54604BEB
:102520004422BA18452112785A545D4BBA6C9A6409
:10253000B86806F08DF900225A4B04F01FFF030023
:102540000C001800210004F00FFB03009BB2BB60DD
:10255000BB681B0ADBB21900042000F0B7FFBB68A0
:10256000DBB21900052000F0B1FFB86A06F070F97F
:1025700003000C001A00230000204B4904F0FEFE6B
:1025800003000C001800210004F0EEFA03009BB2D7
:10259000BB62BB6A1B0ADBB21900022000F096FF87
:1025A000BB6ADBB21900032000F090FF3023FB1858
:1025B0001B881B0A9BB2DBB21900252000F086FFA6
:1025C0003023FB181B88DBB21900262000F07EFFA9
:1025D000302000F08FFF03005BB26F2213405AB22D
:1025E0003423FB181B78002B01D0002301E080234B
:1025F0005B4213435AB23823FB181B781B015BB2B2
:1026000013435BB2DBB21900302000F05FFF06E13C
:10261000234B0E22BA185C2112785A547B68022B85
:1026200000D9FEE77B6807337B601D4B7A681A662A
:102630001B4BBA6A5A661A4B2C22BA1869211278B7
:102640005A54174B3022BA186A2112885A52144B26
:102650003422BA186C2112785A54114B3C22BA1801
:102660006F2112785A540E4B4022BA1870211278FA
:102670005A540B4B3822BA186E2112785A54084B10
:102680004422BA18712112785A54054BBA6C5A6711
:10269000BB6A0C2B0AD90C23BB620CE090E3000050
:1026A0008412002080844E4080847E41BB6A052BCA
:1026B00001D80623BB627B68072B05D1BB6A0B2BB5
:1026C00008D0BB6A0C2B05D07B68082B07D1BB6AEE
:1026D0000C2B04D1564B68220121995403E0544B32
:1026E000682200219954524B6F229B5C002B13D01F
:1026F000442000F0FFFE03001A0080235B421343D6
:10270000DBB21900442000F0E1FE494B70229B5CD3
:102710001900242000F0DAFE1D2000F0EBFE7B689B
:10272000DBB21B01DAB22C23FB181B78DB18DBB2FF
:102730001343DAB23423FB181B781343DBB21900BE
:102740001D2000F0C3FE1E2000F0D4FE03001A007E
:102750000B231340DAB2BB6ADBB21B01DBB21343BB
:10276000DAB23823FB181B789B00DBB21343DBB2D1
:1027700019001E2000F0AAFE262000F0BBFE030078
:102780005BB2082293435AB2294B68215B5CDB00A1
:102790005BB213435BB2DBB21900262000F096FE59
:1027A0003023FB181B881B0A9BB2DBB219002020C8
:1027B00000F08CFE3023FB181B88DBB219002120AF
:1027C00000F084FEBB6A062B14D1312000F092FE8B
:1027D00003005BB2072293435BB2052213435BB253
:1027E000DBB21900312000F071FE0C21372000F01F
:1027F0006DFE13E0312000F07DFE03005BB2072286
:1028000093435BB2032213435BB2DBB21900312066
:1028100000F05CFE0A21372000F058FEC046054B50
:102820001900002003F084F9C046BD4607B090BDF2
:1028300084120020ACE30000F0B595B000AF0200B8
:10284000FB1D1A70BB1D0A1C1A700023FB64FB1DC4
:102850001B78002B03D0012B00D187E065E1B54B3D
:1028600040229B5A1C00272000F044FE03001A005F
:10287000F8239A4313000133E318180005F0A6FF6C
:10288000AC4B42229B5C002B02D00023002401E0D1
:102890000023A94C1A00230004F044FA03000C00A2
:1028A0001D002600302000F025FE03001A00F92349
:1028B0009A43131E02D000239F4C01E00023002402
:1028C0001A0023002800310004F02CFA03000C0049
:1028D00025001C00BB1D1B78180005F077FF0200C7
:1028E0000B002000290004F01DFA03000C00180062
:1028F0002100904B44229B5C002B03D000238024BA
:10290000E40501E0002300241A00230004F00AFA81
:1029100003000C00180021000022884B05F052F93A
:1029200003000C0025001C00824BDB6B180005F037
:102930008FFF02000B002000290004F01FFD0300A0
:102940000C001800210000227D4B05F03BF903002C
:102950000C001800210003F0C9FF03000C00180050
:10296000210004F001F90300FB64DEE000230024F1
:102970003B647C646F4B1B6E082B08D0092B0BD07B
:10298000072B0ED100236F4C3B647C6409E00023CD
:102990006D4C3B647C6404E000236C4C3B647C64C1
:1029A000C046644B5B6E01229A401300180005F08C
:1029B0000DFF03000C001A002300386C796C04F042
:1029C000DDFC03000C00BB63FC63BA6BFB6B0020F7
:1029D000594904F0D3FC03000C003B637C63554B66
:1029E0006A229B5A180005F0F1FE0022584B04F0B1
:1029F00099F903000C00180021003A6B7B6B05F07D
:102A0000E1F803000C00BB62FC62BB1D1B78DB001D
:102A10001A00484B5B6E9B00D31A464A6E21525CEB
:102A200012019A18434B6C215B5C002B01D01423DC
:102A300000E00023D31A1C33180005F009FF04003E
:102A40000D003C4B5B6E9A003A4B68215B5C002B9F
:102A500001DD022300E00023D31A180005F0F8FE80
:102A600002000B002000290004F088FC03000C0089
:102A70001800210003F00CFE04000D002D4B69220C
:102A80009B5C0433180005F0A1FE02000B0020003F
:102A9000290005F097F803000C003B627C620022DD
:102AA0000023386A796A04F02BF8031E08D000224C
:102AB000224B386A796A04F035F903000C0001E012
:102AC00000231E4CBB61FC613A6B7B6BB869F969F2
:102AD00005F078F803000C003B617C613A697B6982
:102AE000B86AF96A04F01EF903000C00BB60FC60D0
:102AF0000022134BB868F96805F064F803000C0075
:102B000018002100134A144B04F00CF903000C00C8
:102B10001800210003F052FE03000C0018002100F1
:102B200004F022F80300FB64C046FB6C1800BD46AD
:102B300015B0F0BD841200200000F03F00002040DE
:102B400080842E418084FE4080840E4180841E411A
:102B5000000011402B8716D9CEF7EF3F80B584B027
:102B600000AF78600A00FB1C1A700023FB605A4B10
:102B70001900002002F0DCFF584B25229B5C002B43
:102B800002D0012B48D09EE0544B5822002199528C
:102B9000FB1C1B7899B2514B562299524F4B422243
:102BA0009B5C01225340DBB2002B05D0FB1C0121B2
:102BB000180000F03DFD05E0FB1C1B7819003220D9
:102BC00000F084FCFB1C1B78002B09D0FB1C1B783D
:102BD000402B05D8FB1C1978404B5B22995403E02D
:102BE0003E4B5B22202199543C4B5B229A5C7B68D4
:102BF0001100180000F01CFD384B58229A5A374B30
:102C00005B215B5C9BB2D31899B2344B582299522A
:102C1000324B9B6CFB6056E0304B71229B5C002B6F
:102C200011D0332000F066FC03001A0041239A43C0
:102C30001300DBB21900332000F048FC19213B20BF
:102C400000F044FC13E0332000F054FC03005BB2BE
:102C5000412293435BB2012213435BB2DBB2190002
:102C6000332000F033FC1D213B2000F02FFCFB1C27
:102C700019781A4B7C229954FB1C1B7819002220CE
:102C800000F024FC00210E2000F020FC00210D208B
:102C900000F01CFC012000F02DFC03001A00F823BA
:102CA0009A43131E04D100F037F80120FEF722FAF0
:102CB000FB1C1A787B681100180000F0B9FC074B68
:102CC0005B6FFB60C046FB68180000F02DFAC04641
:102CD000BD4604B080BDC046C4E30000841200209D
:102CE00080B500AF094B1B68180002F0E9FA084BE9
:102CF0001B68180002F0E4FA002000F04DFB054BC1
:102D0000242200219954C046BD4680BDBC0A002043
:102D1000B80A00208412002080B500AF094B1B6860
:102D2000180002F0CDFA084B1B68180002F0C8FA30
:102D3000012000F031FB054B242200219954C046AC
:102D4000BD4680BDBC0A0020B80A002084120020C5
:102D5000F0B587B000AFF8600F2308229446BC445A
:102D6000634400221A70E14B1900002002F0E0FEDB
:102D7000DF4B25229B5C002B02D0012B42D06FE160
:102D80000F2308229446BC446344D94A4621525C2E
:102D90001A70402000F0AEFB03005BB20322134028
:102DA0005BB20C2213435BB2DBB21900402000F08F
:102DB0008DFB412000F09EFB03001A003F235B4285
:102DC0001343DBB21900412000F080FB352000F0F6
:102DD00091FB03001A003F231340D9B2C44B5A227F
:102DE0009954C34B4C2200219954C14B4D220021D0
:102DF0009954BF4B582200219952BD4B56220021B5
:102E000099522DE1BA4B71229B5C002B10D03320DC
:102E100000F070FB03001A0041231343DBB21900DA
:102E2000332000F053FB19213B2000F04FFB13E04F
:102E3000332000F05FFB03005BB2412293435BB29F
:102E4000012213435BB2DBB21900332000F03EFBDA
:102E50001D213B2000F03AFBA54B1B6E082B00D92F
:102E6000B9E0312000F046FB03001A007F23134035
:102E7000DBB21900312000F029FB0021302000F0E6
:102E800025FB9B4B1B6E082B00D9B1E09A00994B98
:102E9000D3181B689F4648212F2000F017FB944B46
:102EA0009B6A180005F0D4FC0022934B03F03AFF14
:102EB00002000B001000190003F056FE030018007A
:102EC000FEF786FE94E044212F2000F0FFFA884BA5
:102ED0009B6A180005F0BCFC0022884B03F022FF1F
:102EE00002000B001000190003F03EFE0300180062
:102EF000FEF76EFE7CE044212F2000F0E7FA7C4BC9
:102F00009B6A180005F0A4FC00227D4B03F00AFF29
:102F100002000B001000190003F026FE0300180049
:102F2000FEF756FE64E044212F2000F0CFFA704BEC
:102F30009B6A180005F08CFC0022724B03F0F2FE35
:102F400002000B001000190003F00EFE0300180031
:102F5000FEF73EFE4CE044212F2000F0B7FA644B10
:102F60009B6A180005F074FC0022674B03F0DAFE40
:102F700002000B001000190003F0F6FD030018001A
:102F8000FEF726FE34E044212F2000F09FFA584B34
:102F90009B6A180005F05CFC00225C4B03F0C2FE4B
:102FA00002000B001000190003F0DEFD0300180002
:102FB000FEF70EFE1CE040212F2000F087FA17E0FC
:102FC00040212F2000F082FA12E040212F2000F053
:102FD0007DFAC0460CE0312000F08CFA03001A00A4
:102FE00080235B421343DBB21900312000F06EFAFC
:102FF0000F2308229446BC4463443D4A7221525C2C
:103000001A703B4B6F229B5C002B10D01D211120AE
:1030100000F05CFA402000F06DFA03001A00332340
:103020001340DBB21900402000F050FA0FE01F21DE
:10303000112000F04BFA402000F05CFA03001A0067
:103040003F231340DBB21900402000F03FFA00217B
:103050000F2000F03BFA00210D2000F037FAC046A7
:1030600080235A002A4B0021180005F0C5FC204B94
:10307000242201219954FB68002B21D0254B1E6886
:10308000FB683B6000237B6039687A680B005B0C4F
:103090001000C5031D430B00DC03FA22520000237D
:1030A0002000290080185941FA229200002303F0E1
:1030B0003BFD03000C0000221900300002F0B8F8BC
:1030C0000B4B25229B5C002B03D1052000F064F9FB
:1030D00025E00F2308229446BC4463441B78002B50
:1030E0001AD0052000F058F919E0C046D8E30000D6
:1030F00084120020E8E300000082BE40005AC44071
:103100000082CE408057D4408084DE40C058E440E6
:10311000B8090020BC0A0020062000F03DF9C04696
:10312000BD4607B0F0BDC046F0B585B000AFF86051
:10313000484B25229B5C002B02D0012B28D056E067
:10314000402000F0D7F903005BB2032213405BB2CA
:10315000102213435BB2DBB21900402000F0B6F935
:10316000412000F0C7F903001A003E231340DBB2F0
:103170001900412000F0AAF9352000F0BBF9030046
:103180001A003F231340D9B2324B5A2299542EE0F1
:10319000304B6F229B5C002B14D0F521112000F0E6
:1031A00095F9402000F0A6F903005BB233221340EA
:1031B0005BB2402213435BB2DBB21900402000F047
:1031C00085F913E0F721112000F080F9402000F08C
:1031D00091F903005BB23F2213405BB240221343DC
:1031E0005BB2DBB21900402000F070F9C046194B09
:1031F000242202219954184B1B68180002F060F831
:10320000154B1E68FB683B6000237B6039687A6859
:103210000B005B0C1000C5031D430B00DC03FA22FE
:10322000520000232000290080185941FA22920000
:10323000002303F079FC03000C0000221900300089
:1032400001F0F6FF032000F0A7F8C046BD4605B028
:10325000F0BDC04684120020B80A002080B500AF3F
:10326000114B25229B5C002B1AD0012B00D018E0BB
:10327000FA21112000F02AF9402000F03BF9030068
:103280001A003F231340DBB21900402000F01EF962
:10329000054B242203219954072000F07DF800E01B
:1032A000C046C046BD4680BD8412002080B584B0B3
:1032B00000AF0200FB1D1A700E23FB1800221A80BB
:1032C000FB1D1B78002B02D0012B0DD027E0112015
:1032D00000F010F903005B08DBB29BB25B429AB2CC
:1032E0000E23FB181A8020E0144B9B6A144A934269
:1032F0000AD91B2000F0FEF803009BB29D3B9AB256
:103300000E23FB181A8010E01B2000F0F3F80300D6
:103310009BB2A43B9AB20E23FB181A8005E00E2341
:10332000FB18012252421A80C0460E23FB180022CD
:103330009B5E1800BD4604B080BDC04684120020CC
:1033400040DD4A1F80B500AF114B1900002002F08C
:10335000EFFB104B1B681800FEF720F90D4B1B68A4
:103360001800FEF751F90120FDF7C4FE094B1B6858
:1033700000211800FEF722F9064B1B681800FEF723
:1033800033F90620FDF7B6FEC046BD4680BDC046F7
:103390000CE400008412002080B582B000AF02006F
:1033A000FB1D1A701A4B1B78FA1D12789A422BD00B
:1033B000174BFA1D12781A70FB1D1B78002B03D1D6
:1033C0000120FEF763FB0DE00020FEF75FFBFB1D15
:1033D0001B78032B03D10120FEF722FB02E0002023
:1033E000FEF71EFB012000F085F803005BB2072208
:1033F00093435AB2FB1D1B785BB213435BB2DBB243
:103400001900012000F062F8C046BD4602B080BD40
:103410001400002080B582B000AF0200FB1D1A70BE
:10342000284BDB69002B00D1FEE7264B25229B5C55
:10343000FA1D12789A4240D0234B1900002002F066
:1034400077FB204BFA1D252112785A541D4B25225B
:103450009B5C012B17D00020FFF79EFF012000F09E
:1034600049F803001A007F231340DBB21900012042
:1034700000F02CF80021402000F028F830214120F5
:1034800000F024F81AE00020FFF786FF012000F08A
:1034900031F803001A0080235B421343DBB21900AA
:1034A000012000F013F80021402000F00FF8002167
:1034B000412000F00BF8C04600E0C046BD4602B017
:1034C00080BDC046841200201CE4000080B582B09C
:1034D00000AF0200FB1D1A70BB1D0A1C1A70B91D3B
:1034E000FB1D1B780122180000F01AF8C046BD46EB
:1034F00002B080BD80B584B000AF0200FB1D1A7021
:103500000F23F918FB1D1B780122180000F04CF85E
:103510000F23FB181B781800BD4604B080BDC046C1
:1035200080B584B000AF39601100FB1D021C1A7019
:10353000BB1D0A1C1A70FB1D1B78802252421343CC
:10354000DAB2174B1A700F23FB1800221A7012E020
:103550000F23FB181B7801330F22BA181278396831
:103560008A1811780E4AD1540F23FB181A780F23AA
:10357000FB1801321A700F23FA18BB1D12781B7842
:103580009A42E5D3BB1D1B789BB201339AB2054921
:10359000034B1800FEF7DCF9C046BD4604B080BD01
:1035A000AC090020B009002080B584B000AF3960BC
:1035B0001100FB1D021C1A70BB1D0A1C1A70FB1D9A
:1035C0001B787F221340DAB2174B1A70BB1D1B7891
:1035D0009BB201339AB21549134B1800FEF7B8F9A4
:1035E0000F23FB1800221A7012E00F23FB181B7820
:1035F0003A68D3180F22BA18127801320B498A5C44
:103600001A700F23FB181A780F23FB1801321A7057
:103610000F23FA18BB1D12781B789A42E5D3C046D7
:10362000BD4604B080BDC046AC090020B0090020F2
:1036300080B582B000AF78600A00FB1C1A70FB1CDA
:103640001A787B6819000020FFF76AFFC046BD4664
:1036500002B080BD80B582B000AF78600A00FB1C6C
:103660001A70FB1C1A787B6819000020FFF79CFF7A
:10367000C046BD4602B080BD80B582B000AF02003A
:10368000FB1D1A70BB1D0A1C1A70FB1D1B7818004D
:10369000FFF7C0FEFB1D1B78002B02D0012B0FD0C3
:1036A00016E00D4B42229B5C01225340DBB2002B03
:1036B0000DD0BB1D1B7819003220FFF707FF06E075
:1036C000BB1D1B7819002320FFF700FF00E0C04658
:1036D000C046BD4602B080BD8412002080B582B0D5
:1036E00000AF78602C4B1900002002F021FA2B4B20
:1036F00024229B5C012B02D0022B3CD043E0274BC1
:1037000025229B5C002B32D1244B4C220021995462
:10371000224B4D2200219954204B582200219952CE
:103720001E4B5622002199520B213E20FFF7CEFE60
:1037300010213F20FFF7CAFE184B46229B5C002B4E
:103740000CD00D20FFF7D6FE03001A0040231343D0
:10375000DBB219000D20FFF7B9FE08E00F4B242261
:10376000002199540E4B1B68180001F0A9FD0D4B68
:1037700002221A7007E0094B242200219954094BB8
:1037800005221A70C046084B1900002002F0D0F93B
:10379000C046BD4602B080BD2CE40000841200206B
:1037A000C00A00207C09002044E40000B0B58EB0BF
:1037B00000AF78600A00BB1C1A803323FB1800227C
:1037C0001A70CB4B1900002002F0B2F9C94B242229
:1037D0009B5C1A00C84B1900002002F085FEC54B07
:1037E00024229B5C012B03D0022B00D165E298E2DE
:1037F000C24B1900002002F09BF9BE4B25229B5CB6
:10380000002B03D0012B00D10AE155E2B94B442231
:103810009B5C002B58D03F20FFF76CFE03001A0082
:103820003323FB181A703323FB181B78DBB21A0002
:103830000223134048D10B213E20FFF747FE102101
:103840003F20FFF743FEAB4B46229B5C01225340D7
:10385000DBB2002B04D0A74B2422002199540BE0AB
:103860000D20FFF747FE03001A0040231343DBB28D
:1038700019000D20FFF72AFEA14B1B68180001F06C
:103880001FFDA04B1B68002B0DD09E4B1B681B69B6
:10389000002B08D09C4B1900002002F049F9994BED
:1038A0001B681B699847934B4C2200219954914BFC
:1038B0004D22002199548F4B5822002199528D4B53
:1038C000562200219952F7E18A4B56229B5A002B2F
:1038D00034D1884B58229B5A002B2FD1854B422242
:1038E0009B5C01225340DBB2002B05D0874B0121AA
:1038F0001800FFF7AFFE07E03220FFF7FBFD0300E3
:1039000099B27C4B562299527A4B58229B5A1A00F4
:103910007F4BD018774B56229B5ADAB2754B582101
:103920005B5ADBB2D31ADBB21900FFF793FE714B7F
:103930005622995A6F4B5822995218E06D4B5822D3
:103940009B5A1A00724BD0186A4B56229B5ADAB215
:10395000684B58215B5ADBB2D31ADBB21900FFF770
:1039600079FE644B5622995A624B58229952614B08
:1039700046229B5C01225340DBB2002B04D05D4BFE
:103980002422002199540BE00D20FFF7B3FD030022
:103990001A0040231343DBB219000D20FFF796FDF8
:1039A000574B1B68180001F08BFC564B1B68002B13
:1039B00025D0544B1B689B68002B20D0554B190019
:1039C000002002F0B5F84F4B1B689C68494B56220B
:1039D000995A484B4E229B561AB24D480023A04795
:1039E0004B4B1B781A004C491C23FB18180005F0A0
:1039F00069F81C23FB181900002002F099F83D4BD0
:103A00004C22002199543B4B4D2200219954394BB3
:103A1000582200219952374B5622002199524BE1EE
:103A20003723FB1800221A703C4B1900002002F0CB
:103A30007FF840211220FFF749FD1220FFF75AFDC1
:103A400003001A003323FB181A703323FB181B786A
:103A5000DBB21A002023134029D020211220FFF7C7
:103A600035FD244B72229B5C01225340DBB2002BBC
:103A700003D0204B242200219954214B1B681800AD
:103A800001F01EFC1F4B1B68002B00D111E11D4BE8
:103A90001B681B69002B00D10BE11B4B1900002098
:103AA00002F046F8174B1B681B69984701E1192083
:103AB000FFF720FD030059B20E4B782299540D4BAD
:103AC00078229B56002B2BDA0A4B78229B565B42BE
:103AD0009B105AB23723FB183F210A401A70372334
:103AE000FB181B785B42DAB23723FB181A7021E00F
:103AF00058E400008412002078E4000088E400000C
:103B0000BC0A0020B4090020A4E40000DA1200205E
:103B1000B8090020CCE40000F0E4000000E500005B
:103B2000844B78229B569B105AB23723FB183F21B7
:103B30000A401A701A20FFF7DDFC03001A00342334
:103B4000FB181A803723FB181B787F2B38D9794B49
:103B50009B6A794A934219D93423FB1800229B5E51
:103B60001B111BB29AB23423FB181B88D3189AB2CC
:103B70003723FB181B785BB29BB2D3189BB29D3BDB
:103B80009BB219B26B4B7A22995243E03423FB1853
:103B900000229B5E1B111BB29AB23423FB181B88B8
:103BA000D3189AB23723FB181B785BB29BB2D31899
:103BB0009BB2A43B9BB219B25E4B7A22995229E088
:103BC0005C4B9B6A5C4A934212D93423FB18002257
:103BD0009B5E1B111BB29AB23423FB181B88D318AF
:103BE0009BB29D3B9BB219B2524B7A22995211E083
:103BF0003423FB1800229B5E1B111BB29AB23423A4
:103C0000FB181B88D3189BB2A43B9BB219B2494B3B
:103C10007A2299521320FFF76DFC03001900454BDF
:103C20007C229954434B7C229A5C444B110018002F
:103C3000FFF710FD3F4B72229B5C01225340DBB229
:103C4000002B03D03B4B2422002199543C4B1B6892
:103C5000180001F035FB3B4B1B68002B2BD0394B78
:103C60001B689B68002B26D0374B1900002001F001
:103C70005FFF344B1B689C682E4B7C229B5C99B287
:103C80002C4B7A229D5E2B4B78229B562B482A0088
:103C9000A0472A4B1B781A002C490823FB18180050
:103CA00004F010FF0823FB181900002001F040FF6A
:103CB00001E0C04635E0C04633E0254B1B681800E4
:103CC00001F0FEFA234B1900002001F031FF194BDF
:103CD00025229B5C1A00204B1900002002F004FCF6
:103CE000144B25229B5C012B03D108211220FFF7E6
:103CF000EDFB104B242200219954124B1B68002B22
:103D00000DD0104B1B681B68002B08D0134B1900FB
:103D1000002001F00DFF0B4B1B681B689847C04645
:103D2000C0460F4B1900002001F002FFC046BD46FF
:103D30000EB0B0BD8412002040DD4A1FB80900203B
:103D4000BC0A0020B4090020CCE40000F0E400002C
:103D5000B80A002020E500003CE500004CE500002A
:103D600070E5000080B582B000AF78600A00BB1C2F
:103D70001A80664B24229B5C012B03D0022B00D1BE
:103D800076E0BFE0614B25229B5C002B02D0012B2B
:103D900060D06CE05D4B56229B5A002B1AD15B4BD6
:103DA00058229B5A002B15D1584B42229B5C012272
:103DB0005340DBB2002B05D0554B01211800FFF713
:103DC00049FC07E03220FFF795FB030099B24F4B07
:103DD000562299524D4B56229B5A19004B4B582252
:103DE0009B5ACB1A494A5A21525C934218DD474BE1
:103DF00058229B5A1A00474BD018444B5A229B5CBE
:103E00001900FFF727FC414B58229A5A3F4B5A2181
:103E10005B5C9BB2D31899B23C4B5822995226E076
:103E20003A4B58229B5A1A003A4BD018374B56221D
:103E30009B5ADAB2354B58215B5ADBB2D31ADBB24C
:103E40001900FFF707FC314B5622995A2F4B582285
:103E500099520CE0304B1B68180001F031FA2B4BE3
:103E60002422002199542D4B02221A70C04649E0A9
:103E7000264B25229B5C002B02D0012B40D040E03A
:103E8000224B56229B5A1900204B58229B5ACB1A80
:103E90001E4A5B21525C934218DD1C4B58229B5AF0
:103EA0001A001C4BD018194B5B229B5C1900FFF7C2
:103EB000BFFB164B58229A5A144B5B215B5C9BB29A
:103EC000D31899B2114B582299521AE00F4B58222D
:103ED0009B5A1A000F4BD0180C4B56229B5ADAB241
:103EE0000A4B58215B5ADBB2D31ADBB21900FFF739
:103EF0009FFB064B5622995A044B5822995200E0D8
:103F0000C046C046C046BD4602B080BD84120020F7
:103F1000DA120020B8090020BC0A00207C09002029
:103F200090B583B000AF78600A00BB1C1A80424B8A
:103F300024229B5C012B02D0022B63D078E03E4B05
:103F400025229B5C002B02D0012B4DD059E03A4B2F
:103F50004C229B5C012B51D1374B4D229B5C002B9B
:103F60004CD1364B1B68180001F0AAF9324B4D2298
:103F7000012199541120FFF7BDFA03005B08DBB261
:103F80005B42DBB259B22C4B4E2299541B20FFF7F7
:103F9000B1FA03001C021C20FFF7ACFA0300234314
:103FA000180004F013FC03000C001800210004F0BA
:103FB000D7FB0300180004F009FC0022204B03F09B
:103FC00001FE03000C001800210004F0C9FB0200F0
:103FD000194B1A650C20FFF78DFA03005B09D9B263
:103FE000154B5422995409E0134B6F229B5C002B14
:103FF00006D002211220FFF769FA01E0C04617E05F
:10400000C04615E00C4B25229B5C002B0CD0012BED
:1040100000D00CE0084B6F229B5C002B06D00221E5
:104020001220FFF753FA01E0C04600E0C046C04648
:10403000C046BD4603B090BD84120020C00A0020D7
:1040400080844E4080B582B000AF78600A00BB1C0F
:104050001A800F4B25229B5C002B14D0012B00D023
:1040600012E01220FFF746FA03001A000123134062
:1040700004D005211220FFF729FA05E004211220BF
:10408000FFF724FA00E0C046C046BD4602B080BD3E
:104090008412002080B582B000AF78600A00BB1C9B
:1040A0001A800C4B25229B5C002B02D0012B0AD0DE
:1040B0000CE0084B4C229B5C002B06D1054B4C229C
:1040C0000121995401E0C04600E0C046C046BD460B
:1040D00002B080BD8412002080B582B000AF78604D
:1040E0000A00BB1C1A80074B25229B5C002B02D0C8
:1040F000012B02D002E0C04600E0C046C046BD46EB
:1041000002B080BD8412002080B500AF01F020FB1A
:10411000C046BD4680BDC04680B582B000AF786065
:104120007B68032213405A425341DBB21800BD465C
:1041300002B080BD80B582B000AF0200FB1D1A70D6
:10414000064BFA1D127811001F220A4001219140EE
:104150000A001A60C046BD4602B080BD00E100E022
:1041600080B582B000AF0200FB1D1A70074AFB1D2C
:104170001B7819001F230B40012199400B001900E7
:104180008023D150C046BD4602B080BD00E100E0B2
:1041900080B582B000AF0200FB1D1A70084AFB1DFB
:1041A0001B7819001F230B40012199400B001900B7
:1041B00080235B00D150C046BD4602B080BDC046E2
:1041C00000E100E080B582B000AF0200FB1D1A7074
:1041D000084AFB1D1B7819001F230B400121994041
:1041E0000B001900C0235B00D150C046BD4602B091
:1041F00080BDC04600E100E0B0B582B000AF020073
:104200003960FB1D1A70FB1D1B787F2B32D92F4C98
:10421000FB1D1B781A000F231340083B99082B4AFB
:10422000FB1D1B7818000F230340083B9B08063337
:104230009B00D31804331B68FA1D12781000032268
:104240000240D200FF2090400200D2431A403B6857
:104250009B01FF201840FB1D1B781D0003232B40F2
:10426000DB00984003001A438B1D9B00E3180433C6
:104270001A6027E0164CFB1D1B785BB29B081449A3
:10428000FA1D127852B29208C03292005258F91DAB
:104290000978080003210140C900FF20884001007F
:1042A000C94311403A689201FF201040FA1D12786C
:1042B000150003222A40D200904002000A43C03376
:1042C0009B001A51C046BD4602B0B0BD00ED00E0F3
:1042D00000E100E080B582B000AF0200FB1D1A7063
:1042E000FB1D1B787F2B18D9174AFB1D1B78190063
:1042F0000F230B40083B9B0806339B00D318043365
:104300001A68FB1D1B78190003230B40DB00DA4001
:104310001300FF2213409B0912E00C4AFB1D1B787F
:104320005BB29B08C0339B009A58FB1D1B78190099
:1043300003230B40DB00DA401300FF2213409B09EC
:104340001800BD4602B080BD00ED00E000E100E0D5
:1043500080B582B000AF7860C046C046C046C04657
:10436000C046C046C046C046C046C046C046C0461D
:10437000C046C0467B68013B7B60002BECD1C04649
:10438000BD4602B080BDC04680B582B000AF0C4BC8
:104390005B68DB05DB0D7B607B68002B0AD07B68EC
:1043A000103B3B603B685BB21800FFF793FF0300D4
:1043B000DBB200E004231800BD4602B080BDC04659
:1043C00000ED00E080B582B000AF78600649A1231F
:1043D000DB007A68CA5003211120FFF70DFFC046A9
:1043E000BD4602B080BDC0460010014080B500AFA0
:1043F0000E49D1239B0080225202CA500B49C1238F
:104400009B0080225202CA501120FFF7DBFE1120D0
:10441000FFF790FE054B01221A602F20FFF798FF4F
:10442000034B01221A70C046BD4680BD00100140FA
:10443000D80D002080B500AF1120FFF791FE104984
:10444000D2239B0080225202CA500D49C2239B00F6
:1044500080225202CA500A4B01225A602F20FFF7D5
:1044600077FF074B01229A60064B00221A602F202B
:10447000FFF76EFF044B00221A70C046BD4680BD98
:1044800000100140C40D0020D80D002080B500AF01
:10449000024A034BD3581800BD4680BD00100140AE
:1044A0000405000080B582B000AF786039607A689A
:1044B0003B68D31A1B021B0A1800BD4602B080BD20
:1044C00080B582B000AF78600449A823DB007A6829
:1044D000CA50C046BD4602B080BDC0460010014073
:1044E00080B586B000AF78604C4B19687A681300CD
:1044F000DB009B189B00CB18BB60494B1B6801334A
:1045000003D1474B7A681A6084E0BB685968434B13
:104510001868434B1A681300DB009B189B00C318F4
:104520005B6899421ED83D4B19683D4B1A681300D1
:10453000DB009B189B00CA18384B1868384B196869
:104540000B00DB005B189B00C3185968BB685B68F5
:10455000CB1A5360324B1A68BB681A62304B7A68C8
:104560001A6057E0BB685B68FB602D4B1B687B6182
:104570002B4B1B683B6117E0284B19683A69130005
:10458000DB009B189B00CB185B68FA68D31AFB60B2
:104590003B697B61214B19683A691300DB009B186A
:1045A0009B00CB181B6A3B613B6901330BD01B4B53
:1045B00019683A691300DB009B189B00CB185A68F6
:1045C000FB689A42D8D33B69013313D0134B196867
:1045D0003A691300DB009B189B00CA180F4B186840
:1045E00039690B00DB005B189B00C3185968FB6836
:1045F000CB1A5360BB68FA685A60BB683A691A62A2
:10460000064B19687A691300DB009B189B00CB18D6
:104610007A681A62C046BD4606B080BDB40D00205F
:10462000C00D002080B586B000AF78603A4B1B68A3
:104630007B617B693B610FE03A697B689A420FD0EE
:104640003B697B61354B19683A691300DB009B18A5
:104650009B00CB181B6A3B613B690133ECD100E046
:10466000C0463B69013353D07A693B699A4211D104
:104670002A4B1968284B1A681300DB009B189B0013
:10468000CB181A6A244B1A60234B1B68013301D1E3
:10469000FFF7D0FE214B19683A691300DB009B1825
:1046A0009B00CB185B68FB601C4B19687A69130090
:1046B000DB009B189B00CA18184B186839690B005F
:1046C000DB005B189B00C3181B6A1362134B19684D
:1046D0007A691300DB009B189B00CB181B6A3B61B7
:1046E0003B69013315D00D4B19683A691300DB00A3
:1046F0009B189B00CA18094B186839690B00DB002E
:104700005B189B00C3185968FB68CB18536000E026
:10471000C046BD4606B080BDC00D0020B40D0020CF
:1047200080B500AF1120FFF733FDC046BD4680BD08
:1047300080B500AF1420FFF72BFDC046BD4680BDFD
:1047400080B584B000AF7860124B1B68002B17D087
:10475000104B1A687B6898697B68DB691900904781
:104760000300FB60FB68BB60BB68002B0ED00A4AED
:104770006423FF331900BB681800FBF751FD05E007
:104780007B689A697B68DB6918009047C046BD4624
:1047900004B080BDD40D002080E5000080B584B059
:1047A00000AF2C4B1B68013350D000237B60FFF718
:1047B0006DFE0200284B1B6819001000FFF772FE07
:1047C0000300BB60234B1B68FB601EE0234B196892
:1047D000FA681300DB009B189B00CB183B603B681A
:1047E0005A68BB689A4214D83B685B68BA68D31AA7
:1047F000BB603B685B687A68D3187B603B681B6A68
:10480000FB603B681800FFF79BFFFB680133DDD1BD
:1048100000E0C046124B1A78124B1B789A420CD11A
:10482000104B1B780133DAB20E4B1A700D4B1B780C
:10483000022B02D10B4B00221A700A4B1B781A0074
:10484000094B92007968D150FFF772FFC046BD4610
:1048500004B080BDC00D0020C40D0020B40D0020A8
:10486000D00D0020D10D0020C80D002080B582B0F1
:1048700000AF7860184B1A78184B1B789A4223D0F7
:10488000154B1B780133DAB2134B1A70124B1B789D
:10489000022B02D1104B00221A700F4B1B781A000A
:1048A0000F4B9200D2587B681A607B681A680D4BD8
:1048B0001B68D2180B4B1A600A4B1B681B021A0AA2
:1048C000084B1A60012303E07B6800221A60002372
:1048D0001800BD4602B080BDD00D0020D10D0020D3
:1048E000C80D0020C40D002080B586B000AF424B3B
:1048F0001B683B611723FB18404A12781A7066E068
:104900003F4B1A681723FB181B78DB00D318FB609A
:104910001623FB18FA6812781A7051E0FB68596880
:104920001623FB181A7813005B009B18DB00CB18CA
:10493000BB601623FB181A781623FB1801321A7075
:10494000FB689B781622BA1812789A4203D1162374
:10495000FB1800221A70BB681B78022B02D0032BB5
:1049600028D02CE0274B1968BB685A681300DB007D
:104970009B189B00CB187B607B681B7D002B1FD096
:10498000BB685B681800FFF74DFE7B6800221A7554
:1049900016E01C4B1968184B1A681300DB009B18B3
:1049A0009B00CB183B603B6800221A753B681A6A73
:1049B000114B1A60104B1B680133EAD100E0C0466E
:1049C000FB685B781622BA1812789A42A6D1172390
:1049D000FB181B781722BA18591E1170002B8FD1A3
:1049E000054B1A683B69D31A5A1E9341DBB2180073
:1049F000BD4606B080BDC046C00D0020B80D0020E9
:104A0000BC0D0020B40D002080B588B000AFF86068
:104A1000B9607A600023FB6142E0254B1968254BA1
:104A20001A681300DB009B189B00CB18BB61BB69A5
:104A30005A68FB689A4206D9BB695A68FB68D21A61
:104A4000BB695A6030E0BB695B68FA68D31AFB60E7
:104A5000BB695B68FA69D318FB61BB6900225A60C5
:104A6000BB6900221A75134B1B687B61BB691A6A0C
:104A7000104B1A60BB691B69002B11D0BA68FB6927
:104A8000D3181B021A0ABB699A60BB691A69BB6911
:104A9000DA607B681A68BB691A627B687A691A6097
:104AA000044B1B680133B8D1C046BD4608B080BD79
:104AB000B40D0020C00D002080B58AB000AF786032
:104AC000624B1B68BB612723FB18614A12781A707E
:104AD000A7E0604B1A682723FB181B78DB00D3186C
:104AE0007B6193E07B6801330ED07B683B625A4B5D
:104AF00019683A6A1300DB009B189B00CB18FB6116
:104B0000FB691B6A7B603EE07B695A687B691B78A6
:104B100019000B005B005B18DB00D3183B617B695D
:104B20001B780133DAB27B691A707B691A787B696A
:104B30009B789A4202D17B6900221A703B695B68BC
:104B40003B62454B19683A6A1300DB009B189B00D7
:104B5000CB18FB613B691B78012B57D1FB691B7D8F
:104B6000002B00D052E03B699A68FB699A603B6970
:104B7000DA68FB69DA603B691A69FB691A613B69AB
:104B80005A69FB69DA61FB699A68344B1B68D31A6E
:104B90001B021B0A324A93420ED8FB699A682F4BBC
:104BA0001B6819001000FFF77DFC0200FB69DB6841
:104BB000D218FB695A6018E0284B1A68FB699B6899
:104BC00019001000FFF76EFC0300FB60FB69DA6858
:104BD000FB689A4206D9FB69DA68FB68D21AFB695E
:104BE0005A6002E0FB6900225A60FB6900229A6069
:104BF000FB690022DA60FB6901221A75FB69012258
:104C000052421A623B6A1800FFF76AFC7B68013364
:104C100000D067E77B691A787B695B789A4200D09D
:104C200060E72723FB181B782722BA18591E11703A
:104C3000002B00D04DE7054B1A68BB69D31A5A1EEA
:104C40009341DBB21800BD460AB080BDC00D002004
:104C5000B80D0020BC0D0020B40D0020C40D0020B4
:104C6000FEFF7F0090B589B000AF78602A4B1B68CB
:104C700001334BD0294B1968274B1A681300DB000E
:104C80009B189B00CB185B68FB61FFF7FFFB0300E1
:104C9000BB61234B1B687B617A69BB6911001800FB
:104CA000FFF700FC030003333B611E4B1B7801221E
:104CB0005340DBB2002B01D0FFF798FBFA693B6948
:104CC000934200D213007A69D3187B617B691B027F
:104CD0001B0A7B617B691800FFF7F2FBFFF7D6FB2D
:104CE0000300FB60BA69FB6811001800FFF7DAFBEC
:104CF0000300DC1CBA697B6911001800FFF7D2FBC6
:104D000003009C4204D9FFF70BFD01E0FFF792FB83
:104D1000C046BD4609B090BDC00D0020B40D0020B6
:104D2000C40D0020D80D002090B587B000AF01233E
:104D30005B427B601C4B1B683B611C4B1B68FB6030
:104D40000B23FC183B001800FFF790FD03002370B5
:104D50001723FC18FFF7C8FD030023700B23FB1873
:104D60001B78002B09D03B683A1D39691800FFF702
:104D70004BFE1723FB1801221A707B681800FFF7FF
:104D80009BFE031E03D01723FB1801221A70172362
:104D9000FB181B78002B03D0FB681800FFF762FF9D
:104DA000C046BD4607B090BDC40D0020C00D002018
:104DB00080B582B000AF786039603B68DAB27B685A
:104DC0005A70C046BD4602B080BDC04680B584B0B2
:104DD00000AF786039607B685B780133FB607B688B
:104DE0009B781A1EFB689A4201D10023FB607B6806
:104DF0001B781A1EFB689A4201D100230EE03B6823
:104E0000FA681A607B685A687B685B7819000B0047
:104E10005B005B18DB00D318BB60BB681800BD46A5
:104E200004B080BD80B586B000AFF860B9607A602C
:104E30003B601B4B1A68FB68DB00D3181022BA18C2
:104E400011001800FFF7C2FF03007B617B69002B94
:104E500001D1042320E07B6901221A707B69BA68C2
:104E60005A60FFF713FB02007B699A607B697A68DE
:104E7000DA607B693A681A617B693A6A5A61084B61
:104E80001A68FB68DB00D3183A6911001800FFF7B5
:104E90008FFFFFF74DFC00231800BD4606B080BD14
:104EA000BC0D002080B584B000AF78603960144B31
:104EB0001A687B68DB00D3180822BA1811001800A2
:104EC000FFF784FF0300FB60FB68002B01D1042384
:104ED00012E0FB6802221A70FB683A685A60084BBD
:104EE0001A687B68DB00D318BA6811001800FFF756
:104EF0005FFFFFF71DFC00231800BD4604B080BD16
:104F0000BC0D002080B584B000AF7860144B1A68E7
:104F10007B68DB00D3180822BA1811001800FFF7CD
:104F200055FF0300FB60FB68002B01D1042313E055
:104F3000FB6803221A70FB68012252425A60084B38
:104F40001A687B68DB00D318BA6811001800FFF7F5
:104F50002FFFFFF7EDFB00231800BD4604B080BD16
:104F6000BC0D002080B500AF114AA0235B000021DA
:104F7000D1500F4AA2235B000021D1500C4AA42338
:104F80005B000021D1500A4AA6235B000021D150CA
:104F9000074A80235B000021D150054A82235B0031
:104FA0000021D150FFF7FAFBC046BD4680BDC04688
:104FB0000010014080B500AFFFF7B6FEC046BD4609
:104FC00080BDC04680B586B000AFF8600800110013
:104FD0007B600B23FB18021C1A700A23FB180A1CA7
:104FE0001A707B681800FFF797F803001A00012376
:104FF0005340DBB2002B01D007238BE07B68002BF2
:1050000001D1072386E0FFF715FA444B3A6A1A608C
:10501000434B0B22BA1812781A70424B7A681A6006
:1050200000237B6116E03F4B19687A691300DB00AF
:105030009B189B00CB1800221A703A4B19687A69AA
:105040001300DB009B189B00CB1800221A757B69AC
:1050500001337B610B23FB181A787B699A42E2DCEF
:105060000B23FB181A781300DB009B189B001A0017
:105070007B689B187B602C4B03221A702B4B7A6841
:105080001A607B6818337B6000237B6121E0274B2B
:105090001A687B69DB00D3183B613B6900221A70F8
:1050A0003B6900225A703B690A22BA1812789A703A
:1050B0003B697A685A600A23FB181A7813005B0070
:1050C0009B18DB001A007B689B187B607B690133AF
:1050D0007B617B69022BDADD154B012252421A609B
:1050E000144B00221A70144B00221A701420FFF780
:1050F00069F803211420FFF77FF81420FFF71AF84E
:10510000FB681800FFF75EF9FFF7C0F902000B4BD0
:105110001A6000231800BD4606B080BDD40D0020E3
:10512000B00D0020B40D0020B80D0020BC0D0020F3
:10513000C00D0020D00D0020D10D0020C40D002096
:1051400080B586B000AFF8607A600B23FB180A1CAC
:105150001A70284B1B68002B01D1082346E07B689E
:10516000002B01D1072341E0FB68002B01D107236D
:105170003CE000237B6132E01E4B19687A69130022
:10518000DB009B189B00CB181B78002B24D1194BFC
:1051900019687A691300DB009B189B00CB18012269
:1051A0001A70144B19687A691300DB009B189B0076
:1051B000CB180B22BA1812785A700E4B19687A69FC
:1051C0001300DB009B189B00CB187A689A617A6900
:1051D000FB681A60002309E07B6901337B61064BA1
:1051E0001B781A1E7B699A42C6DC04231800BD4650
:1051F00006B080BDB40D0020B00D002080B582B097
:1052000000AFFFF7C1F8031E012B02D0032B03D020
:1052100005E000237B6005E001237B6002E00223C0
:105220007B60C0467B681800BD4602B080BDC046AA
:1052300090B589B002AFF860B9607A601E4B1B6808
:10524000002B01D1082333E01C4B1B781A1EFB688E
:105250009A4202D9BB68042B01D8072328E0164BD9
:105260001968FA681300DB009B189B00CB181B78A9
:10527000012B01D008231BE00F4B1968FA681300BB
:10528000DB009B189B00CB185B78012B01D1BB681E
:1052900000E000237B61FFF7B1FF04007869BA6882
:1052A000F9687B68009303002000FFF7BBFD030053
:1052B0001800BD4607B090BDB40D0020B00D002011
:1052C00080B582B000AF7860134B1B68002B01D112
:1052D00008231DE0114B1B781A1E7B689A4201D8E7
:1052E000072315E00C4B19687A681300DB009B1844
:1052F0009B00CB181B78012B01D0082308E0FFF797
:105300007DFF02007B6819001000FFF7CBFD030052
:105310001800BD4602B080BDB40D0020B00D0020C5
:1053200080B500AF074B1B68002B01D1082306E0B6
:10533000FFF764FF03001800FFF7E4FD0300180007
:10534000BD4680BDB40D002080B582B000AF78604E
:10535000FFF79CF802007B681A6000231800BD4626
:1053600002B080BD80B584B000AFF860B9607A60EB
:10537000BA68FB6811001800FFF794F802007B6818
:105380001A6000231800BD4604B080BD80B582B00D
:1053900000AF0200FB1D1A70FB1D1B787F2B18D974
:1053A000174AFB1D1B7819000F230B40083B9B0875
:1053B00006339B00D31804331A68FB1D1B781900B1
:1053C00003230B40DB00DA401300FF2213409B094C
:1053D00012E00C4AFB1D1B785BB29B08C0339B009C
:1053E0009A58FB1D1B78190003230B40DB00DA40A1
:1053F0001300FF2213409B091800BD4602B080BD78
:1054000000ED00E000E100E080B582B000AF786020
:105410007B68032213405A425341DBB21800BD4659
:1054200002B080BD80B582B000AF0C4B5B68DB057D
:10543000DB0D7B607B68002B0AD07B68103B3B60F8
:105440003B685BB21800FFF7A1FF0300DBB200E08E
:1054500004231800BD4602B080BDC04600ED00E048
:1054600080B582B000AF0200FB1D1A70FB1D1B78D7
:105470009AB2074B1B889A4204D2FB1D1B7801335A
:10548000DBB200E000231800BD4602B080BDC0467C
:10549000E80D002080B584B000AF3A60BB1D021C4F
:1054A0001A803B1D0A1C1A803B1D1B8801339AB2CF
:1054B0000E23FB18D2001A803B681800FFF7A4FFE8
:1054C00003001A0001235340DBB2002B01D0072355
:1054D00018E00E4B3A681A600E23FB181B883A68D6
:1054E000D2180B4B1A600B4B00221A700A4B002289
:1054F0001A700A4BBA1D12881A80094B3A1D12887D
:105500001A8000231800BD4604B080BDDC0D0020C9
:10551000E00D0020E50D0020E40D0020E60D002048
:10552000E80D002080B58CB000AFF8607A600A23E7
:10553000FB180A1C1A80574B1B880A22BA181288BB
:105540009A4200D99FE02A23FB18012252421A8076
:105550001323FB1800221A70FFF764FF03007B621D
:105560007B6A012B16D01323FB181800FBF7B0FF42
:1055700003003B623B6A022B01D172B60AE03B6A30
:10558000FB61FB69002B05D0434AFB6959211800D8
:10559000FAF746FE414B1B78DBB21800FFF760FFBD
:1055A00003001A003E4B1B78DBB29A420FD03B4BF4
:1055B0001B78DAB22A23FB181A80384B1B78DBB22F
:1055C0001800FFF74DFF03001A00344B1A707B6A76
:1055D000012B16D062B61323FB181B781800FBF7BB
:1055E00091FF0300BB61BB69022B0AD0BB697B61E1
:1055F0007B69002B05D0284A7B6961211800FAF7E6
:105600000FFE2A23FB181B88264A934238D0264BCC
:105610001A682A23FB181B88DB00D3187A681A60E3
:10562000FB68002B20D00A23FB181B88002B1BD003
:105630001E4B1B682A22BA181288164909884A4349
:1056400098180A23FB181A88FB68190003F096F9CA
:10565000154B1A682A23FB181B88DB00D3180A2273
:10566000BA1812889A8008E00F4B1A682A23FB1890
:105670001B88DB00D31800229A800023FB6204E021
:105680000423FB6201E00923FB62FB6A1800BD46AC
:105690000CB080BDE60D0020ACE50000E50D00205B
:1056A000E40D0020FFFF0000DC0D0020E00D0020D5
:1056B00080B586B000AFF860B9607A6005237B6181
:1056C0001E4B1B78DAB21E4B1B78DBB29A4230D0ED
:1056D0001B4B1B78DAB21223FB181A80184B1B786D
:1056E000DBB21800FFF7BCFE03001A00144B1A705F
:1056F000144B1B681222BA181288134909884A43AE
:105700009A18FB681A60114B1A681223FB181B8841
:10571000DB00D3189A88BB681A800C4B1A681223D6
:10572000FB181B88DB00D3181A687B681A600023FB
:105730007B617B691800BD4606B080BDE50D002089
:10574000E40D0020E00D0020E60D0020DC0D00201F
:1057500080B584B000AF06E07B68F8680A22BA180A
:105760001288110098473A1D0A23F9180C23FB18D8
:105770001800FFF79DFF031EEED0C046BD4604B0E3
:1057800080BDC04680B584B000AF78600023FB6068
:105790007B68002B01D100230CE07B681B78002B79
:1057A00006D0FB680133FB607B6801337B60F4E764
:1057B000C046FB681800BD4604B080BD80B500AF90
:1057C000C046BD4680BDC04680B588B000AFF86019
:1057D000B9607A60FFF7F2FF4C49FA6813005B008A
:1057E0009B18DB00CB1858331B68BB614749FA682C
:1057F00013005B009B18DB00CB1854331B687B61E4
:105800000023FB61BA697B699A423FDD3F49FA6830
:1058100013005B009B18DB00CB1850331A68BB6980
:10582000D31A3B617B683A69934200DD13003B6108
:105830003649FA6813005B009B18DB00CB184C3329
:105840001A68BB69D1183A69BB68180003F096F86A
:105850003B69FA69D318FB613B69BA68D318BB602E
:105860003B697A68D31A7B60BA693B69D318BB611C
:105870002649FA6813005B009B18DB00CB185033F5
:105880001A68BB699A4201D10023BB617A69BB697E
:10589000D31A3B617B683A69934200DD13003B6198
:1058A0003B69002B1FDD1949FA6813005B009B1848
:1058B000DB00CB184C331A68BB69D1183A69BB6856
:1058C000180003F05BF83B69FA69D318FB613B6988
:1058D000BA68D318BB603B697A68D31A7B60BA692F
:1058E0003B69D318BB61FB69002B09D00749FA68F3
:1058F00013005B009B18DB00CB185833BA691A60A1
:10590000FB691800BD4608B080BDC04618000020E5
:1059100080B588B000AFF860B9607A60FFF74EFFDD
:105920008249FA6813005B009B18DB00CB182C330C
:105930001B6803221340022B39D07C49FA681300FC
:105940005B009B18DB00CB1828331B687B61774911
:10595000FA6813005B009B18DB00CB1824331B682C
:105960007A69D31A013BFB61FB69002B0BDA6F49A3
:10597000FA6813005B009B18DB00CB1820331B6810
:10598000FA69D318FB617A68FB699A420FDD6749AF
:10599000FA6813005B009B18DB00CB182C331B68E4
:1059A0000322134001D10023BCE0FB697B607B68CC
:1059B000002B01D10023B5E00023BB615B49FA68ED
:1059C00013005B009B18DB00CB1828331B687B613E
:1059D0005649FA6813005B009B18DB00CB18243390
:1059E0001B687A69D31A013BFB61FB69002B0BDA58
:1059F0004E49FA6813005B009B18DB00CB1820337C
:105A00001B68FA69D318FB614849FA6813005B0008
:105A10009B18DB00CB18203319684448FA68130040
:105A20005B009B18DB00C31824331B68CA1AFB6990
:105A30009A4213DC3D49FA6813005B009B18DB00B7
:105A4000CB18203319683948FA6813005B009B189B
:105A5000DB00C31824331B68CB1A00E0FB69FB6131
:105A60007B68FA69934200DD1300FB612F49FB68F4
:105A70005A1C13005B009B18DB00CB180433196819
:105A80002A48FA6813005B009B18DB00C318243314
:105A90001B68CB18FA69B968180002F06FFFFB6940
:105AA000BA69D318BB61FB69BA68D318BB60FB69DC
:105AB0007A68D31A7B601D49FA6813005B009B1853
:105AC000DB00CB1824331A68FB69D1181748FA6831
:105AD00013005B009B18DB00C318243319601349C3
