:100000000040002099D00000E1D00000E3D00000C3
:1000100000000000000000000000000000000000E0
:10002000000000000000000000000000E5D000001B
:100030000000000000000000E7D00000E9D0000050
:10004000EBD00000EBD00000EBD00000DD1600008C
:10005000EBD000000000000091290000EBD0000070
:10006000EBD00000EBD00000EBD00000EBD00000A4
:10007000EBD00000EBD00000EBD00000EBD0000094
:10008000EBD000003D620000EBD00000EBD00000A0
:100090008D620000EBD00000EBD00000EBD0000040
:1000A000EBD00000EBD000000000000000000000DA
:1000B0000000000000000000000000000000000040
:1000C00010B5064C2378002B07D1054B002B02D02E
:1000D000044800E000BF0123237010BDB80A0020CF
:1000E00000000000DC650100084B10B5002B03D0B8
:1000F0000749084800E000BF07480368002B00D10B
:1001000010BD064B002BFBD09847F9E7000000001C
:10011000BC0A0020DC650100B40A002000000000D9
:10012000164B002B00D1144B9D46402292029A1A86
:10013000924600218B460F461348144A121A0FF0BC
:100140003DFF0F4B002B00D098470E4B002B00D0EB
:1001500098470020002104000D000D48002802D01F
:100160000C4811F053FC0FF0C7FE2000290000F0EE
:10017000BDFD0FF0B1FEC0460000080000400020A9
:100180000000000000000000B80A002098220020B3
:100190000D1A0100C12A010080B584B000AF78605B
:1001A0000A00BB1C1A807B68FB600B23FB18BA1C7F
:1001B0001288083A51424A411A700B23FB181B78E7
:1001C00001225340DBB2002B06D0084A8D235B008E
:1001D0001900002000F0A4F8FB681A68FB685B684F
:1001E00018009047C046BD4604B080BDF0520100E3
:1001F00080B584B000AF786039600823FB187A6856
:100200001A600823FB183A685A60064A0823FB184C
:100210000821180006F0F2FA03001800BD4604B0E9
:1002200080BDC0469901000080B582B000AF786003
:1002300039600AE0A023DB057A68C132FF32920000
:100240000321D1507B6801337B607A683B689A4216
:10025000F0D9C046BD4602B080BDC04680B584B06E
:1002600000AF786001227B689A401300FB60A023F6
:10027000DB050D4A9A587B68DA40130001221340CF
:10028000BB60BB68002B06D1A023DA05A123DB00ED
:10029000F968D15004E0A023DB050449FA685A50FC
:1002A000C046BD4604B080BD040500000C0500003A
:1002B00080B500AFC046BD4680BDC04680B500AF2A
:1002C000084B1B68084A5343084A9A18054B1A60A2
:1002D000044B1B68064918000DF010F90B001800BC
:1002E000BD4680BD280000206D4EC641393000005B
:1002F000FFFFFF7F80B582B000AF78603960FFF705
:10030000DDFF3A687B68D31A013319000DF0E0F97C
:100310000B001A007B68D3181800BD4602B080BDE0
:1003200080B586B002AFF860B9607A601B20FFF735
:1003300095FFF868BA6805497B68009303000020C0
:1003400007F03EFAC046BD4604B080BD1C53010014
:1003500080B500AF0A4B1B78DBB2042B07D8084BE3
:100360001B78DBB20133DAB2054B1A7004E0FA23D2
:100370009B00180001F00AFFC046BD4680BDC04684
:10038000230B002080B500AF8023DA05A323DB0018
:100390000021D1508023DA0582235B000021D15057
:1003A0008023DB0501229A60C0468023DA05822380
:1003B0005B00D358002BF8D08023DA0582235B0042
:1003C0000021D150C046BD4680BDC04680B586B034
:1003D00000AFF860B960FB1D1A701723FB180022EC
:1003E0001A70F91D00230122802000F097FE031EE1
:1003F00016D01423F91801230222812000F08EFE6A
:10040000031E0DD01423FB181A78FB681A701423EE
:10041000FB185A78BB681A701723FB1801221A7050
:100420001723FB181B781800BD4606B080BDC046D8
:1004300090B58BB000AF0200FB1D1A7000237B62E9
:10044000E3220E23F9180F23FB181800FFF7BEFF55
:10045000031E37D00F23FB181B781B020E22BA187D
:1004600012789B1818000FF0C9FA8A4A8A4B0EF0CE
:10047000C1FC03000C00180021000022874B0EF085
:1004800095F803000C0018002100854A854B0EF0FA
:100490002BFF03000C00180021000FF07DFB031C54
:1004A0007B62786A0FF024FB03000C007E497F48D2
:1004B0001A0023000FF0E8FD7C4B1900002006F025
:1004C000A3FC04E07A4B1900002006F09DFCFB1D04
:1004D0001B78022B03D0E02B00D1A1E0D5E0222332
:1004E000FB1800221A802023FB1800221A801E23EA
:1004F000FB1800221A800023BB611623FB1801227F
:1005000052421A801523FB1800221A702223FB186E
:1005100000221A806749786A0DF060FA031C181CE3
:100520000DF066F903009AB21E23FB181A802023EF
:10053000FB1800221A801523FB1800221A700023D2
:100540003B611623FB1800221A805B4B1B781A00B4
:100550005A4B1A702223FB181B881B0A9BB2DAB273
:10056000564B5A702223FB181B88DAB2534B9A70F1
:100570001E23FB1800229B5E1B121BB2DAB24F4BEC
:10058000DA701E23FB181B88DAB24C4B1A71202339
:10059000FB1800229B5E1B121BB2DAB2474B5A714A
:1005A0002023FB181B88DAB2444B9A71434B152267
:1005B000BA181278DA713B691B14DAB23F4B1A721F
:1005C0003B691B12DAB23D4B5A723B69DAB23B4BC4
:1005D0009A72BB691B14DAB2384BDA72BB691B1210
:1005E000DAB2364B1A73BB69DAB2344B5A7316233C
:1005F000FB181B881B0A9BB2DAB2304B9A73162386
:10060000FB181B88DAB22D4BDA732D4B1A782B4B63
:100610001A742B4B1B780133DAB2294B1A7034E071
:10062000284B9B7B002B14D0264B00229A73264B21
:1006300003221A70214B05221A70224BDA7B1F4BC2
:100640005A70204B1A7C1D4B9A701E4B01225A7017
:100650001AE01C4B5B78012B06D0042B00D013E072
:10066000184B01225A700FE0174B02221A70154BDB
:100670009B891B0A9BB2DAB2104B1A70114B9B89F3
:10068000DAB20E4B5A70C046C046C046BD460BB0EB
:1006900090BDC046D7A3703D0AF765400000F0400A
:1006A000CDCCCCCCCC6C474050530100D82100209D
:1006B000645301000000C842200B0020D80A00202B
:1006C000210B0020F82100202500002080B582B0F9
:1006D00000AF264B1B783A1D110018000AF080FA73
:1006E000031E0CD0224B00221A70214B00229A606C
:1006F0001F4B00229A811E4B00229A732BE01D4B48
:100700001B78002B12D11A4B00221A701A4B1A7840
:10071000174B1A71164B194A9A60144B1B789AB2F0
:10072000134B9A81124B00229A7314E0104B012252
:100730001A70114B1A780E4B1A710D4B0F4A9A60B2
:100740000A4B1B789AB20A4B9A81094B0822DA733A
:10075000074B00229A730AF04FFF031E01D10023BA
:1007600000E001231800BD4602B080BD2500002036
:10077000AC210020180B002024000020D80A002003
:1007800090B587B000AF7860144B1B68180005F077
:1007900003FF0823FB1801221A701723FC180823F3
:1007A000FB1818000AF096FA030023701723FB18B1
:1007B0001B78002B0ED10823FB181B79002B06D0C9
:1007C000074B02221A70074B01221A7002E0044BF9
:1007D00001221A70C046BD4607B090BD802100209E
:1007E000220B00202600002080B590B002AFFFF75A
:1007F000C9FD644A644B0093130010220F210020AE
:1008000005F04CFD03007B637B6B3B633B6B002B74
:1008100005D05E4A5E493B6B1800FFF781FD5D4ADB
:100820005D4B0021180005F0F7FD0300FB62FB6A39
:10083000BB62BB6A002B06D0544A8B239900BB6A6B
:100840001800FFF76DFD554A554B0021180005F0C3
:10085000E3FD0300FB62FB6A7B627B6A002B05D031
:100860004A4A50497B6A1800FFF75AFD4B4A4E4BE3
:100870000021180005F0D0FD0300FB62FB6A3B621B
:100880003B6A002B05D0414A48493B6A1800FFF7F4
:1008900047FD474A474B0021180005F0BDFD030006
:1008A000FB62FB6AFB61FB69002B05D0374A4249BA
:1008B000FB691800FFF734FD404A414B0021180046
:1008C00005F0AAFD0300FB62FB6ABB61BB69002B5C
:1008D00005D02E4A3B49BB691800FFF721FD3A4A73
:1008E0003A4B0021180005F097FD0300FB62FB6AFC
:1008F0007B617B69002B05D0244A35497B69180050
:10090000FFF70EFD334A344B0021180005F084FD3B
:100910000300FB62FB6A3B613B69002B06D01B4A6C
:10092000942399003B691800FFF7FAFC2B4A2C4BE3
:100930000021180005F070FD0300FB62FB6AFB60FC
:10094000FB68002B05D0114A2649FB681800FFF709
:10095000E7FC254B1A001421142005F007FF0300C3
:10096000BB60BB687B607B68002B06D0074A962380
:1009700099007B681800FFF7D3FCC046BD460EB057
:1009800080BDC046240B0020F1010000805301000F
:10099000250200008107000080210020A5490000F9
:1009A000A82100203202000084210020370200002C
:1009B000858700008821002041020000D58A0000C0
:1009C000F421002046020000098B0000E4210020F1
:1009D0004B020000ED8B00008C210020998C000060
:1009E0000C220020550200005C12002080B582B06D
:1009F00000AF78607B685B78002B0DD17B681B783B
:100A0000012B04D0032B04D0002B04D004E0C046FB
:100A100002E0C04600E0C046034B01221A70C04607
:100A2000BD4602B080BDC0462600002080B58EB015
:100A300000AF78608E4B1900002006F0E5F97B6866
:100A40005B78002B00D00EE17B681B78012B08D06F
:100A500002DC002B07D00BE0022B06D0032B06D0C4
:100A600006E0C04604E0C04602E0C04600E0C046E2
:100A7000804B1B78002B05D07E4B9B8901339AB2AB
:100A80007C4B9A817B685B7B002B00D1E7E07B6825
:100A9000DB78012B00DADDE0022B02DDE02B11D048
:100AA000D8E07B681B7B012B00D0D5E07B689B687E
:100AB0001B781A00012313405A1E9341DAB26E4B81
:100AC0001A70C9E06B4B1B7801225340DBB2002B3C
:100AD0004BD07B681B7B042B00D0BFE07B689B68FE
:100AE0001B78012B00D0B9E07B689B6801331B7831
:100AF000012B00D0B2E07B689B6802331B78012B8E
:100B000000D0ABE07B689B6803331B78012B00D0DF
:100B1000A4E05A4B00221A70594BE0221A70594B2C
:100B200002221A70534B00229A81524B00229A7370
:100B3000504B0022DA734F4B00221A744D4B0122A6
:100B40001A704C4B01225A702823FB1802221A708B
:100B50002823FB1801221A712823FB1818000AF019
:100B60007FF900200AF040FE78E07B689B681A78E5
:100B7000404B5A703F4B5B78052B69D89A00424B2B
:100B8000D3181B689F463D4B00221A703C4B022233
:100B90001A703C4B10221A70364B00229A81354B4A
:100BA00000221A701C23FB1802221A701C23FB1847
:100BB00001221A711C23FB1818000AF051F90120B8
:100BC0000AF012FE45E02F4B02221A7041E02B4B37
:100BD00001221A70274B01225A703AE0274B00225B
:100BE0001A70244B01225A7033E07B681A7B254B24
:100BF0001A70264B04221A703723FB1801221A7030
:100C000014E03723FB181A787B6899683723FB18A0
:100C10001B78CB181B780133D9B21C4B995437235E
:100C2000FB181A783723FB1801321A70154B1B7802
:100C30003722BA1812789A42E3D30AE00C23FB1841
:100C400001221A700C23FB1818000AF035FC00E092
:100C5000C04603E0C04602E0C04600E0C0461B209C
:100C6000FFF7FCFA00E0C046BD460EB080BDC046AE
:100C70008C530100F8210020200B0020180B0020CD
:100C80002400002025000020A8530100D80A0020DD
:100C900080B582B000AF78607B685B78002B19D19B
:100CA0007B681B78002B12D0012B00D012E00D4B7B
:100CB0001B78002B0DD00B4B01229A737B681A7C9A
:100CC000084BDA737B685A7C064B1A7401E0C04605
:100CD00000E0C046044B01221A70C046BD4602B077
:100CE00080BDC046F821002026000020F0B597B056
:100CF00000AFFFF779FD1A211920FFF795FAC24BD3
:100D000000221A701A20FFF7A9FA1A20FFF7A6FA94
:100D100005F08AFEBC4B1B78042B00D96DE19A00CC
:100D2000BA4BD3181B689F46B94B1900002006F038
:100D30006BF8142308229446BC446344B54A1A60F5
:100D4000142308229446BC446344B34A5A601423D3
:100D500008229446BC446344B04A9A600023BB61B5
:100D600010230822BA18D218142308218C46BC4438
:100D700063441100180009F045FE0C23FB18022201
:100D80001A700C23FB1801221A710C23FB1818008F
:100D90000AF066F80C23FB1807221A700C23FB18C4
:100DA00001221A710C23FB1818000AF059F80120CF
:100DB0000AF01AFD202308229446BC446344984A52
:100DC00003CA03C3202308229446BC446344196821
:100DD0005A6803200AF05EF9282308229446BC448E
:100DE0006344904A03CA03C3282308229446BC44A0
:100DF000634419685A6804200AF04CF93023082229
:100E00009446BC446344884A03CA03C3302308227F
:100E10009446BC44634419685A6805200AF03AF9BC
:100E2000382308229446BC446344804A03CA03C35F
:100E3000382308229446BC44634419685A68062043
:100E40000AF028F9402308229446BC446344784AB7
:100E500003CA03C3402308229446BC446344196870
:100E60005A6807200AF016F9482308229446BC4421
:100E70006344704A03CA03C3482308229446BC440F
:100E8000634419685A6808200AF004F95E4B01228D
:100E90001A70B7E0684B1900002005F0B5FF674BEA
:100EA000674A1A600C23FB1803221A700C23FB18E4
:100EB00000225A600C23FB18180009F0D1FF0C2304
:100EC000FB1804221A705D4B1A680C23FB185A6039
:100ED0000C23FB18180009F0C3FF0C23FB18052294
:100EE0001A700C23FB18574A5A600C23FB18180081
:100EF00009F0B6FF0C23FB1806221A700C23FB180E
:100F0000514A5A600C23FB18180009F0A9FF0C2362
:100F1000FB1801221A700C23FB1801221A710C23F2
:100F2000FB18180009F09CFF374B02221A7069E089
:100F3000464B1900002005F067FF454B1B78002B3E
:100F40000AD0444B1B781800FFF772FAFFF7BEFB7C
:100F500003001A003E4B1A703F4B1B78002B03D046
:100F60003E4B3F4A1A600CE03E4A3F4B11001800CE
:100F7000FFF7C0F903003D4A944663441A00374B1B
:100F80001A60364BFA2252011A60344B1A68384BF9
:100F90001900002006F014FC1B4B03221A7031E0EC
:100FA000344B1900002005F02FFF174B04221A7054
:100FB000314B1E68294B1B683B6000237B603968FE
:100FC0007A680B005B0C1000C5031D430B00DC03AB
:100FD000FA225200002312196B4110001900FA2264
:100FE000920000230CF0B8FB02000B00130000225B
:100FF0001900300005F088FA04E0034B00221A7053
:1010000000E0C04681E6C046220B00208854010063
:10101000C0530100ED0900002D0A0000910C0000F2
:1010200058540100605401006854010070540100DC
:101030007854010080540100E0530100D40A0020DC
:1010400056F9540704000020140000200054010049
:101050002600002024000020F82100201C0B002086
:10106000E093040040420F00C0BDF0FF404B4C0035
:1010700020540100385401008021002080B582B046
:1010800000AF7860C046C046C046C046C046C046B5
:10109000C046C046C046C046C046C046C046C04620
:1010A0007B68013B7B60002BECD1C046BD4602B0A3
:1010B00080BDC04680B500AFA023DB05154A1649A8
:1010C0009950A023DA05E923DB001349D150A0236E
:1010D000DA05A123DB008021C902D150A023DA0563
:1010E000A323DB008021C902D150A023DA05A1236C
:1010F000DB0080210903D150A023DA05A323DB0004
:1011000080210903D15000F0B5F803001800BD4656
:1011100080BDC0464C0700000C06000090B585B0AD
:1011200000AF0400396010001900FB1D221C1A706A
:10113000BB1D021C1A707B1D0A1C1A700F23FB18A2
:1011400001221A7000F000F903001A000F23FB18A7
:101150001B781A400F23FB18511E8A411A70FB1D81
:101160001B78180000F046F903001A000F23FB1843
:101170001B781A400F23FB18511E8A411A70FB1D61
:101180001B780122134048D027E0BB1D1B78002BA1
:1011900010D13B680021180000F0BCF903001A00D0
:1011A0000F23FB181B781A400F23FB18511E8A418E
:1011B0001A700FE03B680121180000F0ABF9030042
:1011C0001A000F23FB181B781A400F23FB18511E1F
:1011D0008A411A703B6801333B60BB1D1B78BA1D06
:1011E000591E1170002B24D00F23FB181B78002BE5
:1011F000CBD11EE03B681B78180000F0FBF8030021
:101200001A000F23FB181B781A400F23FB18511EDE
:101210008A411A703B6801333B60BB1D1B78BA1DC5
:10122000591E1170002B04D00F23FB181B78002BC4
:10123000E0D17B1D1B78002B07D10F23FB181B78F7
:1012400001225340DBB2002B0CD000F0ADF80300BC
:101250001A000F23FB181B781A400F23FB18511E8E
:101260008A411A700F23FB181B781800BD4605B081
:1012700090BDC04680B582B000AFA023DA05A1239F
:10128000DB0080210903D150A023DA05A123DB0074
:101290008021C902D1500420FFF7F0FEA023DA0517
:1012A000A223DB00D358DB0C012213400CD0A02377
:1012B000DA05A223DB00D3589B0C0122134003D094
:1012C000FB1D01221A7037E0A023DA05A223DB0000
:1012D000D3589B0C012213402BD0FB1D00221A7007
:1012E00012233B601FE0A023DB0516498022D202B7
:1012F0005A500420FFF7C2FEA023DA05A123DB0029
:101300008021C902D1500420FFF7B8FEA023DA05DE
:10131000A223DB00D358DB0C0122134003D0FB1DBA
:1013200001221A7008E03B685A1E3A60002BDAD19D
:1013300002E0FB1D00221A70FB1D1B781800BD4641
:1013400002B080BD0C05000080B500AFA023DA0517
:10135000A123DB0080210903D1500420FFF78EFE7A
:1013600000F05AF903001A0001235340DBB2002BAE
:1013700001D0002312E0A023DB050A4980221203DA
:101380005A500420FFF77AFEA023DB05054980228E
:10139000D2025A500420FFF771FE01231800BD4607
:1013A00080BDC0460C05000080B500AFA023DB0562
:1013B0000F49802212035A500420FFF75FFE00F00D
:1013C0002BF903001A0001235340DBB2002B01D09C
:1013D00000230AE0A023DA05A123DB008021090312
:1013E000D1500420FFF74AFE01231800BD4680BDFE
:1013F0000C05000080B584B000AF78600F23FB18A7
:1014000001221A70A023DA05A323DB00802109033F
:10141000D1508023BB602BE0A023DB053B49802219
:10142000D2025A500420FFF729FE7B68BA681340A5
:1014300007D0A023DA05A123DB0080210903D150C6
:1014400005E0A023DB053149802212035A5000F049
:10145000E3F803001A0001235340DBB2002B04D051
:101460000F23FB1800221A7005E0BB685B08BB6005
:10147000BB68002BD0D1A023DB0524498022D202F7
:101480005A500420FFF7FAFDA023DB0520498022F3
:1014900012035A500420FFF7F1FD00F0BDF80300DD
:1014A0001A000F23FB181B781A400F23FB18511E3C
:1014B0008A411A70A023DA05A223DB00D358DB0C83
:1014C000012213405A425341DBB21A000F23FB188A
:1014D0001B781A400F23FB18511E8A411A70A02353
:1014E000DB050A498022D2025A500420FFF7C6FDCC
:1014F000A023DA05A323DB0080210903D1500F23A9
:10150000FB181B781800BD4604B080BD0C05000018
:101510001C05000080B586B000AF78600A00FB1C97
:101520001A7000237B611323FB1801221A70A02379
:10153000DB053749802212035A508023FB6026E0E6
:1015400000F06AF803001A0001235340DBB2002BBD
:1015500004D01323FB1800221A701BE0A023DA0525
:10156000A223DB00D358DB0C0122134003D07A699D
:10157000FB6813437B61A023DB0526498022D2024E
:101580005A500420FFF77AFDFB685B08FB60FB689C
:10159000002BD5D1A023DA05A323DB00802109038A
:1015A000D1507B69DAB27B681A70FB1C1B78002B68
:1015B00006D0A023DB051749802212035A5006E00B
:1015C000A023DA05A123DB0080210903D1500420E8
:1015D000FFF754FD00F020F803001A0001235340E8
:1015E000DBB2002B03D01323FB1800221A70A023B8
:1015F000DB0508498022D2025A500420FFF73EFD45
:101600001323FB181B781800BD4606B080BDC046EA
:101610001C0500000C05000080B500AFA023DA0512
:10162000A123DB008021C902D1500420FFF726FD51
:10163000C046A023DA05A223DB00D3589B0C01226D
:101640001340F6D001231800BD4680BD80B582B09E
:1016500000AF7860A023DB057A68C132FF329200C8
:101660000321D150C046BD4602B080BD80B582B0D6
:1016700000AF78600A00FB1C1A70A023DB05FA1C7F
:101680001278920011007A68C132FF329200D15074
:10169000C046BD4602B080BD80B582B000AF786064
:1016A000A023DA0501217B689940A123DB00D150FA
:1016B000C046BD4602B080BD80B582B000AF786044
:1016C000A023DB0501217A6891400A0002495A50A3
:1016D000C046BD4602B080BD0C05000080B582B09A
:1016E00000AF0F4A84235B00D358012B14D10C4A5E
:1016F000C1239B00D358042213400DD0084A8423F1
:101700005B000021D150002000F00CF803007B604A
:101710007B68180000F0BEF9C046BD4602B080BD2F
:101720000030004080B582B000AF0200FB1D1A708F
:10173000FB1D1B78002B08D1FB1D1A7813009B00A2
:101740009B18DB00034A9B1800E000231800BD46ED
:1017500002B080BDA814002080B586B000AFF8604C
:1017600008007A6019000B23FB18021C1A700A2368
:10177000FB180A1C1A701723FB187A68511E8A413D
:101780001A701723FB181B7801225340DBB2002B81
:1017900005D01F4B1A0071210020FEF7C1FD7B68A8
:1017A000FA681A607B680B22BA1812781A717B6883
:1017B00000229A607B6800229A817B680022DA818D
:1017C0007B6800221A617B6800229A827B68002273
:1017D000DA827B6800225A837B6800221A837B6846
:1017E00000221A777B6800221A627B68242200217B
:1017F00099547B682522002199540A23FB181B78F1
:10180000D9B27B6826229954C046BD4606B080BD39
:101810009C54010080B586B000AFF8607A603B60F0
:101820000A23FB180A1C1A801723FB187A68511E1A
:101830008A411A701723FB181B7801225340DBB230
:10184000002B05D0204B1A0092210020FEF768FDE6
:101850001623FB183A68511E8A411A701623FB188A
:101860001B7801225340DBB2002B05D0164B1A0027
:1018700093210020FEF754FD1523FB183A6A511EF0
:101880008A411A701523FB181B7801225340DBB2E2
:10189000002B05D00C4B1A0094210020FEF740FDD0
:1018A0007B68FA681A60FB68002B03D00A23FB18D8
:1018B0001A8800E000223B681A803B6A00221A80E6
:1018C000C046BD4606B080BD9C54010080B584B0C2
:1018D00000AF786039600F23FB187A68511E8A4187
:1018E0001A700F23FB181B7801225340DBB2002B28
:1018F00005D0124B1A00A1210020FEF711FD0E2386
:10190000FB183A68511E8A411A700E23FB181B7887
:1019100001225340DBB2002B05D0084B1A00A22154
:101920000020FEF7FDFC7B6800221A603B68002265
:101930001A80C046BD4604B080BDC0469C5401001C
:1019400080B584B000AF786008001100FB1C021C59
:101950001A703B000A1C1A800F23FB187A68511E6C
:101960008A411A700F23FB181B7801225340DBB207
:10197000002B05D0124B1A00AF210020FEF7D0FC3F
:101980007B681B6A002B17D00823FB1802221A70F1
:101990000823FB1800225A800823FB18FA1C12782F
:1019A0001A700823FB183A0012885A807B681A6A5A
:1019B0000823FB1818689047C046BD4604B080BD98
:1019C0009C54010080B584B000AF78600F23FB18F1
:1019D0007A68511E8A411A700F23FB181B78012266
:1019E0005340DBB2002B05D0284B1A00C021002049
:1019F000FEF796FC7B681A687B689B68002B0FD00B
:101A00007B68DB8999B27B689B899BB2994207D23C
:101A10007B689B687968C98989B25B181B7800E08C
:101A200000231B4953507B68DB899BB201339AB278
:101A30007B68DA817B68DB899AB27B681B8B9BB2FF
:101A40009A421FD27B681A687B689B68002B0FD074
:101A50007B68DB8999B27B689B899BB2994207D2EC
:101A60007B689B687968C98989B25B181B7800E03C
:101A70000023074953507B68DB899BB201339AB23C
:101A80007B68DA81C046BD4604B080BD9C5401002D
:101A90001C05000080B584B000AF78600F23FB18F0
:101AA0007A68511E8A411A700F23FB181B78012295
:101AB0005340DBB2002B05D0504B1A00D821002038
:101AC000FEF72EFC7B685B8B9BB201339AB27B687E
:101AD0005A837B6825229B5CDBB201225340DBB238
:101AE000002B0BD07B682522012199547B685B8BEE
:101AF0009AB27B6800211800FFF722FF7B681A6802
:101B0000A323DB00D2580E23FB181A707B681B69D5
:101B1000002B15D07B68DB8A9AB27B689B8A9BB2CC
:101B20009A420DD27B681A697B68DB8A9BB2591C8A
:101B300088B27968C882D3180E22BA1812781A703F
:101B40007B68DB899AB27B681B8B9BB29A421FD25F
:101B50007B681A687B689B68002B0FD07B68DB89E9
:101B600099B27B689B899BB2994207D27B689B683C
:101B70007968C98989B25B181B7800E00023204985
:101B800053507B68DB899BB201339AB27B68DA8160
:101B90007B685B8B9AB27B681B8B9BB29A4228D383
:101BA0007B681B7FDBB21800FFF776FD0C23FB1868
:101BB0007A68D2891A807B6808331A007B680C33F4
:101BC00019001000FFF782FE7B6810331A007B6853
:101BD000143319001000FFF779FE7B6824220221DC
:101BE00099540C23FB181A887B6801211800FFF711
:101BF000A7FEC046BD4604B080BDC0469C5401004F
:101C00001C05000080B588B000AF02003960FB1DE4
:101C10001A703B68002B01D10E23CEE0FB1D1B7810
:101C20001800FFF77FFD0300FB611B23FB18FA6917
:101C3000511E8A411A701B23FB181B780122534046
:101C4000DBB2002B06D05F4A89235B00190000201D
:101C5000FEF766FBFB1D1B78002B00D00AE03B68FB
:101C6000DB7E5A1E9341DBB2FA6957480321FFF726
:101C700073FDC0463B681B691800FFF70DFD3B680C
:101C80001B691800FFF7E2FC3B681B691800FFF7AF
:101C900003FD3B685B681800FFF7D8FC3B68DB6816
:101CA0001800FFF7D3FC3B689B6800211800FFF782
:101CB000DDFC3B681B69DAB2FB691A77FB691A68BD
:101CC0003B685968A123DB00D150FB691A683B6867
:101CD000DB683E495350FB691A683B689968A22348
:101CE000DB00D150FB691A683B681B6838495350C8
:101CF000FB691B683A68927E520011003A68527E76
:101D000092000A433968097E0A4332495A50FB69F6
:101D10001A6884235B000021D150FB691B795BB2F8
:101D2000180000F0D3FB03007B617B69002B07D018
:101D3000244A4223FF3319007B691800FEF7F0FAAA
:101D4000FB691B795AB23B685B69DBB21900100072
:101D500000F0CEFB03003B613B69002B06D0194A23
:101D6000A12359003B691800FEF7DAFAFB6900224B
:101D70001A62FB691A68C1239B000421D150FB69D8
:101D80001B795BB2180000F051FB0300FB60FB689D
:101D9000002B07D00B4A4A23FF331900FB681800B9
:101DA000FEF7BEFAFB691A68A023DB000121D150BF
:101DB000FB6924220221995400231800BD4608B073
:101DC00080BDC0469C540100003000400C0500005E
:101DD000240500005405000080B586B000AF020065
:101DE000FB1D1A70FB1D1B781800FFF79BFC0300FE
:101DF0007B611323FB187A69511E8A411A701323E1
:101E0000FB181B7801225340DBB2002B06D02C4A72
:101E10005E23FF3319000020FEF782FA7B691B79ED
:101E20005BB2180000F052FB0300FB60FB68002B64
:101E300006D0234AB0235900FB681800FEF770FA59
:101E40007B691B795BB2180000F002FB0300BB60EA
:101E5000BB68002B07D01A4A6223FF331900BB6806
:101E60001800FEF75DFA7B691A68A023DB000021E9
:101E7000D1507B691B7FDBB21800FFF71DFC7B692B
:101E8000FF221A777B691A68A123DB0001214942EE
:101E9000D1507B691B680B49012252425A507B6921
:101EA0001A68A223DB0001214942D1507A6900233C
:101EB00000210020FFF750FCC046BD4606B080BDA3
:101EC0009C5401000C05000080B584B000AF0200F6
:101ED000FB1D1A70FB1D1B781800FFF723FC030085
:101EE000FB600B23FB18FA68511E8A411A700B2302
:101EF000FB181B7801225340DBB2002B06D0074AA7
:101F00007C23FF3319000020FEF70AFAFB68242225
:101F10009B5CDBB21800BD4604B080BD9C54010040
:101F200080B584B000AF02003960FB1D1A70FB1D44
:101F30001B781800FFF7F6FB0300FB600B23FB1870
:101F4000FA68511E8A411A700B23FB181B78012274
:101F50005340DBB2002B06D0064A8A23FF33190018
:101F60000020FEF7DDF9FB683A681A62C046BD46FC
:101F700004B080BD9C540100B0B58EB002AFB96012
:101F800011007B600F23FB18021C1A700C23FB1836
:101F90000A1C1A800F23FB181B781800FFF7C2FBDE
:101FA0000300BB622723FB18BA6A511E8A411A70CC
:101FB0002723FB181B7801225340DBB2002B06D0ED
:101FC000634A9A23FF3319000020FEF7A9F9002382
:101FD000FB622423FB1800221A801323FB18002223
:101FE0001A70BB6A26229B5CDBB2002B11D0132334
:101FF000FB18180000F0B8FA03003B623B6A002BA4
:102000001AD0534AD22359003B6A1800FEF788F9C8
:1020100012E0BB6A1B795BB2180000F019FA0300EA
:10202000FB61FB69002B07D0494AAA23FF33190043
:10203000FB691800FEF774F9BB6A24229B5CDBB2D3
:10204000022B51D12423FA180C23FB1840217918B4
:102050000C881B8898B2A1B2884200D2231C13803E
:102060002423FB181B88002B3BD0BB6A24220121B0
:102070009954BB6A00225A83BB6A252200219954D5
:10208000BB6A2422BA1812881A83BB6A08331C0060
:10209000BB6A0C331D00BB6A0E330C22BA181188C0
:1020A000B86800932B002200FFF7B4FBBB6A103323
:1020B0001A00BB6A14331C00BB6A1633402179181E
:1020C0000988786800932300FFF7A4FBBB6A1B7F95
:1020D000DBB21800FFF7F0FABB6A1800FFF772FCDA
:1020E00004E00723FB6201E01123FB62BB6A2622A6
:1020F0009B5CDBB2002B12D01323FB181B7818005B
:1021000000F04CFA0300BB61BB69002B1AD0104AE7
:10211000EB235900BB691800FEF702F912E0BB6A15
:102120001B795BB2180000F081F903007B617B69C9
:10213000002B07D0064ADC23FF3319007B69180007
:10214000FEF7EEF8FB6A1800BD460CB0B0BDC04605
:102150009C54010080B582B000AF7860C046C04694
:10216000C046C046C046C046C046C046C046C0463F
:10217000C046C046C046C0467B68013B7B60002B22
:10218000ECD1C046BD4602B080BDC04680B582B02D
:1021900000AF786006E07B68013B7B60054B180070
:1021A000FFF7D8FF7B68002BF5D1C046BD4602B0D3
:1021B00080BDC046E703000080B582B000AF0200DA
:1021C000FB1D1A70064BFA1D127811001F220A40DF
:1021D000012191400A001A60C046BD4602B080BD90
:1021E00000E100E080B582B000AF0200FB1D1A7074
:1021F000074AFB1D1B7819001F230B400121994042
:102200000B0019008023D150C046BD4602B080BDEE
:1022100000E100E080B582B000AF0200FB1D1A7043
:102220000A4A80235B00D358FA1D127811001F223E
:102230000A40012191400A00134001D0012300E02F
:1022400000231800BD4602B080BDC04600E100E09A
:1022500080B582B000AF0200FB1D1A70084AFB1D5A
:102260001B7819001F230B40012199400B00190016
:1022700080235B00D150C046BD4602B080BDC04641
:1022800000E100E080B582B000AF0200FB1D1A70D3
:10229000084AFB1D1B7819001F230B4001219940A0
:1022A0000B001900C0235B00D150C046BD4602B0F0
:1022B00080BDC04600E100E0B0B582B000AF0200D2
:1022C0003960FB1D1A70FB1D1B787F2B32D92F4CF8
:1022D000FB1D1B781A000F231340083B99082B4A5B
:1022E000FB1D1B7818000F230340083B9B08063397
:1022F0009B00D31804331B68FA1D127810000322C8
:102300000240D200FF2090400200D2431A403B68B6
:102310009B01FF201840FB1D1B781D0003232B4051
:10232000DB00984003001A438B1D9B00E318043325
:102330001A6027E0164CFB1D1B785BB29B08144902
:10234000FA1D127852B29208C03292005258F91D0A
:102350000978080003210140C900FF2088400100DE
:10236000C94311403A689201FF201040FA1D1278CB
:10237000150003222A40D200904002000A43C033D5
:102380009B001A51C046BD4602B0B0BD00ED00E052
:1023900000E100E080B582B000AF0200FB1D1A70C2
:1023A000FB1D1B787F2B18D9174AFB1D1B781900C2
:1023B0000F230B40083B9B0806339B00D3180433C4
:1023C0001A68FB1D1B78190003230B40DB00DA4061
:1023D0001300FF2213409B0912E00C4AFB1D1B78DF
:1023E0005BB29B08C0339B009A58FB1D1B781900F9
:1023F00003230B40DB00DA401300FF2213409B094C
:102400001800BD4602B080BD00ED00E000E100E034
:1024100080B500AFBFF34F8F024B034ADA60BFF3C2
:102420004F8FFEE700ED00E00400FA0580B582B0B2
:1024300000AF0200FB1D1A70FB1D1B785BB2180079
:10244000FFF7BAFE00231800BD4602B080BDC046AB
:1024500080B582B000AF0200FB1D1A70FB1D1B7817
:102460005BB21800FFF7BEFE00231800BD4602B0A5
:1024700080BDC04680B582B000AF02003960FB1D50
:102480001A703B68002B0AD0FB1D1B785BB218004A
:10249000FFF7C0FE02003B681A60002300E00E2335
:1024A0001800BD4602B080BD80B582B000AF02000A
:1024B000FB1D1A70FB1D1B785BB21800FFF7C8FEEE
:1024C00000231800BD4602B080BDC04680B582B072
:1024D00000AF0200FB1D1A70FB1D1B785BB21800D9
:1024E000FFF7D0FE00231800BD4602B080BDC046F5
:1024F00080B582B000AF0200FB1D1A70BB1D0A1C24
:102500001A70BB1D1A78FB1D1B785BB211001800F6
:10251000FFF7D2FE00231800BD4602B080BDC046C2
:1025200080B582B000AF02003960FB1D1A703B68B5
:10253000002B0BD0FB1D1B785BB21800FFF72AFFA6
:102540000300DAB23B681A70002300E00E23180083
:10255000BD4602B080BDC04680B500AFFFF758FF52
:1025600000231800BD4680BD80B582B000AF786002
:1025700072B6094B1B785A1E9341DBB21A007B6876
:102580001A70054B1B780133DAB2034B1A70002323
:102590001800BD4602B080BDD014002080B582B0C6
:1025A00000AF0200FB1D1A70094B1B78013BDAB229
:1025B000074B1A70FB1D1B78002B03D1044B002224
:1025C0001A7062B600231800BD4602B080BDC04636
:1025D000D014002080B582B000AF0200FB1D1A703D
:1025E000064BFA1D127811001F220A40012191406A
:1025F0000A001A60C046BD4602B080BD00E100E09E
:1026000080B582B000AF0200FB1D1A700A4A802319
:102610005B00D358FA1D127811001F220A400121D5
:1026200091400A00134001D0012300E0002318006C
:10263000BD4602B080BDC04600E100E0B0B582B04A
:1026400000AF02003960FB1D1A70FB1D1B787F2B49
:1026500032D92F4CFB1D1B781A000F231340083B67
:1026600099082B4AFB1D1B7818000F230340083BD9
:102670009B0806339B00D31804331B68FA1D12789D
:10268000100003220240D200FF2090400200D243FB
:102690001A403B689B01FF201840FB1D1B781D0062
:1026A00003232B40DB00984003001A438B1D9B0043
:1026B000E31804331A6027E0164CFB1D1B785BB24D
:1026C0009B081449FA1D127852B29208C032920047
:1026D0005258F91D0978080003210140C900FF2064
:1026E00088400100C94311403A689201FF20104020
:1026F000FA1D1278150003222A40D20090400200F1
:102700000A43C0339B001A51C046BD4602B0B0BD5B
:1027100000ED00E000E100E080B582B000AF020013
:10272000FB1D1A70FB1D1B787F2B18D9174AFB1D48
:102730001B7819000F230B40083B9B0806339B00B6
:10274000D31804331A68FB1D1B78190003230B40B0
:10275000DB00DA401300FF2213409B0912E00C4A11
:10276000FB1D1B785BB29B08C0339B009A58FB1D76
:102770001B78190003230B40DB00DA401300FF2213
:1027800013409B091800BD4602B080BD00ED00E07B
:1027900000E100E080B582B000AF786039600AE007
:1027A000A023DB057A68C132FF3292000321D150A9
:1027B0007B6801337B607A683B689A42F0D9C046F7
:1027C000BD4602B080BDC04680B582B000AF786023
:1027D000A023DB057A68C132FF3292000321D15079
:1027E000C046BD4602B080BD80B582B000AF786003
:1027F0000A00FB1C1A70A023DB05FA1C1278920059
:1028000011007A68C132FF329200D150C046BD46F5
:1028100002B080BD80B582B000AF7860A023DA0539
:1028200001217B689940A123DB00D150C046BD4601
:1028300002B080BD80B582B000AF7860A023DB0518
:1028400001217A6891400A0002495A50C046BD46AB
:1028500002B080BD0C05000080B584B000AF786088
:1028600001227B689A401300FB60A023DB050D4A20
:102870009A587B68DA40130001221340BB60BB68A2
:10288000002B06D1A023DA05A123DB00F968D15083
:1028900004E0A023DB050449FA685A50C046BD464F
:1028A00004B080BD040500000C05000080B584B0B4
:1028B00000AFF860B960FB1D1A700D49BB681A02C1
:1028C000FB1D1B781B04134301221A43FB6845338D
:1028D000FF339B005A50C046C046C046044AFB68BE
:1028E00040339B0000219950C046BD4604B080BDD6
:1028F0000060004080B500AF1F4B1900002004F0BD
:1029000083FA1E4B1A681E4B1B6819001000FFF754
:1029100041FF1C4B5B6803211800FFF765FF194B53
:102920009B6803211800FFF75FFF164B5B680122CD
:1029300019000020FFF7BAFF124B9B680122190013
:102940000120FFF7B3FF104AC1239B000121D150A2
:102950000D4AC1239B000221D1500620FFF73AFE09
:102960000620FFF7D9FE0200084B1900002004F0F2
:1029700027FFC046BD4680BD005601003000002044
:102980003400002010220020006000401C5601008E
:1029900080B500AF254A80235B00D358012B1CD1A2
:1029A000224AC1239B00D3580122134015D01F4A4D
:1029B00080235B000021D1501D4B1900002004F042
:1029C00023FA1C4B1A000021002003F017FF1A4BBA
:1029D0001900002004F018FA21E0144A82235B0059
:1029E000D358012B1BD1114AC1239B00D35802227B
:1029F000134014D00D4A82235B000021D1500F4BAD
:102A00001900002004F000FA0D4B1A0000210020EC
:102A100003F0F4FE0B4B1900002004F0F5F9192027
:102A2000FFF71AFFC046BD4680BDC04600600040AB
:102A300044560100994A00005C560100705601009E
:102A4000D54F00008856010080B588B002AFF8600D
:102A5000B960BB1D1A80B868BB1D1A88F968BB1D18
:102A60001B88009303000020FFF786FA03007B61B8
:102A70007B693B613B69002B07D0074A6423FF3326
:102A800019003B691800FDF74BFC1920FFF7E4FE25
:102A9000C046BD4606B080BD9C56010080B584B0DE
:102AA00000AF78600A00BB1C1A800E23FB180022BE
:102AB0001A8012E00E23FB181B887A68D3181B7843
:102AC0001A000C4B1900002004F07AFE0E23FB18AC
:102AD0001A880E23FB1801321A800E23FA18BB1C29
:102AE00012881B889A42E5D301231800BD4604B022
:102AF00080BDC046C056010090B58BB000AF3B1DF5
:102B0000234A13CA13C313CA13C312681A60214B92
:102B10001900002004F078F93B1D09225A603B1D82
:102B200008229A603B1D0722DA603B1D06221A61CB
:102B30003B1D19000020FFF765F803007B627B6AEC
:102B40003B623B6A002B07D0134A9423FF331900E2
:102B50003B6A1800FDF7E4FB104B19000020FFF75B
:102B6000DFF90320FFF7D8FD02000D4B190000200C
:102B700004F026FE0420FFF7CFFD0200094B1900E8
:102B8000002004F01DFEC046BD460BB090BDC046FF
:102B90002C570100C85601009C560100A92B0000CB
:102BA000DC5601000457010080B582B000AF3B1D28
:102BB00018603B1D1B78012B00D003E0034B012262
:102BC0001A70C046C046BD4602B080BD2C00002031
:102BD00080B582B000AF0200FB1D1A701B4B202293
:102BE0009B5CFA1D12789A4205D1194B19000020FE
:102BF00004F00AF927E0154BFA1D202112785A54E7
:102C0000FB1D1B78002B0FD0124B1900002004F085
:102C1000FBF8114B1B681800FFF70CFE0F4B1B68ED
:102C20001800FFF7F7FD0EE00D4B1900002004F02F
:102C3000EBF8094B1B681800FFF7ECFD074B1B680E
:102C40001800FFF7F7FDBD4602B080BD102200203E
:102C50004857010070570100300000203400002068
:102C60009057010080B582B000AF0200FB1D1A70C2
:102C70000C4B1B78FA1D12789A420FD0094BFA1DA3
:102C800012781A70FB1D1B7801225340DBB2002B17
:102C900002D000F009F801E000F01AF8C046BD4685
:102CA00002B080BD9C16002080B500AF064B1B68AB
:102CB0001800FFF7AFFD054B1B681800FFF7BAFDC2
:102CC000C046BD4680BDC046300000203400002014
:102CD00080B500AFC046BD4680BDC04680B582B05D
:102CE00000AF786080231800BD4602B080BDC046AA
:102CF00080B582B000AF2C4B1900002004F084F89E
:102D0000FFF7FAFE294B1E221A60284B0C225A604C
:102D1000264B0B229A60254B0122DA61FFF7EAFD70
:102D200001F04EFC00F0F2F8002001F073FCFB1DF6
:102D300000221A7023E0FB1D1A781D4913005B0066
:102D40009B185B5C180001F0B1FCFB1D1A78184958
:102D500013005B009B18CB1801331878FB1D1A7801
:102D6000134913005B009B18CB1802331B78190022
:102D700001F006FDFB1D1A78FB1D01321A70FB1DC8
:102D80001B780E2BD7D9002001F090FC074B242292
:102D900000219954074B1900002004F035F8C04673
:102DA000BD4602B080BDC046B057010010220020D1
:102DB00020550100C057010080B500AF024B24220E
:102DC0009B5C1800BD4680BD1022002090B583B0EA
:102DD00000AF7860174B7A689A6278680CF050FE02
:102DE0000022154B0BF0E2FB03000C001800210041
:102DF0000AF016FD03007B607B681B0CDBB2190038
:102E0000062001F0BDFC7B681B0ADBB2190007201D
:102E100001F0B6FC7B68DBB21900082001F0B0FCC1
:102E2000064B1900002003F0EFFFC046BD4603B07B
:102E300090BDC0461022002080844E40D057010033
:102E400090B585B000AF39601100FB1D021C1A70EF
:102E50003B1D0A1C1A800E23FB1800221A803B68B7
:102E60001800FFF7B3FF052001F0D4FB0120FFF7A6
:102E70008DF90E23FC18FB1D1B78180001F054FB84
:102E80000300238001F02AF80E23FA183B1D0021CD
:102E9000525E00215B5E9A4201DD002300E00123C7
:102EA0001800BD4605B090BD80B582B000AF0023CC
:102EB0003B60FF21112001F063FC052001F0AAFB1B
:102EC000FB1D00221A7015E00120FFF75FF92C208E
:102ED00001F06AFC03001A0001231A40FB1D1B7855
:102EE0009A4013003A6813433B60FB1D1A78FB1DA0
:102EF00001321A70FB1D1B781F2BE5D900F0EEFF85
:102F00003B681800BD4602B080BDC04690B583B096
:102F100000AF374B1900002003F076FFFC1D09209D
:102F200001F042FC03002370062001F03DFC030089
:102F30001C04072001F038FC03001B021C4308207E
:102F400001F032FC0300234318000CF099FD00222D
:102F5000284B0BF04FFF03000C00180021000AF073
:102F60005FFC03003B600021092001F009FC3B20CD
:102F700001F01AFC03001A0040231343DBB21900CE
:102F80003B2001F0FDFBC0463B2001F00DFC03009F
:102F90001A0020231340F7D1174B1800FFF716FF34
:102FA0003B2001F001FC03001A0040231343DBB275
:102FB00019003B2001F0E4FBC0463B2001F0F4FB8C
:102FC00003001A0020231340F7D1FB1D1B781900C2
:102FD000092001F0D5FB3B681800FFF7F7FE074B0F
:102FE0001900002003F010FFC046BD4603B090BD9D
:102FF000E057010080844E4000A1BC33F857010027
:1030000080B584B000AF78600F23FB1800221A70DF
:1030100022E00F23FB181A78144BD200D2587B6899
:103020009A4212D80F23FB181B785A1C0F4BD20060
:10303000D2587B689A4208D90F23FB181B780B4A99
:10304000DB00D31804331B780CE00F23FB181A782D
:103050000F23FB1801321A700F23FB181B78142B57
:10306000D7D9FEE71800BD4604B080BD5055010019
:1030700090B585B000AFB9607A6019000F23FB18D6
:10308000021C1A700E23FB180A1C1A700F23FB185F
:103090001B78180001F00AFB0F23FB181A78E44B89
:1030A0001900002004F08CFB0F23FB181B78002B69
:1030B00003D0012B00D1A9E0F1E1DE4BBA685A63DD
:1030C000DC4B7A68DA63DB4B3A6A9A63D94B2C2281
:1030D000BA18422112785A54D64B3022BA184321DA
:1030E00012785A54D34B3422BA18442112785A54C5
:1030F000D04B202220218C46BC44624445211278CA
:103100005A54CC4B242220218C46BC446244462194
:1031100012785A54C74B2422BA18402112885A52A6
:1031200078680CF0ADFC03000C001A0023000020AE
:10313000C1490BF03BFA03000C00180021000AF013
:103140006FFB03009BB27B607B681B0ADBB219003C
:10315000022001F015FB7B68DBB21900032001F0AF
:103160000FFBBB681800FFF74BFF0300190012208C
:1031700001F006FB3B6A1800FFF742FF030019004D
:10318000132001F0FDFA2423FB181B881B0A9BB2B5
:10319000DBB21900252001F0F3FA2423FB181B8869
:1031A000DBB21900262001F0EBFA2C23FB181B7868
:1031B000002B07D03023FB181B781900322001F0B8
:1031C000DFFA03E0FF21322001F0DAFA302001F0CB
:1031D000EBFA03005BB26F2213405AB22C23FB18A8
:1031E0001B78002B01D0002301E080235B421343B6
:1031F0005AB23423FB181B781B015BB213435BB23A
:10320000DBB21900302001F0BBFA48E1BB68022BA9
:1032100000D9FEE7BB680733BB60864BBA681A6605
:10322000844B7A685A66834B0E22BA186921127849
:103230005A54804B2422BA186A2112885A527D4B64
:103240002C22BA186C2112785A547A4B3022BA18B0
:103250006D2112785A54774B3422BA186E211278A5
:103260005A54744B3822BA186F2112785A54714B41
:103270003C22BA18702112785A546E4B2022202119
:103280008C46BC446244712112785A54694B242202
:1032900020218C46BC446244722112785A547B68C7
:1032A0000C2B02D90C237B6004E07B68052B01D832
:1032B00006237B60BB68072B05D17B680B2B08D0EE
:1032C0007B680C2B05D0BB68082B07D17B680C2BC7
:1032D00004D1584B68220121995403E0554B6822D0
:1032E000002199541D2001F05FFABB68DBB21B017D
:1032F000DAB20E23FB181B78DB18DBB21343DAB209
:103300002C23FB181B781343DBB219001D2001F09E
:1033100037FA1E2001F048FA03001A000823134070
:10332000DAB27B68DBB21B01DBB21343DAB23423BF
:10333000FB181B789B00DBB21343DAB22823FB187F
:103340001B881B0A9BB2DBB203210B40DBB2134389
:10335000DBB219001E2001F013FA262001F024FA36
:1033600003005BB2082293435AB2324B68215B5C84
:10337000DB005BB213435BB2DBB21900262001F025
:10338000FFF92823FB181B88DBB219001F2001F06E
:10339000F7F92423FB181B881B0A9BB2DBB2190028
:1033A000202001F0EDF92423FB181B88DBB2190063
:1033B000212001F0E5F92C23FB181B78002B06D007
:1033C0003023FB181B781900222001F0D9F9194B82
:1033D0006F229B5C002B13D0442001F0E5F9030021
:1033E0001A0080235B421343DBB21900442001F032
:1033F000C7F9104B70229B5C1900242001F0C0F922
:10340000BB68092B08D10221362001F0B9F96421EB
:103410003A2001F0B5F915E0BB68092B0ED1022165
:10342000362001F0ADF97F213A2001F0A9F909E039
:10343000145801001022002080847E410321362090
:1034400001F09EF97B68062B14D1312001F0ACF914
:1034500003005BB2072293435BB2052213435BB2C6
:10346000DBB21900312001F08BF90C21372001F07B
:1034700087F913E0312001F097F903005BB20722CE
:1034800093435BB2032213435BB2DBB219003120DA
:1034900001F076F90A21372001F072F9C046044B99
:1034A0001900002003F0B0FCC046BD4605B090BD39
:1034B0003058010090B587B000AFBA607B600F2331
:1034C000FB18021C1A700E23FB180A1C1A70172313
:1034D000FB1800221A701623FB1800221A700F2303
:1034E000FB181B78180001F0E1F80F23FB181A787D
:1034F000E54B1900002004F063F91723FC1809209C
:1035000001F052F9030023701623FC184D2001F03E
:103510004BF9030023701723FB181B785BB27F2243
:1035200013405CB2D94B9B6A1800FFF7D7FB03002E
:103530005BB223435AB21723FB181A701723FB18E8
:103540001722BA18127870210A431A701723FB1831
:103550001B785BB2002B00DB76E00E23FB181B7898
:103560005BB2112B08DD1623FB181622BA1812784D
:1035700007210A431A700CE01623FB181B785BB274
:10358000072293435BB2042213435AB21623FB185B
:103590001A701623FB181B7807221340072B29D11A
:1035A0000E23FB181B785BB2042B03DC0E23FB18E5
:1035B00005221A700E23FB181B785BB2142B03DD57
:1035C0000E23FB1814221A701723FB181B785BB20A
:1035D0000F2293435AB20E23FB181B78053BDBB234
:1035E0005BB20F210B405BB213435AB21723FB1897
:1035F0001A7052E00E23FB181B785BB2012B03DC20
:103600000E23FB1802221A700E23FB181B785BB2E4
:10361000112B03DD0E23FB1811221A701723FB1840
:103620001B785BB20F2293435AB20E23FB181B7810
:10363000023BDBB25BB20F210B405BB213435AB2C9
:103640001723FB181A7028E00E23FB181B785BB2B7
:10365000013303DA0E23FB18FF221A700E23FB1826
:103660001B785BB20E2B03DD0E23FB180E221A70A3
:103670001723FB181B785BB20F2293435AB20E2319
:10368000FB181B780133DBB25BB20F210B405BB23E
:1036900013435AB21723FB181A701723FB181B7811
:1036A0001900092001F06CF81623FB181B7819008B
:1036B0004D2001F065F80F23FB181B78002B03D079
:1036C000012B00D19AE0A0E1704B0E22BA182C21F8
:1036D00012785A546D4BBA681A636C4B7A685A6305
:1036E0006A4BBA6ADA63694B3022BA1840211288F1
:1036F0005A52664B3422BA18422112785A54634BFC
:103700003822BA18442112785A54604B4422BA180D
:10371000452112785A545D4BBA6C9A64B8680CF023
:10372000AFF900225A4B0AF041FF03000C001800C9
:1037300021000AF075F803009BB2BB60BB681B0A4E
:10374000DBB21900042001F01BF8BB68DBB21900E2
:10375000052001F015F8B86A0CF092F903000C008E
:103760001A00230000204B490AF020FF03000C0040
:10377000180021000AF054F803009BB2BB62BB6A38
:103780001B0ADBB21900022000F0FAFFBB6ADBB2B1
:103790001900032000F0F4FF3023FB181B881B0ADC
:1037A0009BB2DBB21900252000F0EAFF3023FB18A2
:1037B0001B88DBB21900262000F0E2FF302000F069
:1037C000F3FF03005BB26F2213405AB23423FB189D
:1037D0001B78002B01D0002301E080235B421343C0
:1037E0005AB23823FB181B781B015BB213435BB240
:1037F000DBB21900302000F0C3FF06E1234B0E229C
:10380000BA185C2112785A547B68022B00D9FEE763
:103810007B6807337B601D4B7A681A661B4BBA6A5C
:103820005A661A4B2C22BA18692112785A54174B2F
:103830003022BA186A2112885A52144B3422BA180C
:103840006C2112785A54114B3C22BA186F2112780D
:103850005A540E4B4022BA18702112785A540B4B0E
:103860003822BA186E2112785A54084B4422BA18DA
:10387000712112785A54054BBA6C5A67BB6A0C2BEB
:103880000AD90C23BB620CE048580100102200202A
:1038900080844E4080847E41BB6A052B01D806237C
:1038A000BB627B68072B05D1BB6A0B2B08D0BB6AB8
:1038B0000C2B05D07B68082B07D1BB6A0C2B04D1DD
:1038C000564B68220121995403E0544B6822002191
:1038D0009954524B6F229B5C002B13D0442000F074
:1038E00063FF03001A0080235B421343DBB219001D
:1038F000442000F045FF494B70229B5C19002420B6
:1039000000F03EFF1D2000F04FFF7B68DBB21B0183
:10391000DAB22C23FB181B78DB18DBB21343DAB2C4
:103920003423FB181B781343DBB219001D2000F071
:1039300027FF1E2000F038FF03001A000B2313405E
:10394000DAB2BB6ADBB21B01DBB21343DAB2382353
:10395000FB181B789B00DBB21343DBB219001E205F
:1039600000F00EFF262000F01FFF03005BB20822CC
:1039700093435AB2294B68215B5CDB005BB2134373
:103980005BB2DBB21900262000F0FAFE3023FB18F0
:103990001B881B0A9BB2DBB21900202000F0F0FE4E
:1039A0003023FB181B88DBB21900212000F0E8FE51
:1039B000BB6A062B14D1312000F0F6FE03005BB287
:1039C000072293435BB2052213435BB2DBB21900BB
:1039D000312000F0D5FE0C21372000F0D1FE13E09D
:1039E000312000F0E1FE03005BB2072293435BB29B
:1039F000032213435BB2DBB21900312000F0C0FE9A
:103A00000A21372000F0BCFEC046054B19000020FB
:103A100003F0FAF9C046BD4607B090BD1022002061
:103A200064580100F0B595B000AF0200FB1D1A709C
:103A3000BB1D0A1C1A700023FB64FB1D1B78002BA6
:103A400003D0012B00D187E065E1B54B40229B5AA2
:103A50001C00272000F0A8FE03001A00F8239A4358
:103A600013000133E31818000BF0C8FFAC4B4222DF
:103A70009B5C002B02D00023002401E00023A94C12
:103A80001A0023000AF066FA03000C001D0026004D
:103A9000302000F089FE03001A00F9239A43131E18
:103AA00002D000239F4C01E0002300241A002300D1
:103AB000280031000AF04EFA03000C0025001C001B
:103AC000BB1D1B7818000BF099FF02000B002000B3
:103AD00029000AF03FFA03000C0018002100904B67
:103AE00044229B5C002B03D000238024E40501E0EA
:103AF000002300241A0023000AF02CFA03000C0013
:103B0000180021000022884B0BF074F903000C0010
:103B100025001C00824BDB6B18000BF0B1FF02008C
:103B20000B00200029000AF041FD03000C001800E2
:103B3000210000227D4B0BF05DF903000C00180002
:103B4000210009F001FC03000C001800210009F01D
:103B500067FE0300FB64DEE0002300243B647C641A
:103B60006F4B1B6E082B08D0092B0BD0072B0ED1E7
:103B700000236F4C3B647C6409E000236D4C3B6484
:103B80007C6404E000236C4C3B647C64C046644B62
:103B90005B6E01229A40130018000BF02FFF030008
:103BA0000C001A002300386C796C0AF0FFFC03004B
:103BB0000C00BB63FC63BA6BFB6B002059490AF035
:103BC000F5FC03000C003B637C63554B6A229B5A57
:103BD00018000BF013FF0022584B0AF0BBF903004A
:103BE0000C00180021003A6B7B6B0BF003F903000B
:103BF0000C00BB62FC62BB1D1B78DB001A00484B4B
:103C00005B6E9B00D31A464A6E21525C12019A18D1
:103C1000434B6C215B5C002B01D0142300E000239C
:103C2000D31A1C3318000BF02BFF04000D003C4B83
:103C30005B6E9A003A4B68215B5C002B01DD02232E
:103C400000E00023D31A18000BF01AFF02000B004B
:103C5000200029000AF0AAFC03000C001800210033
:103C600009F044FA04000D002D4B69229B5C0433DB
:103C700018000BF0C3FE02000B00200029000BF01F
:103C8000B9F803000C003B627C6200220023386A12
:103C9000796A09F04DFD031E08D00022224B386AD4
:103CA000796A0AF057F903000C0001E000231E4C6A
:103CB000BB61FC613A6B7B6BB869F9690BF09AF8F0
:103CC00003000C003B617C613A697B69B86AF96A60
:103CD0000AF040F903000C00BB60FC600022134BAB
:103CE000B868F9680BF086F803000C001800210092
:103CF000134A144B0AF02EF903000C00180021009F
:103D000009F08AFA03000C001800210009F088FD70
:103D10000300FB64C046FB6C1800BD4615B0F0BD47
:103D2000102200200000F03F0000204080842E413F
:103D30008084FE4080840E4180841E41000011403A
:103D40002B8716D9CEF7EF3F80B584B000AF7860EF
:103D50000A00FB1C1A700023FB605D4B1900002059
:103D600003F052F85B4B25229B5C002B02D0012B09
:103D700048D0A4E0574B582200219952FB1C1B78D5
:103D800099B2544B56229952524B42229B5C0122CB
:103D90005340DBB2002B05D0FB1C0121180000F0C2
:103DA000AFFD05E0FB1C1B781900322000F0E8FC99
:103DB000FB1C1B78002B09D0FB1C1B78402B05D863
:103DC000FB1C1978434B5B22995403E0414B5B2267
:103DD000202199543F4B5B229A5C7B6811001800AC
:103DE00000F08EFD3B4B58229A5A3A4B5B215B5CAC
:103DF0009BB2D31899B2374B58229952354B9B6CD2
:103E0000FB605CE0334B71229B5C002B11D03320B4
:103E100000F0CAFC03001A0041239A431300DBB2EE
:103E20001900332000F0ACFC19213B2000F0A8FC65
:103E300013E0332000F0B8FC03005BB2412293434F
:103E40005BB2012213435BB2DBB21900332000F0F6
:103E500097FC1D213B2000F093FCFB1C19781D4BA7
:103E60007C229954FB1C1B781900222000F088FC4E
:103E700000210E2000F084FC00210D2000F080FCC9
:103E8000012000F091FC03001A00F8239A43131E4E
:103E900004D100F047F80120FEF778F9FB1C1A78EE
:103EA0007B681100180000F02BFD0A4B5B6FFB6074
:103EB000FA68094B1900002003F082FCC046FB6839
:103EC000180000F067FAC046BD4604B080BDC04689
:103ED0007C580100102200209058010080B500AFEE
:103EE0000C4B1900002002F08FFF0B4B1B681800D1
:103EF00002F052FB094B1B68180002F04DFB00203A
:103F000000F088FB064B242200219954C046BD4690
:103F100080BDC046B858010084210020A82100209F
:103F20001022002080B500AF094B1B68180002F07A
:103F300033FB084B1B68180002F02EFB012000F039
:103F400069FB054B242200219954C046BD4680BD23
:103F500084210020A821002010220020F0B587B085
:103F600000AFF8600F2308229446BC44634400224B
:103F70001A70E94B1900002002F046FFE74B25229A
:103F80009B5C002B02D0012B42D06FE10F23082253
:103F90009446BC446344E14A4621525C1A70402076
:103FA00000F002FC03005BB2032213405BB20C2260
:103FB00013435BB2DBB21900402000F0E1FB41206B
:103FC00000F0F2FB03001A003F235B421343DBB215
:103FD0001900412000F0D4FB352000F0E5FB030080
:103FE0001A003F231340D9B2CC4B5A229954CB4BE1
:103FF0004C2200219954C94B4D2200219954C74BA2
:10400000582200219952C54B5622002199522DE188
:10401000C24B71229B5C002B10D0332000F0C4FBFC
:1040200003001A0041231343DBB21900332000F0D0
:10403000A7FB19213B2000F0A3FB13E0332000F085
:10404000B3FB03005BB2412293435BB201221343F3
:104050005BB2DBB21900332000F092FB1D213B2044
:1040600000F08EFBAD4B1B6E082B00D9B9E0312060
:1040700000F09AFB03001A007F231340DBB2190003
:10408000312000F07DFB0021302000F079FBA34BB4
:104090001B6E082B00D9B1E09A00A14BD3181B6806
:1040A0009F4648212F2000F06BFB9C4B9B6A180019
:1040B0000BF0E6FC00229B4B09F04CFF02000B00CA
:1040C0001000190009F0ACFB03001800FEF77EFE9B
:1040D00094E044212F2000F053FB904B9B6A180082
:1040E0000BF0CEFC0022904B09F034FF02000B00D5
:1040F0001000190009F094FB03001800FEF766FE9B
:104100007CE044212F2000F03BFB844B9B6A18008D
:104110000BF0B6FC0022854B09F01CFF02000B00DF
:104120001000190009F07CFB03001800FEF74EFE9A
:1041300064E044212F2000F023FB784B9B6A180099
:104140000BF09EFC00227A4B09F004FF02000B00EA
:104150001000190009F064FB03001800FEF736FE9A
:104160004CE044212F2000F00BFB6C4B9B6A1800A5
:104170000BF086FC00226F4B09F0ECFE02000B00F6
:104180001000190009F04CFB03001800FEF71EFE9A
:1041900034E044212F2000F0F3FA604B9B6A1800B2
:1041A0000BF06EFC0022644B09F0D4FE02000B0001
:1041B0001000190009F034FB03001800FEF706FE9A
:1041C0001CE040212F2000F0DBFA17E040212F20D7
:1041D00000F0D6FA12E040212F2000F0D1FAC046BC
:1041E0000CE0312000F0E0FA03001A0080235B426B
:1041F0001343DBB21900312000F0C2FA0F2308226A
:104200009446BC446344454A7221525C1A70434B45
:104210006F229B5C002B10D01D21112000F0B0FA02
:10422000402000F0C1FA03001A0033231340DBB230
:104230001900402000F0A4FA0FE01F21112000F027
:104240009FFA402000F0B0FA03001A003F23134009
:10425000DBB21900402000F093FA00210F2000F09B
:104260008FFA00210D2000F08BFAC04680235A00FF
:10427000324B002118000BF0A1FE284B2422012113
:1042800099542F4B1900002002F0BEFD234B24222D
:104290009B5C1A002B4B1900002003F091FAFB687D
:1042A000002B27D0FA68284B1900002003F088FA69
:1042B000264B1E68FB683B6000237B6039687A6888
:1042C0000B005B0C1000C5031D430B00DC03FA223E
:1042D000520000232000290080185941FA22920040
:1042E000002309F039FA03000C0000221900300005
:1042F00002F00AF9094B25229B5C1A00144B1900A5
:10430000002003F05DFA054B25229B5C002B21D198
:10431000052000F07FF937E0CC5801001022002082
:10432000605901000082BE40005AC4400082CE4065
:104330008057D4408084DE40C058E4409C15002063
:10434000DC580100EC5801000C59010084210020C8
:104350002C5901000F2308229446BC4463441A7868
:104360000B4B1900002003F02BFA0F230822944670
:10437000BC4463441B78002B03D0052000F04AF9AD
:1043800002E0062000F046F9C046BD4607B0F0BD89
:104390004C590100F0B585B000AFF8604B4B2522B9
:1043A0009B5C002B02D0012B28D056E0402000F06F
:1043B000FBF903005BB2032213405BB210221343EC
:1043C0005BB2DBB21900402000F0DAF9412000F0C6
:1043D000EBF903001A003E231340DBB21900412021
:1043E00000F0CEF9352000F0DFF903001A003F237A
:1043F0001340D9B2354B5A2299542EE0334B6F22D9
:104400009B5C002B14D0F521112000F0B9F940205D
:1044100000F0CAF903005BB2332213405BB24022C2
:1044200013435BB2DBB21900402000F0A9F913E09E
:10443000F721112000F0A4F9402000F0B5F90300A5
:104440005BB23F2213405BB2402213435BB2DBB24C
:104450001900402000F094F9C0461C4B2422022190
:1044600099541B4B1B68180002F096F8FA68194B18
:104470001900002003F0A4F9154B1E68FB683B608F
:1044800000237B6039687A680B005B0C1000C50361
:104490001D430B00DC03FA225200002320002900F8
:1044A00080185941FA229200002309F055F90300BF
:1044B0000C0000221900300002F026F8032000F062
:1044C000A9F8C046BD4605B0F0BDC0461022002088
:1044D000A82100208459010080B500AF114B25228E
:1044E0009B5C002B1AD0012B00D018E0FA21112080
:1044F00000F046F9402000F057F903001A003F236E
:104500001340DBB21900402000F03AF9054B242299
:1045100003219954072000F07DF800E0C046C04612
:10452000BD4680BD1022002080B584B000AF0200DF
:10453000FB1D1A700E23FB1800221A80FB1D1B782E
:10454000002B02D0012B0DD027E0112000F02CF918
:1045500003005B08DBB29BB25B429AB20E23FB18EE
:104560001A8020E0144B9B6A144A93420AD91B20FC
:1045700000F01AF903009BB29D3B9AB20E23FB1880
:104580001A8010E01B2000F00FF903009BB2A43B3F
:104590009AB20E23FB181A8005E00E23FB180122A5
:1045A00052421A80C0460E23FB1800229B5E180060
:1045B000BD4604B080BDC0461022002040DD4A1F29
:1045C00080B500AF114B1900002002F01DFC104B0C
:1045D0001B681800FEF7F8F80D4B1B681800FEF773
:1045E00029F90120FDF7D2FD094B1B6800211800B5
:1045F000FEF7FAF8064B1B681800FEF70BF90620C9
:10460000FDF7C4FDC046BD4680BDC0469C590100B3
:104610001022002080B582B000AF0200FB1D1A708E
:104620001F4B1B78FA1D12789A4235D01C4BFA1D8D
:1046300012781A70FB1D1B78002B03D10120FEF7A6
:1046400011FB17E00020FEF70DFBFB1D1B78032B71
:1046500008D1144B1900002002F0D6FB0120FEF710
:10466000B7FA07E0104B1900002002F0CDFB002044
:10467000FEF7AEFA012000F097F803005BB20722C4
:1046800093435AB2FB1D1B785BB213435BB2DBB2A0
:104690001900012000F074F8C046BD4602B080BD8C
:1046A00038000020AC590100C459010080B582B027
:1046B00000AF0200FB1D1A702D4BDB69002B00D1EF
:1046C000FEE72B4B25229B5CFA1D12789A424AD0BA
:1046D000284B1900002002F097FB254BFA1D2521DD
:1046E00012785A54224B25229B5C012B1CD0224B62
:1046F0001900002002F088FB0020FFF78BFF01204B
:1047000000F052F803001A007F231340DBB21900B7
:10471000012000F035F80021402000F031F8302170
:10472000412000F02DF81FE0144B1900002002F08A
:104730006BFB0020FFF76EFF012000F035F803004F
:104740001A0080235B421343DBB21900012000F002
:1047500017F80021402000F013F80021412000F05C
:104760000FF8C04600E0C046BD4602B080BDC0465E
:1047700010220020E0590100F0590100045A010004
:1047800080B582B000AF0200FB1D1A70BB1D0A1C71
:104790001A70B91DFB1D1B780122180000F01AF8D1
:1047A000C046BD4602B080BD80B584B000AF0200F7
:1047B000FB1D1A700F23F918FB1D1B78012218002E
:1047C00000F054F80F23FB181B781800BD4604B006
:1047D00080BDC04680B584B000AF39601100FB1DBC
:1047E000021C1A70BB1D0A1C1A700620FEF722F864
:1047F000FB1D1B78802252421343DAB2194B1A7008
:104800000F23FB1800221A7012E00F23FB181B78ED
:1048100001330F22BA18127839688A181178114AB0
:10482000D1540F23FB181A780F23FB1801321A708A
:104830000F23FB181A78BB1D1B7801339A42E4DB67
:10484000BB1D1B789BB201339AB20749054B180078
:10485000FEF7FAF80620FDF7DDFFC046BD4604B0BE
:1048600080BDC046D41400203815002080B584B027
:1048700000AF39601100FB1D021C1A70BB1D0A1C21
:104880001A700620FDF7D6FFFB1D1B787F22134010
:10489000DAB2194B1A70BB1D1B789BB201339AB266
:1048A0001649154B1800FEF7CFF80F23FB1800220E
:1048B0001A7012E00F23FB181B783A68D3180F22E6
:1048C000BA18127801320D498A5C1A700F23FB184E
:1048D0001A780F23FB1801321A700F23FA18BB1D28
:1048E00012781B789A42E5D30620FDF793FFC04665
:1048F000BD4604B080BDC046D41400203815002049
:1049000080B582B000AF78600A00FB1C1A70FB1CF7
:104910001A787B6819000020FFF75CFFC046BD468F
:1049200002B080BD80B582B000AF78600A00FB1C89
:104930001A70FB1C1A787B6819000020FFF796FF9D
:10494000C046BD4602B080BD80B582B000AF020057
:10495000FB1D1A70BB1D0A1C1A70FB1D1B78002B57
:1049600002D0012B0FD016E00D4B42229B5C01229E
:104970005340DBB2002B0DD0BB1D1B781900322039
:10498000FFF7FEFE06E0BB1D1B7819002320FFF792
:10499000F7FE00E0C046C046BD4602B080BDC0463E
:1049A0001022002080B582B000AF7860344B19002F
:1049B000002002F029FA334B24229B5C012B02D009
:1049C000022B40D053E0304B1900002002F01CFABB
:1049D0002C4B25229B5C002B2DD12A4B4C220021F5
:1049E0009954284B4D2200219954264B58220021DE
:1049F0009952244B5622002199520B213E20FFF759
:104A0000BFFE10213F20FFF7BBFE1E4B46229B5CE2
:104A1000002B0CD00D20FFF7C7FE03001A00402327
:104A20001343DBB219000D20FFF7AAFE03E0154B7C
:104A3000242200219954154BDB68002B14D0134B12
:104A4000DB68984710E0124B1900002002F0DCF9F7
:104A50000C4B2422002199540C4B5B68002B05D091
:104A60000A4B5B68984701E0C04600E0C046094B2E
:104A70001900002002F0C8F9C046BD4602B080BD52
:104A80001C5A010010220020345A0100BC210020D1
:104A9000445A0100545A0100B0B584B000AF7860A8
:104AA0000A00BB1C1A800B23FB1800221A70DB4B78
:104AB0001900002002F0A8F9D94B24229B5C1A00AF
:104AC000D84B1900002002F07BFED54B24229B5CC2
:104AD000012B03D0022B00D12BE258E2D24B19005C
:104AE000002002F091F9CE4B25229B5C002B03D0D5
:104AF000012B00D1E5E01BE2C94B44229B5C002B5B
:104B00004DD03F20FFF750FE03001A000B23FB1887
:104B10001A700B23FB181B78DBB21A000223134018
:104B20003DD10B213E20FFF72BFE10213F20FFF748
:104B300027FEBB4B46229B5C01225340DBB2002B7D
:104B400004D0B74B2422002199540BE00D20FFF72D
:104B50002BFE03001A0040231343DBB219000D2083
:104B6000FFF70EFEB14B1B68180001F015FDB04BAE
:104B70001B69002B02D0AE4B1B699847A84B4C22F7
:104B800000219954A64B4D2200219954A44B582240
:104B900000219952A24B562200219952C8E1A04B04
:104BA00056229B5A002B34D19D4B58229B5A002BE6
:104BB0002FD19B4B42229B5C01225340DBB2002B46
:104BC00005D09C4B01211800FFF7ACFE07E0322016
:104BD000FFF7EAFD030099B2914B56229952904B90
:104BE00058229B5A1A00944BD0188D4B56229B5A30
:104BF000DAB28B4B58215B5ADBB2D31ADBB2190005
:104C0000FFF790FE864B5622995A854B58229952AF
:104C100018E0834B58229B5A1A00874BD018804BC0
:104C200056229B5ADAB27E4B58215B5ADBB2D31A1A
:104C3000DBB21900FFF776FE794B5622995A784B72
:104C400058229952764B46229B5C01225340DBB29C
:104C5000002B04D0724B2422002199540BE00D202C
:104C6000FFF7A2FD03001A0040231343DBB2190033
:104C70000D20FFF785FD6D4B1B68180001F08CFCC3
:104C80006B4B9B68002B0BD0694B9C68644B562286
:104C9000995A634B4E229B561AB267480023A0478D
:104CA0005F4B4C22002199545D4B4D2200219954B9
:104CB0005B4B582200219952594B562200219952A0
:104CC00036E10F23FB1800221A705C4B19000020FC
:104CD00002F09AF840211220FFF752FD1220FFF750
:104CE00063FD03001A000B23FB181A700B23FB183B
:104CF0001B78DBB21A00202313401DD02021122084
:104D0000FFF73EFD464B72229B5C01225340DBB213
:104D1000002B03D0424B242200219954434B1B68A3
:104D2000180001F039FC424B1B69002B00D1FCE05C
:104D30003F4B1B699847F8E01920FFF735FD03004A
:104D400059B2374B78229954354B78229B56002B19
:104D500013DA334B78229B565B429B105AB20F23D7
:104D6000FB183F210A401A700F23FB181B785B4287
:104D7000DAB20F23FB181A7009E0294B78229B56F0
:104D80009B105AB20F23FB183F210A401A701A20B9
:104D9000FFF70AFD03001A000C23FB181A800F23EB
:104DA000FB181B787F2B4DD91D4B9B6A244A9342DD
:104DB00019D90C23FB1800229B5E1B111BB29AB25F
:104DC0000C23FB181B88D3189AB20F23FB181B78EF
:104DD0005BB29BB2D3189BB29D3B9BB219B2104BF6
:104DE0007A22995258E00C23FB1800229B5E1B117B
:104DF0001BB29AB20C23FB181B88D3189AB20F234C
:104E0000FB181B785BB29BB2D3189BB2A43B9BB23E
:104E100019B2034B7A2299523EE0C046685A01000B
:104E200010220020845A0100945A0100842100209D
:104E3000BC210020662200209C150020B05A0100F1
:104E400040DD4A1F564B9B6A564A934212D90C23A7
:104E5000FB1800229B5E1B111BB29AB20C23FB189D
:104E60001B88D3189BB29D3B9BB219B24C4B7A2244
:104E7000995211E00C23FB1800229B5E1B111BB200
:104E80009AB20C23FB181B88D3189BB2A43B9BB28D
:104E900019B2434B7A2299521320FFF785FC030085
:104EA00019003F4B7C2299543D4B7C229A5C3E4B2F
:104EB00011001800FFF736FD3C4B1900002001F0EF
:104EC000A3FF3B4B1900002001F09EFF364B0A2147
:104ED0001800FDF7E3FD374B1900002001F094FFA7
:104EE0002F4B72229B5C01225340DBB2002B03D07C
:104EF0002B4B2422002199542F4B1B68180001F0E2
:104F00004BFB2E4B9B68002B11D02C4B9C68244BE9
:104F10007C229B5C99B2224B7A229D5E204B7822A8
:104F20009B5621482A00A04701E0C0462FE0C0461A
:104F30002DE0234B1B68180001F02EFB214B1900BC
:104F4000002001F061FF164B25229B5C012B03D151
:104F500008211220FFF714FC114B24220021995440
:104F6000164B1B68002B07D0144B1B689847164B39
:104F70001900002001F048FF0620FDF741FB020068
:104F8000124B1900002002F01BFCC046C046104B1B
:104F90001900002001F038FFC046BD4604B0B0BD86
:104FA0001022002040DD4A1F9C150020D05A01002D
:104FB000F45A0100FC5A010084210020BC21002089
:104FC000A8210020005B01001C5B0100385B010090
:104FD000545B010080B582B000AF78600A00BB1C52
:104FE0001A80794B1900002001F00EFF774B242224
:104FF0009B5C012B03D0022B00D18DE0E0E0744BD1
:105000001900002001F000FF704B25229B5C002B53
:1050100002D0012B65D07EE06E4B1900002001F01C
:10502000F3FE6A4B56229B5A002B1AD1674B58222B
:105030009B5A002B15D1654B42229B5C01225340A9
:10504000DBB2002B05D0644B01211800FFF76AFC8E
:1050500007E03220FFF7A8FB030099B25B4B562212
:1050600099525A4B56229B5A1900584B58229B5A18
:10507000CB1A564A5A21525C934218DD534B5822A0
:105080009B5A1A00554BD018504B5A229B5C190062
:10509000FFF748FC4D4B58229A5A4C4B5A215B5C07
:1050A0009BB2D31899B2494B5822995233E0474BDF
:1050B00058229B5A1A00494BD018444B56229B5AEF
:1050C000DAB2424B58215B5ADBB2D31ADBB2190079
:1050D000FFF728FC3D4B5622995A3C4B58229952D7
:1050E00019E003210320FDF7A9FA3D4B1900002028
:1050F00001F08AFE3B4B1B68180001F04DFA334B60
:10510000242200219954384BDB68002B02D0364B07
:10511000DB689847C04653E0344B1900002001F08B
:1051200073FE2A4B25229B5C002B02D0012B40D022
:1051300045E0264B56229B5A1900244B58229B5A75
:10514000CB1A224A5B21525C934218DD1F4B582236
:105150009B5A1A00214BD0181C4B5B229B5C1900F8
:10516000FFF7CEFB194B58229A5A184B5B215B5C18
:105170009BB2D31899B2154B582299521FE0134B8A
:1051800058229B5A1A00154BD018104B56229B5A86
:10519000DAB20E4B58215B5ADBB2D31ADBB21900DC
:1051A000FFF7AEFB094B5622995A084B58229952E9
:1051B00005E00B4B1900002001F026FEC046C0465A
:1051C000C046BD4602B080BD645B010010220020D5
:1051D000805B0100A05B0100662200209C1500207E
:1051E000BC5B010084210020BC210020D85B0100B1
:1051F00090B583B000AF78600A00BB1C1A80404BAA
:1052000024229B5C012B02D0022B5ED073E03C4B2E
:1052100025229B5C002B02D0012B48D054E0384B58
:105220004C229B5C012B4CD1354B4D229B5C002BBF
:1052300047D1334B4D22012199541120FFF7B4FA85
:1052400003005B08DBB25B42DBB259B22C4B4E224F
:1052500099541B20FFF7A8FA03001C021C20FFF73B
:10526000A3FA0300234318000AF0C8FB03000C0054
:10527000180021000AF08CFB030018000AF0BEFBA6
:105280000022204B09F0B6FD03000C00180021009D
:105290000AF07EFB02001A4B1A650C20FFF784FA15
:1052A00003005B09D9B2164B5422995409E0144B00
:1052B0006F229B5C002B06D002211220FFF760FAC0
:1052C00001E0C04617E0C04615E00D4B25229B5C6F
:1052D000002B0CD0012B00D00CE0094B6F229B5C03
:1052E000002B06D002211220FFF74AFA01E0C04647
:1052F00000E0C046C046C046BD4603B090BDC046B3
:105300001022002080844E4080B582B000AF7860CB
:105310000A00BB1C1A800F4B25229B5C002B14D06B
:10532000012B00D012E01220FFF73EFA03001A0012
:105330000123134004D005211220FFF721FA05E0D4
:1053400004211220FFF71CFA00E0C046C046BD460B
:1053500002B080BD1022002080B582B000AF78601E
:105360000A00BB1C1A800C4B25229B5C002B02D030
:10537000012B0AD00CE0084B4C229B5C002B06D181
:10538000054B4C220121995401E0C04600E0C04683
:10539000C046BD4602B080BD1022002080B582B05C
:1053A00000AF78600A00BB1C1A80074B25229B5C6B
:1053B000002B02D0012B02D002E0C04600E0C04624
:1053C000C046BD4602B080BD1022002080B500AFAF
:1053D00001F02AFBC046BD4680BDC04680B582B004
:1053E00000AF786001231800BD4602B080BDC04602
:1053F00080B582B000AF78607B68032213405A42C8
:105400005341DBB21800BD4602B080BD80B582B00A
:1054100000AF0200FB1D1A70064BFA1D1278110036
:105420001F220A40012191400A001A60C046BD4671
:1054300002B080BD00E100E080B582B000AF0200A4
:10544000FB1D1A70074AFB1D1B7819001F230B4018
:10545000012199400B0019008023D150C046BD4660
:1054600002B080BD00E100E080B582B000AF020074
:10547000FB1D1A70084AFB1D1B7819001F230B40E7
:10548000012199400B00190080235B00D150C046D8
:10549000BD4602B080BDC04600E100E080B582B0EC
:1054A00000AF0200FB1D1A70084AFB1D1B78190093
:1054B0001F230B40012199400B001900C0235B0002
:1054C000D150C046BD4602B080BDC04600E100E0FC
:1054D000B0B582B000AF02003960FB1D1A70FB1D31
:1054E0001B787F2B32D92F4CFB1D1B781A000F2302
:1054F0001340083B99082B4AFB1D1B7818000F230B
:105500000340083B9B0806339B00D31804331B68F9
:10551000FA1D1278100003220240D200FF209040B2
:105520000200D2431A403B689B01FF201840FB1D3C
:105530001B781D0003232B40DB00984003001A4317
:105540008B1D9B00E31804331A6027E0164CFB1DEB
:105550001B785BB29B081449FA1D127852B292086C
:10556000C03292005258F91D097808000321014009
:10557000C900FF2088400100C94311403A689201E8
:10558000FF201040FA1D1278150003222A40D20095
:10559000904002000A43C0339B001A51C046BD46EA
:1055A00002B0B0BD00ED00E000E100E080B582B0E7
:1055B00000AF0200FB1D1A70FB1D1B787F2B18D952
:1055C000174AFB1D1B7819000F230B40083B9B0853
:1055D00006339B00D31804331A68FB1D1B7819008F
:1055E00003230B40DB00DA401300FF2213409B092A
:1055F00012E00C4AFB1D1B785BB29B08C0339B007A
:105600009A58FB1D1B78190003230B40DB00DA407E
:105610001300FF2213409B091800BD4602B080BD55
:1056200000ED00E000E100E080B582B000AF7860FE
:10563000C046C046C046C046C046C046C046C0463A
:10564000C046C046C046C046C046C0467B68013B17
:105650007B60002BECD1C046BD4602B080BDC04689
:1056600080B582B000AF0C4B5B68DB05DB0D7B6067
:105670007B68002B0AD07B68103B3B603B685BB2C9
:105680001800FFF793FF0300DBB200E004231800CB
:10569000BD4602B080BDC04600ED00E080B582B0DE
:1056A00000AF78600649A123DB007A68CA50032165
:1056B0001120FFF70DFFC046BD4602B080BDC046B9
:1056C0000010014080B500AF0E49D1239B0080221D
:1056D0005202CA500B49C1239B0080225202CA5079
:1056E0001120FFF7DBFE1120FFF790FE054B012292
:1056F0001A602F20FFF798FF034B01221A70C04653
:10570000BD4680BD00100140C816002080B500AF26
:105710001120FFF791FE1049D2239B0080225202F4
:10572000CA500D49C2239B0080225202CA500A4B24
:1057300001225A602F20FFF777FF074B01229A6062
:10574000064B00221A602F20FFF76EFF044B002249
:105750001A70C046BD4680BD00100140B41600203E
:10576000C816002080B500AF024A034BD35818007A
:10577000BD4680BD001001400405000080B582B028
:1057800000AF786039607A683B68D31A1B021B0A45
:105790001800BD4602B080BD80B582B000AF786011
:1057A0000449A823DB007A68CA50C046BD4602B04F
:1057B00080BDC0460010014080B586B000AF786063
:1057C0004C4B19687A681300DB009B189B00CB18C0
:1057D000BB60494B1B68013303D1474B7A681A60A1
:1057E00084E0BB685968434B1868434B1A68130040
:1057F000DB009B189B00C3185B6899421ED83D4B89
:1058000019683D4B1A681300DB009B189B00CA18EF
:10581000384B1868384B19680B00DB005B189B008D
:10582000C3185968BB685B68CB1A5360324B1A685F
:10583000BB681A62304B7A681A6057E0BB685B68D5
:10584000FB602D4B1B687B612B4B1B683B6117E09A
:10585000284B19683A691300DB009B189B00CB1892
:105860005B68FA68D31AFB603B697B61214B19685E
:105870003A691300DB009B189B00CB181B6A3B6145
:105880003B6901330BD01B4B19683A691300DB00ED
:105890009B189B00CB185A68FB689A42D8D33B6987
:1058A000013313D0134B19683A691300DB009B18BE
:1058B0009B00CA180F4B186839690B00DB005B1896
:1058C0009B00C3185968FB68CB1A5360BB68FA6821
:1058D0005A60BB683A691A62064B19687A69130004
:1058E000DB009B189B00CB187A681A62C046BD4645
:1058F00006B080BDA4160020B016002080B586B08A
:1059000000AF78603A4B1B687B617B693B610FE0BD
:105910003A697B689A420FD03B697B61354B1968C5
:105920003A691300DB009B189B00CB181B6A3B6194
:105930003B690133ECD100E0C0463B69013353D0F1
:105940007A693B699A4211D12A4B1968284B1A6827
:105950001300DB009B189B00CB181A6A244B1A60BB
:10596000234B1B68013301D1FFF7D0FE214B19688F
:105970003A691300DB009B189B00CB185B68FB6047
:105980001C4B19687A691300DB009B189B00CA182E
:10599000184B186839690B00DB005B189B00C318B3
:1059A0001B6A1362134B19687A691300DB009B189A
:1059B0009B00CB181B6A3B613B69013315D00D4B33
:1059C00019683A691300DB009B189B00CA18094B41
:1059D000186839690B00DB005B189B00C318596815
:1059E000FB68CB18536000E0C046BD4606B080BDE2
:1059F000B0160020A416002080B500AF1120FFF7DC
:105A000033FDC046BD4680BD80B500AF1420FFF712
:105A10002BFDC046BD4680BD80B584B000AF786028
:105A2000124B1B68002B17D0104B1A687B689869C3
:105A30007B68DB69190090470300FB60FB68BB6073
:105A4000BB68002B0ED00A4A6423FF331900BB68E1
:105A50001800FAF765FC05E07B689A697B68DB69EA
:105A600018009047C046BD4604B080BDC416002053
:105A7000F85B010080B584B000AF2C4B1B6801338C
:105A800050D000237B60FFF76DFE0200284B1B689F
:105A900019001000FFF772FE0300BB60234B1B6868
:105AA000FB601EE0234B1968FA681300DB009B18AB
:105AB0009B00CB183B603B685A68BB689A4214D87D
:105AC0003B685B68BA68D31ABB603B685B687A68FE
:105AD000D3187B603B681B6AFB603B681800FFF7CC
