:1000000000400020E9680000316900003369000009
:1000100000000000000000000000000000000000E0
:100020000000000000000000000000003569000032
:10003000000000000000000037690000396900007E
:100040003B6900003B6900003B690000810800003B
:100050003B690000000000001D1A00003B69000021
:100060003B6900003B6900003B6900003B69000000
:100070003B6900003B6900003B6900003B690000F0
:100080003B690000115200003B6900003B69000021
:10009000615200003B6900003B6900003B690000C1
:1000A0003B6900003B690000000000000000000008
:1000B0000000000000000000000000000000000040
:1000C00010B5064C2378002B07D1054B002B02D02E
:1000D000044800E000BF0123237010BDD4040020B9
:1000E00000000000FC980000084B10B5002B03D066
:1000F0000749084800E000BF07480368002B00D10B
:1001000010BD064B002BFBD09847F9E7000000001C
:10011000D8040020FC980000D0040020000000005B
:10012000164B002B00D1144B9D46402292029A1A86
:10013000924600218B460F461348144A121A08F0C3
:10014000B1FD0F4B002B00D098470E4B002B00D079
:1001500098470020002104000D000D48002802D01F
:100160000C4808F0BBFE08F03BFD2000290000F021
:1001700011F908F025FDC0460000080000400020ED
:100180000000000000000000D404002054120020F1
:10019000DD8E0000ED8E000080B582B000AF78608B
:1001A00039600AE0A023DB057A68C132FF32920091
:1001B0000321D1507B6801337B607A683B689A42A7
:1001C000F0D9C046BD4602B080BDC04680B584B0FF
:1001D00000AF786001227B689A401300FB60A02387
:1001E000DB050D4A9A587B68DA4013000122134060
:1001F000BB60BB68002B06D1A023DA05A123DB007E
:10020000F968D15004E0A023DB050449FA685A508C
:10021000C046BD4604B080BD040500000C050000CA
:1002200080B586B002AFF860B9607A601B20FFF736
:10023000CDFFF868BA6804497B680093030000208A
:1002400006F0A8FAFEE7C0462090000080B500AF97
:100250008023DA05A323DB000021D1508023DA05B7
:1002600082235B000021D1508023DB0501229A60AC
:10027000C0468023DA0582235B00D358002BF8D0D8
:100280008023DA0582235B000021D150034B190043
:10029000002005F0A3FDC046BD4680BD5090000083
:1002A00080B58AB002AFFFF7D1FF334A0023009335
:1002B00013000B220C21002004F0DAFF0300FB6185
:1002C000FB69BB61BB69002B05D02C4ABB69882147
:1002D0001800FFF7A5FF2A4A2A4B0021180005F055
:1002E00085F803007B617B693B613B69002B05D08E
:1002F000224A3B698E211800FFF792FF204A224BC9
:100300000021180005F072F803007B617B69FB6037
:10031000FB68002B05D0194AFB6893211800FFF7F2
:100320007FFF174A194B0021180005F05FF8030002
:100330007B617B69BB60BB68002B05D00F4ABB6843
:1003400098211800FFF76CFF114B1A000A210C20AE
:1003500005F0F6F903007B607B683B603B68002B8F
:1003600005D0064A3B689B211800FFF759FFC0469D
:10037000BD4608B080BDC046F40400207090000067
:10038000A1390000701100206C1100209011002094
:100390004C0A002090B58DB00AAFFFF781FFCA4B21
:1003A0001900002005F01AFD1A211920FFF7F4FEAC
:1003B000FB1D01221A70C54B1900002005F00EFD2F
:1003C00005F01CFBC24B1B78062B00D979E19A0083
:1003D000C04BD3181B689F46BF4B1900002005F087
:1003E000FDFCBE4BBE4A1A60BC4BBE4A9A60BB4B7A
:1003F000BD4A5A60B94BBD4ADA60B84BBC4A1A6173
:10040000BC4B1B689847BB4BDB68BB4A1000984746
:10041000B84BDC69B94B089300230793002306937C
:1004200000230593012304930023039308230293DD
:100430000123019307230093002300220E210120B2
:10044000A047AC4B9C690123099300230893002328
:1004500007930023069301230593002304930023AD
:1004600003930523029308230193002300930123A0
:10047000072200210120A0479E4B5B6BA04A100081
:100480009847934B01221A709E4B1900002005F0EB
:10049000A5FC17E1FB1D1B78002B61D09A4B1B8834
:1004A000002B00D1A8E09949994B0422180008F0CC
:1004B0003FFC031E37D11A20FFF788FE944B5022D1
:1004C0001A70934B49225A70914B4E229A70904B5E
:1004D0004722DA70BB1D04221A700CE0BB1D1B788A
:1004E000BA1D1278043AD1B2894AD154BB1D1A7888
:1004F000BB1D01321A70BB1D1B789AB2824B1B8840
:100500009A42EBD3012000F013FF824B1900002028
:1005100005F064FC774B9B6A7B4A1288D1B27C4A17
:100520001000984768E07C49794B0422180008F0D5
:10053000FFFB031E0BD1FB1D00221A701A20FFF7D0
:1005400045FE6C4B5B6B6E4A1000984754E0FB1DF8
:1005500001221A70674B5B6B694A100098474BE0A9
:10056000694B1B88002B47D06B49694B042218004C
:1005700008F0DEFB031E37D11A20FFF727FE644B7D
:1005800050221A70624B4F225A70614B4E229A7061
:100590005F4B4722DA70BB1D04221A700CE0BB1DB2
:1005A0001B78BA1D1278043AD1B2594AD154BB1DF6
:1005B0001A78BB1D01321A70BB1D1B789AB2524BC0
:1005C0001B889A42EBD3012000F0B2FE534B190076
:1005D000002005F003FC474B9B6A4B4A1288D1B2BE
:1005E0004B4A1000984707E0FB1D01221A70414B4F
:1005F0005B6B434A10009847354B01221A7061E04B
:10060000474B1900002005F0E9FB1920FFF7DEFD3C
:10061000384B5B6B3A4A100098472D4B01221A70F9
:1006200050E0404B1900002005F0D8FBFB1D1B7863
:10063000002B2FD0364B50221A70354B49225A705E
:10064000334B4E229A70324B4722DA70BB1D042284
:100650001A700CE0BB1D1B78BA1D1278043AD1B297
:100660002B4AD154BB1D1A78BB1D01321A70BB1D19
:100670001B789AB2244B1B889A42EBD3012000F0DE
:1006800057FE1C4B9B6A204A1288D1B2204A1000A8
:10069000984704E0174B5B6B194A100098470C4BC6
:1006A00001221A700EE0204B1900002005F096FB85
:1006B000104B5B6B124A10009847054B01221A70D1
:1006C00000E0C0467CE6C0467C90000090900000B0
:1006D000F004002038910000AC900000741100205C
:1006E0002D07000041070000B5070000C907000002
:1006F000DD070000809100004018D833B80B0000DF
:1007000088130000BC900000040000201890000036
:1007100094110020CC90000010900000E8900000A0
:1007200004910000149100002C91000080B500AFEE
:10073000024B05221A70C046BD4680BDF004002061
:1007400090B585B000AFF8600C00100019000A23C6
:10075000FB18221C1A800823FB18021C1A80FB1DA0
:100760000A1C1A700E4B0A22BA1812881A800C4BF7
:100770001B881A00F9680B4B180008F055FA08237B
:10078000FB181B885AB2084B1A70084BFA1D1278D6
:100790001A70074B02221A70C046BD4605B090BDC4
:1007A0000400002094110020F1040020F204002035
:1007B000F004002080B500AF024B06221A70C0463C
:1007C000BD4680BDF004002080B500AF024B03227F
:1007D0001A70C046BD4680BDF004002080B500AF51
:1007E000024B04221A70C046BD4680BDF0040020B2
:1007F00080B582B000AF7860A023DB057A68C13293
:10080000FF3292000321D150C046BD4602B080BDE8
:1008100080B582B000AF78600A00FB1C1A70A0237C
:10082000DB05FA1C1278920011007A68C132FF329F
:100830009200D150C046BD4602B080BD80B582B0A6
:1008400000AF7860A023DA0501217B689940A123DD
:10085000DB00D150C046BD4602B080BD80B582B03D
:1008600000AF7860A023DB0501217A6891400A007F
:1008700002495A50C046BD4602B080BD0C0500007A
:1008800080B582B000AF0F4A84235B00D358012BA0
:1008900014D10C4AC1239B00D358042213400DD01D
:1008A000084A84235B000021D150002000F00CF89E
:1008B00003007B607B68180000F0BEF9C046BD46AF
:1008C00002B080BD0030004080B582B000AF0200B1
:1008D000FB1D1A70FB1D1B78002B08D1FB1D1A781D
:1008E00013009B009B18DB00034A9B1800E00023C9
:1008F0001800BD4602B080BD280B002080B586B030
:1009000000AFF86008007A6019000B23FB18021C86
:100910001A700A23FB180A1C1A701723FB187A682E
:10092000511E8A411A701723FB181B78012253406D
:10093000DBB2002B05D01F4B1A0071210020FFF7FE
:100940006FFC7B68FA681A607B680B22BA18127811
:100950001A717B6800229A607B6800229A817B680A
:100960000022DA817B6800221A617B6800229A8269
:100970007B680022DA827B6800225A837B6800222F
:100980001A837B6800221A777B6800221A627B68D0
:100990002422002199547B682522002199540A239E
:1009A000FB181B78D9B27B6826229954C046BD46F5
:1009B00006B080BD5491000080B586B000AFF860ED
:1009C0007A603B600A23FB180A1C1A801723FB1865
:1009D0007A68511E8A411A701723FB181B7801226E
:1009E0005340DBB2002B05D0204B1A00922100208F
:1009F000FFF716FC1623FB183A68511E8A411A703D
:100A00001623FB181B7801225340DBB2002B05D0C4
:100A1000164B1A0093210020FFF702FC1523FB1848
:100A20003A6A511E8A411A701523FB181B7801225D
:100A30005340DBB2002B05D00C4B1A009421002050
:100A4000FFF7EEFB7B68FA681A60FB68002B03D0A7
:100A50000A23FB181A8800E000223B681A803B6AD0
:100A600000221A80C046BD4606B080BD54910000E9
:100A700080B584B000AF786039600F23FB187A68C6
:100A8000511E8A411A700F23FB181B780122534014
:100A9000DBB2002B05D0124B1A00A1210020FFF77A
:100AA000BFFB0E23FB183A68511E8A411A700E23B1
:100AB000FB181B7801225340DBB2002B05D0084BFA
:100AC0001A00A2210020FFF7ABFB7B6800221A600E
:100AD0003B6800221A80C046BD4604B080BDC046B7
:100AE0005491000080B584B000AF78600800110018
:100AF000FB1C021C1A703B000A1C1A800F23FB18F7
:100B00007A68511E8A411A700F23FB181B78012244
:100B10005340DBB2002B05D0124B1A00AF2100204E
:100B2000FFF77EFB7B681B6A002B17D00823FB189E
:100B300002221A700823FB1800225A800823FB188F
:100B4000FA1C12781A700823FB183A0012885A808F
:100B50007B681A6A0823FB1818689047C046BD4690
:100B600004B080BD5491000080B584B000AF7860BF
:100B70000F23FB187A68511E8A411A700F23FB1845
:100B80001B7801225340DBB2002B05D0284B1A0002
:100B9000C0210020FFF744FB7B681A687B689B68D4
:100BA000002B0FD07B68DB8999B27B689B899BB255
:100BB000994207D27B689B687968C98989B25B18BA
:100BC0001B7800E000231B4953507B68DB899BB2F4
:100BD00001339AB27B68DA817B68DB899AB27B68E1
:100BE0001B8B9BB29A421FD27B681A687B689B68FA
:100BF000002B0FD07B68DB8999B27B689B899BB205
:100C0000994207D27B689B687968C98989B25B1869
:100C10001B7800E00023074953507B68DB899BB2B7
:100C200001339AB27B68DA81C046BD4604B080BD0C
:100C3000549100001C05000080B584B000AF7860BE
:100C40000F23FB187A68511E8A411A700F23FB1874
:100C50001B7801225340DBB2002B05D0504B1A0009
:100C6000D8210020FFF7DCFA7B685B8B9BB2013355
:100C70009AB27B685A837B6825229B5CDBB2012297
:100C80005340DBB2002B0BD07B6825220121995405
:100C90007B685B8B9AB27B6800211800FFF722FF0C
:100CA0007B681A68A323DB00D2580E23FB181A7046
:100CB0007B681B69002B15D07B68DB8A9AB27B6846
:100CC0009B8A9BB29A420DD27B681A697B68DB8A49
:100CD0009BB2591C88B27968C882D3180E22BA1800
:100CE00012781A707B68DB899AB27B681B8B9BB287
:100CF0009A421FD27B681A687B689B68002B0FD0D2
:100D00007B68DB8999B27B689B899BB2994207D249
:100D10007B689B687968C98989B25B181B7800E099
:100D20000023204953507B68DB899BB201339AB280
:100D30007B68DA817B685B8B9AB27B681B8B9BB28A
:100D40009A4228D37B681B7FDBB21800FFF776FD41
:100D50000C23FB187A68D2891A807B6808331A0042
:100D60007B680C3319001000FFF782FE7B6810339C
:100D70001A007B68143319001000FFF779FE7B68B6
:100D80002422022199540C23FB181A887B68012124
:100D90001800FFF7A7FEC046BD4604B080BDC046A0
:100DA000549100001C05000080B588B000AF02001F
:100DB0003960FB1D1A703B68002B01D10E23CEE079
:100DC000FB1D1B781800FFF77FFD0300FB611B2351
:100DD000FB18FA69511E8A411A701B23FB181B78F5
:100DE00001225340DBB2002B06D05F4A89235B000F
:100DF00019000020FFF714FAFB1D1B78002B00D010
:100E00000AE03B68DB7E5A1E9341DBB2FA69574821
:100E10000321FFF773FDC0463B681B691800FFF70D
:100E20000DFD3B681B691800FFF7E2FC3B681B697E
:100E30001800FFF703FD3B685B681800FFF7D8FC5C
:100E40003B68DB681800FFF7D3FC3B689B68002118
:100E50001800FFF7DDFC3B681B69DAB2FB691A7703
:100E6000FB691A683B685968A123DB00D150FB6914
:100E70001A683B68DB683E495350FB691A683B6857
:100E80009968A223DB00D150FB691A683B681B6894
:100E900038495350FB691B683A68927E5200110032
:100EA0003A68527E92000A433968097E0A43324901
:100EB0005A50FB691A6884235B000021D150FB69FA
:100EC0001B795BB2180000F0D3FB03007B617B69E8
:100ED000002B07D0244A4223FF3319007B691800F6
:100EE000FFF79EF9FB691B795AB23B685B69DBB27D
:100EF0001900100000F0CEFB03003B613B69002BA2
:100F000006D0194AA12359003B691800FFF788F958
:100F1000FB6900221A62FB691A68C1239B00042145
:100F2000D150FB691B795BB2180000F051FB030044
:100F3000FB60FB68002B07D00B4A4A23FF331900E4
:100F4000FB681800FFF76CF9FB691A68A023DB0047
:100F50000121D150FB692422022199540023180059
:100F6000BD4608B080BDC04654910000003000402E
:100F70000C050000240500005405000080B586B073
:100F800000AF0200FB1D1A70FB1D1B781800FFF755
:100F90009BFC03007B611323FB187A69511E8A4175
:100FA0001A701323FB181B7801225340DBB2002B6D
:100FB00006D02C4A5E23FF3319000020FFF730F9DA
:100FC0007B691B795BB2180000F052FB0300FB60E9
:100FD000FB68002B06D0234AB0235900FB68180099
:100FE000FFF71EF97B691B795BB2180000F002FB6A
:100FF0000300BB60BB68002B07D01A4A6223FF3393
:101000001900BB681800FFF70BF97B691A68A02369
:10101000DB000021D1507B691B7FDBB21800FFF79A
:101020001DFC7B69FF221A777B691A68A123DB000C
:1010300001214942D1507B691B680B490122524270
:101040005A507B691A68A223DB0001214942D15022
:101050007A69002300210020FFF750FCC046BD46FE
:1010600006B080BD549100000C05000080B584B02E
:1010700000AF0200FB1D1A70FB1D1B781800FFF764
:1010800023FC0300FB600B23FB18FA68511E8A4106
:101090001A700B23FB181B7801225340DBB2002B84
:1010A00006D0074A7C23FF3319000020FFF7B8F869
:1010B000FB6824229B5CDBB21800BD4604B080BDF7
:1010C0005491000080B584B000AF02003960FB1D70
:1010D0001A70FB1D1B781800FFF7F6FB0300FB607E
:1010E0000B23FB18FA68511E8A411A700B23FB1858
:1010F0001B7801225340DBB2002B06D0064A8A231C
:10110000FF3319000020FFF78BF8FB683A681A627A
:10111000C046BD4604B080BD54910000B0B58EB04D
:1011200002AFB96011007B600F23FB18021C1A701C
:101130000C23FB180A1C1A800F23FB181B781800BD
:10114000FFF7C2FB0300BB622723FB18BA6A511EDC
:101150008A411A702723FB181B7801225340DBB207
:10116000002B06D0634A9A23FF3319000020FFF7B3
:1011700057F80023FB622423FB1800221A80132354
:10118000FB1800221A70BB6A26229B5CDBB2002B84
:1011900011D01323FB18180000F0B8FA03003B62CB
:1011A0003B6A002B1AD0534AD22359003B6A1800DD
:1011B000FFF736F812E0BB6A1B795BB2180000F04B
:1011C00019FA0300FB61FB69002B07D0494AAA23E7
:1011D000FF331900FB691800FFF722F8BB6A2422CD
:1011E0009B5CDBB2022B51D12423FA180C23FB1891
:1011F000402179180C881B8898B2A1B2884200D28D
:10120000231C13802423FB181B88002B3BD0BB6AB4
:10121000242201219954BB6A00225A83BB6A2522E9
:1012200000219954BB6A2422BA1812881A83BB6A17
:1012300008331C00BB6A0C331D00BB6A0E330C2242
:10124000BA181188B86800932B002200FFF7B4FB8E
:10125000BB6A10331A00BB6A14331C00BB6A163316
:10126000402179180988786800932300FFF7A4FBD0
:10127000BB6A1B7FDBB21800FFF7F0FABB6A1800ED
:10128000FFF772FC04E00723FB6201E01123FB621D
:10129000BB6A26229B5CDBB2002B12D01323FB1807
:1012A0001B78180000F04CFA0300BB61BB69002BEF
:1012B0001AD0104AEB235900BB691800FEF7B0FFA3
:1012C00012E0BB6A1B795BB2180000F081F90300E1
:1012D0007B617B69002B07D0064ADC23FF331900B2
:1012E0007B691800FEF79CFFFB6A1800BD460CB036
:1012F000B0BDC0465491000080B582B000AF7860A8
:10130000C046C046C046C046C046C046C046C046AD
:10131000C046C046C046C046C046C0467B68013B8A
:101320007B60002BECD1C046BD4602B080BDC046FC
:1013300080B582B000AF786006E07B68013B7B60DF
:10134000054B1800FFF7D8FF7B68002BF5D1C0468E
:10135000BD4602B080BDC046E703000080B582B044
:1013600000AF0200FB1D1A70064BFA1D1278110027
:101370001F220A40012191400A001A60C046BD4662
:1013800002B080BD00E100E080B582B000AF020095
:10139000FB1D1A70074AFB1D1B7819001F230B4009
:1013A000012199400B0019008023D150C046BD4651
:1013B00002B080BD00E100E080B582B000AF020065
:1013C000FB1D1A700A4A80235B00D358FA1D12785D
:1013D00011001F220A40012191400A00134001D050
:1013E000012300E000231800BD4602B080BDC046C6
:1013F00000E100E080B582B000AF0200FB1D1A7072
:10140000084AFB1D1B7819001F230B40012199403E
:101410000B00190080235B00D150C046BD4602B0CE
:1014200080BDC04600E100E080B582B000AF0200A0
:10143000FB1D1A70084AFB1D1B7819001F230B4067
:10144000012199400B001900C0235B00D150C04618
:10145000BD4602B080BDC04600E100E0B0B582B03C
:1014600000AF02003960FB1D1A70FB1D1B787F2B3B
:1014700032D92F4CFB1D1B781A000F231340083B59
:1014800099082B4AFB1D1B7818000F230340083BCB
:101490009B0806339B00D31804331B68FA1D12788F
:1014A000100003220240D200FF2090400200D243ED
:1014B0001A403B689B01FF201840FB1D1B781D0054
:1014C00003232B40DB00984003001A438B1D9B0035
:1014D000E31804331A6027E0164CFB1D1B785BB23F
:1014E0009B081449FA1D127852B29208C032920039
:1014F0005258F91D0978080003210140C900FF2056
:1015000088400100C94311403A689201FF20104011
:10151000FA1D1278150003222A40D20090400200E2
:101520000A43C0339B001A51C046BD4602B0B0BD4D
:1015300000ED00E000E100E080B582B000AF020005
:10154000FB1D1A70FB1D1B787F2B18D9174AFB1D3A
:101550001B7819000F230B40083B9B0806339B00A8
:10156000D31804331A68FB1D1B78190003230B40A2
:10157000DB00DA401300FF2213409B0912E00C4A03
:10158000FB1D1B785BB29B08C0339B009A58FB1D68
:101590001B78190003230B40DB00DA401300FF2205
:1015A00013409B091800BD4602B080BD00ED00E06D
:1015B00000E100E080B500AFBFF34F8F024B034A5C
:1015C000DA60BFF34F8FFEE700ED00E00400FA059C
:1015D00080B582B000AF0200FB1D1A70FB1D1B78A6
:1015E0005BB21800FFF7BAFE00231800BD4602B038
:1015F00080BDC04680B582B000AF0200FB1D1A70EE
:10160000FB1D1B785BB21800FFF7BEFE002318001D
:10161000BD4602B080BDC04680B582B000AF0200BA
:101620003960FB1D1A703B68002B0AD0FB1D1B782C
:101630005BB21800FFF7C0FE02003B681A6000238F
:1016400000E00E231800BD4602B080BD80B582B018
:1016500000AF0200FB1D1A70FB1D1B785BB2180067
:10166000FFF7C8FE00231800BD4602B080BDC0468B
:1016700080B582B000AF0200FB1D1A70FB1D1B7805
:101680005BB21800FFF7D0FE00231800BD4602B081
:1016900080BDC04680B582B000AF0200FB1D1A704D
:1016A000BB1D0A1C1A70BB1D1A78FB1D1B785BB290
:1016B00011001800FFF7D2FE00231800BD4602B04B
:1016C00080BDC04680B582B000AF02003960FB1D0E
:1016D0001A703B68002B0BD0FB1D1B785BB2180007
:1016E000FFF72AFF0300DAB23B681A70002300E01C
:1016F0000E231800BD4602B080BDC04680B500AFC5
:10170000FFF758FF00231800BD4680BD80B582B0AA
:1017100000AF786072B6094B1B785A1E9341DBB25A
:101720001A007B681A70054B1B780133DAB2034B41
:101730001A7000231800BD4602B080BD500B002077
:1017400080B582B000AF0200FB1D1A70094B1B78F8
:10175000013BDAB2074B1A70FB1D1B78002B03D13B
:10176000044B00221A7062B600231800BD4602B076
:1017700080BDC046500B002080B582B000AF020093
:10178000FB1D1A70064BFA1D127811001F220A4029
:10179000012191400A001A60C046BD4602B080BDDA
:1017A00000E100E080B582B000AF0200FB1D1A70BE
:1017B000FB1D1B787F2B18D9174AFB1D1B781900BE
:1017C0000F230B40083B9B0806339B00D3180433C0
:1017D0001A68FB1D1B78190003230B40DB00DA405D
:1017E0001300FF2213409B0912E00C4AFB1D1B78DB
:1017F0005BB29B08C0339B009A58FB1D1B781900F5
:1018000003230B40DB00DA401300FF2213409B0947
:101810001800BD4602B080BD00ED00E000E100E030
:1018200080B582B000AF786039600AE0A023DB05A4
:101830007A68C132FF3292000321D1507B680133B4
:101840007B607A683B689A42F0D9C046BD4602B0D8
:1018500080BDC04680B582B000AF7860A023DB05B4
:101860007A68C132FF3292000321D150C046BD4692
:1018700002B080BD80B582B000AF78600A00FB1C6A
:101880001A70A023DB05FA1C1278920011007A6806
:10189000C132FF329200D150C046BD4602B080BD79
:1018A00080B582B000AF7860A023DA0501217B68A3
:1018B0009940A123DB00D150C046BD4602B080BD97
:1018C00080B582B000AF7860A023DB0501217A6883
:1018D00091400A0002495A50C046BD4602B080BD40
:1018E0000C05000080B584B000AF786001227B68F1
:1018F0009A401300FB60A023DB050D4A9A587B68D1
:10190000DA40130001221340BB60BB68002B06D1F4
:10191000A023DA05A123DB00F968D15004E0A0235D
:10192000DB050449FA685A50C046BD4604B080BD84
:10193000040500000C05000080B584B000AFF8601D
:10194000B960FB1D1A700D49BB681A02FB1D1B789C
:101950001B04134301221A43FB684533FF339B00EA
:101960005A50C046C046C046044AFB6840339B00FC
:1019700000219950C046BD4604B080BD00600040C3
:1019800080B500AF1F4B1900002004F027FA1E4B52
:101990001A681E4B1B6819001000FFF741FF1C4B13
:1019A0005B6803211800FFF765FF194B9B68032153
:1019B0001800FFF75FFF164B5B680122190000203B
:1019C000FFF7BAFF124B9B68012219000120FFF7B5
:1019D000B3FF104AC1239B000121D1500D4AC123FE
:1019E0009B000221D1500620FFF7C6FE0620FFF71C
:1019F000D9FE0200084B1900002004F0CBFEC046BF
:101A0000BD4680BDB89200000C00002010000020F0
:101A1000D411002000600040D492000080B500AFD7
:101A2000224A80235B00D358012B1CD11F4AC123BB
:101A30009B00D3580122134015D01C4A80235B0021
:101A40000021D1501A4B1900002004F0C7F9194B9E
:101A50001A000021002003F0BBFE174B19000020E4
:101A600004F0BCF91CE0114A82235B00D358012B1F
:101A700016D10E4AC1239B00D358022213400FD027
:101A80000A4A82235B000021D1500C4B1900002030
:101A900004F0A4F90A4B1A000021002003F098FE7C
:101AA0001920FFF71FFFC046BD4680BD0060004003
:101AB000FC920000953A0000149300002893000067
:101AC000BD3F000080B588B002AFF860B960BB1DB3
:101AD0001A80B868BB1D1A88F968BB1D1B88009363
:101AE00003000020FFF71AFB03007B617B693B6169
:101AF0003B69002B06D0074AAA2359003B6918000E
:101B0000FEF78EFB1920FFF7EDFEC046BD4606B07E
:101B100080BDC0464093000080B584B000AF7860BF
:101B20000A00BB1C1A800E23FB1800221A8012E048
:101B30000E23FB181B887A68D3181B781A000C4BED
:101B40001900002004F026FE0E23FB181A880E232D
:101B5000FB1801321A800E23FA18BB1C12881B884E
:101B60009A42E5D301231800BD4604B080BDC046AB
:101B70006493000090B58BB000AF3B1D224A13CA9E
:101B800013C313CA13C312681A60204B1900002034
:101B900004F024F93B1D09225A603B1D08229A607B
:101BA0003B1D0722DA603B1D06221A613B1D19000E
:101BB0000020FFF7F9F803007B627B6A3B623B6A17
:101BC000002B06D0124AC22359003B6A1800FEF7C8
:101BD00027FB104B19000020FFF774FA0320FFF7D2
:101BE000E1FD02000C4B1900002004F0D3FD04209D
:101BF000FFF7D8FD0200094B1900002004F0CAFDD0
:101C0000C046BD460BB090BDD09300006C93000061
:101C100040930000211C000080930000A893000066
:101C200080B582B000AF3B1D18603B1D1B78012BB7
:101C300000D003E0034B01221A70C046C046BD46E7
:101C400002B080BD0800002080B582B000AF020065
:101C5000FB1D1A70144B20229B5CFA1D12789A42CD
:101C60001ED0114BFA1D202112785A54FB1D1B78EF
:101C7000002B0AD00D4B1B681800FFF721FE0C4B00
:101C80001B681800FFF70CFE0BE0084B1B681800E0
:101C9000FFF706FE064B1B681800FFF711FE00E079
:101CA000C046BD4602B080BDD41100200C0000200B
:101CB0001000002080B582B000AF0200FB1D1A703A
:101CC000C046BD4602B080BD80B582B000AF78602E
:101CD00080231800BD4602B080BDC04680B582B0EA
:101CE00000AF2C4B1900002004F078F8FFF742FFFA
:101CF000294B1E221A60284B0C225A60264B0B22BD
:101D00009A60254B0122DA61FFF73AFE01F056FC9A
:101D100000F0F2F8002001F07BFCFB1D00221A709D
:101D200023E0FB1D1A781D4913005B009B185B5CC8
:101D3000180001F0B9FCFB1D1A78184913005B006C
:101D40009B18CB1801331878FB1D1A781349130020
:101D50005B009B18CB1802331B78190001F00EFDB5
:101D6000FB1D1A78FB1D01321A70FB1D1B780E2B10
:101D7000D7D9002001F098FC074B24220021995468
:101D8000074B1900002004F029F8C046BD4602B0F8
:101D900080BDC046EC930000D4110020D891000013
:101DA000FC93000080B500AF024B24229B5C18001E
:101DB000BD4680BDD411002090B583B000AF7860DF
:101DC000174B7A689A62786806F098FE0022154BE5
:101DD00005F02AFC03000C001800210005F01AF899
:101DE00003007B607B681B0CDBB21900062001F04E
:101DF000C5FC7B681B0ADBB21900072001F0BEFCA2
:101E00007B68DBB21900082001F0B8FC064B190012
:101E1000002003F0E3FFC046BD4603B090BDC046BE
:101E2000D411002080844E400C94000090B585B001
:101E300000AF39601100FB1D021C1A703B1D0A1C0B
:101E40001A800E23FB1800221A803B681800FFF747
:101E5000B3FF052001F0DCFB0120FFF769FA0E2338
:101E6000FC18FB1D1B78180001F05CFB03002380AD
:101E700001F02AF80E23FA183B1D0021525E0021C2
:101E80005B5E9A4201DD002300E001231800BD469D
:101E900005B090BD80B582B000AF00233B60FF214C
:101EA000112001F06BFC052001F0B2FBFB1D0022AC
:101EB0001A7015E00120FFF73BFA2C2001F072FCAC
:101EC00003001A0001231A40FB1D1B789A401300DF
:101ED0003A6813433B60FB1D1A78FB1D01321A70F0
:101EE000FB1D1B781F2BE5D900F0EEFF3B681800A7
:101EF000BD4602B080BDC04690B583B000AF374B41
:101F00001900002003F06AFFFC1D092001F04AFCC3
:101F100003002370062001F045FC03001C04072089
:101F200001F040FC03001B021C43082001F03AFCB6
:101F300003002343180006F0E1FD0022284B05F0C2
:101F400097FF03000C001800210004F063FF03005A
:101F50003B600021092001F011FC3B2001F022FC34
:101F600003001A0040231343DBB219003B2001F0A9
:101F700005FCC0463B2001F015FC03001A0020239D
:101F80001340F7D1174B1800FFF716FF3B2001F065
:101F900009FC03001A0040231343DBB219003B2065
:101FA00001F0ECFBC0463B2001F0FCFB03001A00F3
:101FB00020231340F7D1FB1D1B781900092001F0E5
:101FC000DDFB3B681800FFF7F7FE074B1900002008
:101FD00003F004FFC046BD4603B090BD1C94000052
:101FE00080844E4000A1BC333494000080B584B09E
:101FF00000AF78600F23FB1800221A7022E00F2335
:10200000FB181A78144BD200D2587B689A4212D827
:102010000F23FB181B785A1C0F4BD200D2587B6839
:102020009A4208D90F23FB181B780B4ADB00D31800
:1020300004331B780CE00F23FB181A780F23FB18CE
:1020400001321A700F23FB181B78142BD7D9FEE727
:102050001800BD4604B080BD0892000090B585B060
:1020600000AFB9607A6019000F23FB18021C1A70C8
:102070000E23FB180A1C1A700F23FB181B7818007C
:1020800001F012FB0F23FB181A78E44B1900002013
:1020900004F080FB0F23FB181B78002B03D0012BCF
:1020A00000D1A9E0F1E1DE4BBA685A63DC4B7A68F3
:1020B000DA63DB4B3A6A9A63D94B2C22BA18422175
:1020C00012785A54D64B3022BA18432112785A54F7
:1020D000D34B3422BA18442112785A54D04B2022C0
:1020E00020218C46BC446244452112785A54CC4B82
:1020F000242220218C46BC446244462112785A5442
:10210000C74B2422BA18402112885A52786806F028
:10211000F5FC03000C001A0023000020C14905F063
:1021200083FA03000C001800210004F073FE030082
:102130009BB27B607B681B0ADBB21900022001F0B6
:102140001DFB7B68DBB21900032001F017FBBB68A5
:102150001800FFF74BFF03001900122001F00EFBDF
:102160003B6A1800FFF742FF03001900132001F03B
:1021700005FB2423FB181B881B0A9BB2DBB219004A
:10218000252001F0FBFA2423FB181B88DBB2190081
:10219000262001F0F3FA2C23FB181B78002B07D024
:1021A0003023FB181B781900322001F0E7FA03E016
:1021B000FF21322001F0E2FA302001F0F3FA0300AF
:1021C0005BB26F2213405AB22C23FB181B78002BF2
:1021D00001D0002301E080235B4213435AB2342331
:1021E000FB181B781B015BB213435BB2DBB2190017
:1021F000302001F0C3FA48E1BB68022B00D9FEE7AA
:10220000BB680733BB60864BBA681A66844B7A6832
:102210005A66834B0E22BA18692112785A54804BA1
:102220002422BA186A2112885A527D4B2C22BA18DD
:102230006C2112785A547A4B3022BA186D211278D8
:102240005A54774B3422BA186E2112785A54744B70
:102250003822BA186F2112785A54714B3C22BA189E
:10226000702112785A546E4B202220218C46BC4497
:102270006244712112785A54694B242220218C46E1
:10228000BC446244722112785A547B680C2B02D9E8
:102290000C237B6004E07B68052B01D806237B6060
:1022A000BB68072B05D17B680B2B08D07B680C2BF8
:1022B00005D0BB68082B07D17B680C2B04D1584B89
:1022C00068220121995403E0554B6822002199545A
:1022D0001D2001F067FABB68DBB21B01DAB20E23E6
:1022E000FB181B78DB18DBB21343DAB22C23FB1884
:1022F0001B781343DBB219001D2001F03FFA1E20AA
:1023000001F050FA03001A0008231340DAB27B6888
:10231000DBB21B01DBB21343DAB23423FB181B78A8
:102320009B00DBB21343DAB22823FB181B881B0A7D
:102330009BB2DBB203210B40DBB21343DBB21900CB
:102340001E2001F01BFA262001F02CFA03005BB2DC
:10235000082293435AB2324B68215B5CDB005BB2CC
:1023600013435BB2DBB21900262001F007FA2823E1
:10237000FB181B88DBB219001F2001F0FFF9242392
:10238000FB181B881B0A9BB2DBB21900202001F04E
:10239000F5F92423FB181B88DBB21900212001F07A
:1023A000EDF92C23FB181B78002B06D03023FB18EB
:1023B0001B781900222001F0E1F9194B6F229B5C78
:1023C000002B13D0442001F0EDF903001A00802304
:1023D0005B421343DBB21900442001F0CFF9104BEC
:1023E00070229B5C1900242001F0C8F9BB68092BFE
:1023F00008D10221362001F0C1F964213A2001F010
:10240000BDF915E0BB68092B0ED10221362001F081
:10241000B5F97F213A2001F0B1F909E050940000AC
:10242000D411002080847E410321362001F0A6F9DA
:102430007B68062B14D1312001F0B4F903005BB2A4
:10244000072293435BB2052213435BB2DBB2190050
:10245000312001F093F90C21372001F08FF913E0BE
:10246000312001F09FF903005BB2072293435BB276
:10247000032213435BB2DBB21900312001F07EF975
:102480000A21372001F07AF9C046044B19000020D8
:1024900003F0A4FCC046BD4605B090BD6C9400009E
:1024A00090B587B000AFBA607B600F23FB18021CA9
:1024B0001A700E23FB180A1C1A701723FB1800222F
:1024C0001A701623FB1800221A700F23FB181B78B2
:1024D000180001F0E9F80F23FB181A78E54B1900F2
:1024E000002004F057F91723FC18092001F05AF9CD
:1024F000030023701623FC184D2001F053F903004C
:1025000023701723FB181B785BB27F2213405CB249
:10251000D94B9B6A1800FFF7D7FB03005BB223433C
:102520005AB21723FB181A701723FB181722BA1870
:10253000127870210A431A701723FB181B785BB2BC
:10254000002B00DB76E00E23FB181B785BB2112B0F
:1025500008DD1623FB181622BA18127807210A4341
:102560001A700CE01623FB181B785BB2072293430A
:102570005BB2042213435AB21623FB181A701623B7
:10258000FB181B7807221340072B29D10E23FB18B9
:102590001B785BB2042B03DC0E23FB1805221A7098
:1025A0000E23FB181B785BB2142B03DD0E23FB18E4
:1025B00014221A701723FB181B785BB20F22934367
:1025C0005AB20E23FB181B78053BDBB25BB20F211E
:1025D0000B405BB213435AB21723FB181A7052E038
:1025E0000E23FB181B785BB2012B03DC0E23FB18B8
:1025F00002221A700E23FB181B785BB2112B03DD2D
:102600000E23FB1811221A701723FB181B785BB2DC
:102610000F2293435AB20E23FB181B78023BDBB206
:102620005BB20F210B405BB213435AB21723FB1866
:102630001A7028E00E23FB181B785BB2013303DA13
:102640000E23FB18FF221A700E23FB181B785BB2B7
:102650000E2B03DD0E23FB180E221A701723FB1816
:102660001B785BB20F2293435AB20E23FB181B78E0
:102670000133DBB25BB20F210B405BB213435AB2A2
:102680001723FB181A701723FB181B781900092051
:1026900001F074F81623FB181B7819004D2001F087
:1026A0006DF80F23FB181B78002B03D0012B00D1F2
:1026B0009AE0A0E1704B0E22BA182C2112785A54DD
:1026C0006D4BBA681A636C4B7A685A636A4BBA6A84
:1026D000DA63694B3022BA18402112885A52664B8D
:1026E0003422BA18422112785A54634B3822BA184D
:1026F000442112785A54604B4422BA18452112786A
:102700005A545D4BBA6C9A64B86806F0F7F9002227
:102710005A4B04F089FF03000C001800210004F05C
:1027200079FB03009BB2BB60BB681B0ADBB21900DC
:10273000042001F023F8BB68DBB21900052001F08A
:102740001DF8B86A06F0DAF903000C001A0023003D
:1027500000204B4904F068FF03000C001800210022
:1027600004F058FB03009BB2BB62BB6A1B0ADBB2DE
:102770001900022001F002F8BB6ADBB21900032045
:1027800000F0FCFF3023FB181B881B0A9BB2DBB256
:102790001900252000F0F2FF3023FB181B88DBB264
:1027A0001900262000F0EAFF302000F0FBFF0300B4
:1027B0005BB26F2213405AB23423FB181B78002BF4
:1027C00001D0002301E080235B4213435AB2382337
:1027D000FB181B781B015BB213435BB2DBB2190021
:1027E000302000F0CBFF06E1234B0E22BA185C210B
:1027F00012785A547B68022B00D9FEE77B680733B6
:102800007B601D4B7A681A661B4BBA6A5A661A4B74
:102810002C22BA18692112785A54174B3022BA1850
:102820006A2112885A52144B3422BA186C21127839
:102830005A54114B3C22BA186F2112785A540E4B3D
:102840004022BA18702112785A540B4B3822BA1809
:102850006E2112785A54084B4422BA18712112780A
:102860005A54054BBA6C5A67BB6A0C2B0AD90C2315
:10287000BB620CE084940000D411002080844E40A0
:1028800080847E41BB6A052B01D80623BB627B682E
:10289000072B05D1BB6A0B2B08D0BB6A0C2B05D0CC
:1028A0007B68082B07D1BB6A0C2B04D1564B6822DE
:1028B0000121995403E0544B682200219954524B52
:1028C0006F229B5C002B13D0442000F06BFF0300B1
:1028D0001A0080235B421343DBB21900442000F04E
:1028E0004DFF494B70229B5C1900242000F046FFED
:1028F0001D2000F057FF7B68DBB21B01DAB22C23EE
:10290000FB181B78DB18DBB21343DAB23423FB1855
:102910001B781343DBB219001D2000F02FFF1E208F
:1029200000F040FF03001A000B231340DAB2BB6A29
:10293000DBB21B01DBB21343DAB23823FB181B787E
:102940009B00DBB21343DBB219001E2000F016FF20
:10295000262000F027FF03005BB2082293435AB2FF
:10296000294B68215B5CDB005BB213435BB2DBB2DB
:102970001900262000F002FF3023FB181B881B0AD9
:102980009BB2DBB21900202000F0F8FE3023FB18C8
:102990001B88DBB21900212000F0F0FEBB6A062B79
:1029A00014D1312000F0FEFE03005BB207229343F6
:1029B0005BB2052213435BB2DBB21900312000F099
:1029C000DDFE0C21372000F0D9FE13E0312000F0AD
:1029D000E9FE03005BB2072293435BB20322134379
:1029E0005BB2DBB21900312000F0C8FE0A213720AB
:1029F00000F0C4FEC046054B1900002003F0EEF9BC
:102A0000C046BD4607B090BDD4110020A094000080
:102A1000F0B595B000AF0200FB1D1A70BB1D0A1C7B
:102A20001A700023FB64FB1D1B78002B03D0012BC5
:102A300000D187E065E1B54B40229B5A1C0027205E
:102A400000F0B0FE03001A00F8239A43130001338C
:102A5000E318180006F010F8AC4B42229B5C002BE8
:102A600002D00023002401E00023A94C1A00230017
:102A700004F0AEFA03000C001D002600302000F028
:102A800091FE03001A00F9239A43131E02D000237B
:102A90009F4C01E0002300241A002300280031008D
:102AA00004F096FA03000C0025001C00BB1D1B78E7
:102AB000180005F0E1FF02000B002000290004F0DF
:102AC00087FA03000C0018002100904B44229B5C05
:102AD000002B03D000238024E40501E00023002420
:102AE0001A00230004F074FA03000C0018002100FF
:102AF0000022884B05F0BCF903000C0025001C00E7
:102B0000824BDB6B180005F0F9FF02000B00200080
:102B1000290004F089FD03000C00180021000022A8
:102B20007D4B05F0A5F903000C001800210004F00E
:102B300033F803000C001800210004F06BF90300C7
:102B4000FB64DEE0002300243B647C646F4B1B6E5F
:102B5000082B08D0092B0BD0072B0ED100236F4C6C
:102B60003B647C6409E000236D4C3B647C6404E0BE
:102B700000236C4C3B647C64C046644B5B6E01225A
:102B80009A401300180005F077FF03000C001A00AC
:102B90002300386C796C04F047FD03000C00BB6324
:102BA000FC63BA6BFB6B0020594904F03DFD030048
:102BB0000C003B637C63554B6A229B5A180005F05E
:102BC0005BFF0022584B04F003FA03000C001800CE
:102BD00021003A6B7B6B05F04BF903000C00BB62E4
:102BE000FC62BB1D1B78DB001A00484B5B6E9B0030
:102BF000D31A464A6E21525C12019A18434B6C213B
:102C00005B5C002B01D0142300E00023D31A1C339B
:102C1000180005F073FF04000D003C4B5B6E9A003A
:102C20003A4B68215B5C002B01DD022300E00023AE
:102C3000D31A180005F062FF02000B0020002900E3
:102C400004F0F2FC03000C001800210003F076FEF3
:102C500004000D002D4B69229B5C0433180005F025
:102C60000BFF02000B002000290005F001F9030012
:102C70000C003B627C6200220023386A796A04F00F
:102C800095F8031E08D00022224B386A796A04F0B6
:102C90009FF903000C0001E000231E4CBB61FC61A6
:102CA0003A6B7B6BB869F96905F0E2F803000C0038
:102CB0003B617C613A697B69B86AF96A04F088F91A
:102CC00003000C00BB60FC600022134BB868F9687D
:102CD00005F0CEF803000C0018002100134A144B35
:102CE00004F076F903000C001800210003F0BCFE8C
:102CF00003000C001800210004F08CF80300FB64B2
:102D0000C046FB6C1800BD4615B0F0BDD4110020C4
:102D10000000F03F0000204080842E418084FE406F
:102D200080840E4180841E41000011402B8716D9FB
:102D3000CEF7EF3F80B584B000AF78600A00FB1C8F
:102D40001A700023FB605D4B1900002003F046F869
:102D50005B4B25229B5C002B02D0012B48D0A4E0CA
:102D6000574B582200219952FB1C1B7899B2544BA7
:102D700056229952524B42229B5C01225340DBB2B5
:102D8000002B05D0FB1C0121180000F0B7FD05E069
:102D9000FB1C1B781900322000F0F0FCFB1C1B7898
:102DA000002B09D0FB1C1B78402B05D8FB1C197885
:102DB000434B5B22995403E0414B5B222021995401
:102DC0003F4B5B229A5C7B681100180000F096FD77
:102DD0003B4B58229A5A3A4B5B215B5C9BB2D3180F
:102DE00099B2374B58229952354B9B6CFB605CE093
:102DF000334B71229B5C002B11D0332000F0D2FCAE
:102E000003001A0041239A431300DBB21900332058
:102E100000F0B4FC19213B2000F0B0FC13E033209B
:102E200000F0C0FC03005BB2412293435BB201227D
:102E300013435BB2DBB21900332000F09FFC1D216D
:102E40003B2000F09BFCFB1C19781D4B7C22995405
:102E5000FB1C1B781900222000F090FC00210E20A2
:102E600000F08CFC00210D2000F088FC012000F017
:102E700099FC03001A00F8239A43131E04D100F0B2
:102E800047F80120FEF754FAFB1C1A787B68110002
:102E9000180000F033FD0A4B5B6FFB60FA68094BCA
:102EA0001900002003F076FCC046FB68180000F013
:102EB0006FFAC046BD4604B080BDC046B89400005D
:102EC000D4110020CC94000080B500AF0C4B190049
:102ED000002002F083FF0B4B1B68180002F046FB3A
:102EE000094B1B68180002F041FB002000F090FB2A
:102EF000064B242200219954C046BD4680BDC046E1
:102F0000F49400006C11002070110020D4110020F6
:102F100080B500AF094B1B68180002F027FB084B77
:102F20001B68180002F022FB012000F071FB054B2A
:102F3000242200219954C046BD4680BD6C1100205A
:102F400070110020D4110020F0B587B000AFF860F8
:102F50000F2308229446BC44634400221A70E94BB4
:102F60001900002002F03AFFE74B25229B5C002B62
:102F700002D0012B42D06FE10F2308229446BC44BB
:102F80006344E14A4621525C1A70402000F00AFC7A
:102F900003005BB2032213405BB20C2213435BB20B
:102FA000DBB21900402000F0E9FB412000F0FAFB01
:102FB00003001A003F235B421343DBB21900412098
:102FC00000F0DCFB352000F0EDFB03001A003F238E
:102FD0001340D9B2CC4B5A229954CB4B4C220021EE
:102FE0009954C94B4D2200219954C74B58220021B6
:102FF0009952C54B5622002199522DE1C24B7122A4
:103000009B5C002B10D0332000F0CCFB03001A0097
:1030100041231343DBB21900332000F0AFFB192129
:103020003B2000F0ABFB13E0332000F0BBFB0300C0
:103030005BB2412293435BB2012213435BB2DBB22A
:103040001900332000F09AFB1D213B2000F096FB75
:10305000AD4B1B6E082B00D9B9E0312000F0A2FB6C
:1030600003001A007F231340DBB21900312000F067
:1030700085FB0021302000F081FBA34B1B6E082B49
:1030800000D9B1E09A00A14BD3181B689F46482194
:103090002F2000F073FB9C4B9B6A180005F02EFD5F
:1030A00000229B4B03F094FF02000B00100019005C
:1030B00003F0B0FE03001800FEF77EFE94E044210A
:1030C0002F2000F05BFB904B9B6A180005F016FD6B
:1030D0000022904B03F07CFF02000B00100019004F
:1030E00003F098FE03001800FEF766FE7CE0442122
:1030F0002F2000F043FB844B9B6A180005F0FEFC78
:103100000022854B03F064FF02000B001000190041
:1031100003F080FE03001800FEF74EFE64E0442139
:103120002F2000F02BFB784B9B6A180005F0E6FC83
:1031300000227A4B03F04CFF02000B001000190034
:1031400003F068FE03001800FEF736FE4CE0442151
:103150002F2000F013FB6C4B9B6A180005F0CEFC8F
:1031600000226F4B03F034FF02000B001000190027
:1031700003F050FE03001800FEF71EFE34E0442169
:103180002F2000F0FBFA604B9B6A180005F0B6FC9C
:103190000022644B03F01CFF02000B00100019001A
:1031A00003F038FE03001800FEF706FE1CE0402185
:1031B0002F2000F0E3FA17E040212F2000F0DEFA84
:1031C00012E040212F2000F0D9FAC0460CE0312057
:1031D00000F0E8FA03001A0080235B421343DBB2DD
:1031E0001900312000F0CAFA0F2308229446BC448B
:1031F0006344454A7221525C1A70434B6F229B5CB8
:10320000002B10D01D21112000F0B8FA402000F052
:10321000C9FA03001A0033231340DBB2190040201F
:1032200000F0ACFA0FE01F21112000F0A7FA4020B7
:1032300000F0B8FA03001A003F231340DBB2190074
:10324000402000F09BFA00210F2000F097FA0021A7
:103250000D2000F093FAC04680235A00324B002123
:10326000180005F01FFD284B2422012199542F4BF3
:103270001900002002F0B2FD234B24229B5C1A00AF
:103280002B4B1900002003F085FAFB68002B27D098
:10329000FA68284B1900002003F07CFA264B1E68C0
:1032A000FB683B6000237B6039687A680B005B0C2D
:1032B0001000C5031D430B00DC03FA22520000235B
:1032C0002000290080185941FA229200002303F0BF
:1032D00081FD03000C0000221900300002F0FEF80E
:1032E000094B25229B5C1A00144B1900002003F0A7
:1032F00051FA054B25229B5C002B21D1052000F0C3
:1033000087F93EE008950000D41100209C9500004C
:103310000082BE40005AC4400082CE408057D44054
:103320008084DE40C058E4401C0C0020189500004A
:1033300028950000489500006C1100206895000059
:103340000F2308229446BC4463441A780F4B19009B
:10335000002003F01FFA0F2308229446BC44634464
:1033600001221A700F2308229446BC4463441B7840
:10337000002B03D0052000F04BF902E0062000F0FE
:1033800047F9C046BD4607B0F0BDC046889500006D
:10339000F0B585B000AFF8604B4B25229B5C002B4D
:1033A00002D0012B28D056E0402000F0FBF90300AA
:1033B0005BB2032213405BB2102213435BB2DBB259
:1033C0001900402000F0DAF9412000F0EBF9030089
:1033D0001A003E231340DBB21900412000F0CEF961
:1033E000352000F0DFF903001A003F231340D9B263
:1033F000354B5A2299542EE0334B6F229B5C002BA5
:1034000014D0F521112000F0B9F9402000F0CAF9DC
:1034100003005BB2332213405BB2402213435BB222
:10342000DBB21900402000F0A9F913E0F7211120C8
:1034300000F0A4F9402000F0B5F903005BB23F2290
:1034400013405BB2402213435BB2DBB21900402051
:1034500000F094F9C0461C4B2422022199541B4BC6
:103460001B68180002F082F8FA68194B1900002056
:1034700003F090F9154B1E68FB683B6000237B60EE
:1034800039687A680B005B0C1000C5031D430B0004
:10349000DC03FA2252000023200029008018594141
:1034A000FA229200002303F095FC03000C00002296
:1034B0001900300002F012F8032000F0A9F8C0460D
:1034C000BD4605B0F0BDC046D411002070110020EB
:1034D000C095000080B500AF114B25229B5C002BEE
:1034E0001AD0012B00D018E0FA21112000F046F983
:1034F000402000F057F903001A003F231340DBB2CD
:103500001900402000F03AF9054B24220321995478
:10351000072000F07DF800E0C046C046BD4680BDF3
:10352000D411002080B584B000AF0200FB1D1A70DA
:103530000E23FB1800221A80FB1D1B78002B02D0E3
:10354000012B0DD027E0112000F02CF903005B08BF
:10355000DBB29BB25B429AB20E23FB181A8020E0CA
:10356000144B9B6A144A93420AD91B2000F01AF9A3
:1035700003009BB29D3B9AB20E23FB181A8010E009
:103580001B2000F00FF903009BB2A43B9AB20E235C
:10359000FB181A8005E00E23FB18012252421A8004
:1035A000C0460E23FB1800229B5E1800BD4604B0E7
:1035B00080BDC046D411002040DD4A1F80B500AF59
:1035C000114B1900002002F009FC104B1B68180079
:1035D000FEF740F90D4B1B681800FEF771F901204A
:1035E000FDF7A6FE094B1B6800211800FEF742F903
:1035F000064B1B681800FEF753F90620FDF798FEEE
:10360000C046BD4680BDC046D8950000D4110020FC
:1036100080B582B000AF0200FB1D1A701F4B1B78F3
:10362000FA1D12789A4235D01C4BFA1D12781A7086
:10363000FB1D1B78002B03D10120FEF73BFB17E09D
:103640000020FEF737FBFB1D1B78032B08D1144B22
:103650001900002002F0C2FB0120FEF7F5FA07E096
:10366000104B1900002002F0B9FB0020FEF7ECFA25
:10367000012000F097F803005BB2072293435AB28F
:10368000FB1D1B785BB213435BB2DBB21900012058
:1036900000F074F8C046BD4602B080BD14000020A2
:1036A000E89500000096000080B582B000AF0200EF
:1036B000FB1D1A702D4BDB69002B00D1FEE72B4B55
:1036C00025229B5CFA1D12789A424AD0284B190099
:1036D000002002F083FB254BFA1D252112785A5455
:1036E000224B25229B5C012B1CD0224B1900002071
:1036F00002F074FB0020FFF78BFF012000F052F86E
:1037000003001A007F231340DBB21900012000F0F0
:1037100035F80021402000F031F83021412000F040
:103720002DF81FE0144B1900002002F057FB002079
:10373000FFF76EFF012000F035F803001A00802328
:103740005B421343DBB21900012000F017F800219F
:10375000402000F013F80021412000F00FF8C0468F
:1037600000E0C046BD4602B080BDC046D411002076
:103770001C9600002C9600004096000080B582B098
:1037800000AF0200FB1D1A70BB1D0A1C1A70B91D88
:10379000FB1D1B780122180000F01AF8C046BD4638
:1037A00002B080BD80B584B000AF0200FB1D1A706E
:1037B0000F23F918FB1D1B780122180000F054F8A4
:1037C0000F23FB181B781800BD4604B080BDC0460F
:1037D00080B584B000AF39601100FB1D021C1A7067
:1037E000BB1D0A1C1A700620FEF76AF8FB1D1B7829
:1037F000802252421343DAB2194B1A700F23FB187E
:1038000000221A7012E00F23FB181B7801330F22DD
:10381000BA18127839688A181178114AD1540F23CE
:10382000FB181A780F23FB1801321A700F23FB18AC
:103830001A78BB1D1B7801339A42E4DBBB1D1B7851
:103840009BB201339AB20749054B1800FEF73AF9CB
:103850000620FEF725F8C046BD4604B080BDC04630
:10386000540B0020B80B002080B584B000AF396045
:103870001100FB1D021C1A70BB1D0A1C1A700620C9
:10388000FEF71EF8FB1D1B787F221340DAB2194B9E
:103890001A70BB1D1B789BB201339AB21649154BA7
:1038A0001800FEF70FF90F23FB1800221A7012E020
:1038B0000F23FB181B783A68D3180F22BA18127816
:1038C00001320D498A5C1A700F23FB181A780F23F6
:1038D000FB1801321A700F23FA18BB1D12781B78DF
:1038E0009A42E5D30620FDF7DBFFC046BD4604B093
:1038F00080BDC046540B0020B80B002080B582B0BC
:1039000000AF78600A00FB1C1A70FB1C1A787B68F9
:1039100019000020FFF75CFFC046BD4602B080BD25
:1039200080B582B000AF78600A00FB1C1A70FB1CE7
:103930001A787B6819000020FFF796FFC046BD4645
:1039400002B080BD80B582B000AF0200FB1D1A70CE
:10395000BB1D0A1C1A70FB1D1B78002B02D0012B0B
:103960000FD016E00D4B42229B5C01225340DBB28C
:10397000002B0DD0BB1D1B7819003220FFF7FEFE77
:1039800006E0BB1D1B7819002320FFF7F7FE00E0BF
:10399000C046C046BD4602B080BDC046D41100201E
:1039A00080B582B000AF7860344B1900002002F07F
:1039B00015FA334B24229B5C012B02D0022B40D002
:1039C00053E0304B1900002002F008FA2C4B25225E
:1039D0009B5C002B2DD12A4B4C2200219954284B63
:1039E0004D2200219954264B582200219952244BF4
:1039F0005622002199520B213E20FFF7BFFE1021D5
:103A00003F20FFF7BBFE1E4B46229B5C002B0CD0D9
:103A10000D20FFF7C7FE03001A0040231343DBB25B
:103A200019000D20FFF7AAFE03E0154B2422002108
:103A30009954154BDB68002B14D0134BDB68984767
:103A400010E0124B1900002002F0C8F90C4B2422A0
:103A5000002199540C4B5B68002B05D00A4B5B6826
:103A6000984701E0C04600E0C046094B190000201D
:103A700002F0B4F9C046BD4602B080BD58960000C1
:103A8000D411002070960000741100208096000070
:103A900090960000B0B584B000AF78600A00BB1CFF
:103AA0001A800B23FB1800221A70DB4B1900002030
:103AB00002F094F9D94B24229B5C1A00D84B1900D0
:103AC000002002F067FED54B24229B5C012B03D023
:103AD000022B00D12BE24FE2D24B1900002002F062
:103AE0007DF9CE4B25229B5C002B03D0012B00D10E
:103AF000E5E01BE2C94B44229B5C002B4DD03F20EC
:103B0000FFF750FE03001A000B23FB181A700B235B
:103B1000FB181B78DBB21A00022313403DD10B21A6
:103B20003E20FFF72BFE10213F20FFF727FEBB4B67
:103B300046229B5C01225340DBB2002B04D0B74BE2
:103B40002422002199540BE00D20FFF72BFE0300E7
:103B50001A0040231343DBB219000D20FFF70EFEBD
:103B6000B14B1B68180001F001FDB04B1B69002B25
:103B700002D0AE4B1B699847A84B4C2200219954A8
:103B8000A64B4D2200219954A44B58220021995252
:103B9000A24B562200219952C8E1A04B56229B5AB3
:103BA000002B34D19D4B58229B5A002B2FD19B4B7D
:103BB00042229B5C01225340DBB2002B05D09C4B80
:103BC00001211800FFF7ACFE07E03220FFF7EAFD05
:103BD000030099B2914B56229952904B58229B5A0E
:103BE0001A00944BD0188D4B56229B5ADAB28B4B4D
:103BF00058215B5ADBB2D31ADBB21900FFF790FEF3
:103C0000864B5622995A854B5822995218E0834B7D
:103C100058229B5A1A00874BD018804B56229B5A29
:103C2000DAB27E4B58215B5ADBB2D31ADBB21900F1
:103C3000FFF776FE794B5622995A784B58229952C3
:103C4000764B46229B5C01225340DBB2002B04D012
:103C5000724B2422002199540BE00D20FFF7A2FDA6
:103C600003001A0040231343DBB219000D20FFF7B5
:103C700085FD6D4B1B68180001F078FC6B4B9B6851
:103C8000002B0BD0694B9C68644B5622995A634BAE
:103C90004E229B561AB267480023A0475F4B4C2226
:103CA000002199545D4B4D22002199545B4B5822C1
:103CB00000219952594B56220021995236E10F2387
:103CC000FB1800221A705C4B1900002002F086F8E5
:103CD00040211220FFF752FD1220FFF763FD030081
:103CE0001A000B23FB181A700B23FB181B78DBB28E
:103CF0001A00202313401DD020211220FFF73EFD83
:103D0000464B72229B5C01225340DBB2002B03D056
:103D1000424B242200219954434B1B68180001F0A8
:103D200025FC424B1B69002B00D1FCE03F4B1B697B
:103D30009847F8E01920FFF735FD030059B2374BDB
:103D400078229954354B78229B56002B13DA334B4B
:103D500078229B565B429B105AB20F23FB183F21DF
:103D60000A401A700F23FB181B785B42DAB20F234C
:103D7000FB181A7009E0294B78229B569B105AB207
:103D80000F23FB183F210A401A701A20FFF70AFD83
:103D900003001A000C23FB181A800F23FB181B7852
:103DA0007F2B4DD91D4B9B6A244A934219D90C2372
:103DB000FB1800229B5E1B111BB29AB20C23FB184E
:103DC0001B88D3189AB20F23FB181B785BB29BB2E7
:103DD000D3189BB29D3B9BB219B2104B7A229952D9
:103DE00058E00C23FB1800229B5E1B111BB29AB2F9
:103DF0000C23FB181B88D3189AB20F23FB181B78CF
:103E00005BB29BB2D3189BB2A43B9BB219B2034BDB
:103E10007A2299523EE0C046A4960000D4110020B8
:103E2000C0960000D09600006C1100207411002094
:103E30002A1200201C0C0020EC96000040DD4A1FD6
:103E4000524B9B6A524A934212D90C23FB18002210
:103E50009B5E1B111BB29AB20C23FB181B88D31854
:103E60009BB29D3B9BB219B2484B7A22995211E00A
:103E70000C23FB1800229B5E1B111BB29AB20C2371
:103E8000FB181B88D3189BB2A43B9BB219B23F4BC3
:103E90007A2299521320FFF785FC030019003B4B4F
:103EA0007C229954394B7C229A5C3A4B11001800C1
:103EB000FFF736FD384B1900002001F08FFF374B1C
:103EC0001900002001F08AFF324B0A211800FDF78B
:103ED00023FE334B1900002001F080FF2B4B722290
:103EE0009B5C01225340DBB2002B03D0274B2422E2
:103EF000002199542B4B1B68180001F037FB2A4B0B
:103F00009B68002B11D0284B9C68204B7C229B5C2B
:103F100099B21E4B7A229D5E1C4B78229B561D48FF
:103F20002A00A04701E0C04626E0C04624E01F4B1F
:103F30001B68180001F01AFB1D4B1900002001F04E
:103F40004DFF124B25229B5C012B03D1082112202F
:103F5000FFF714FC0D4B242200219954124B1B68CF
:103F6000002B07D0104B1B689847124B19000020FC
:103F700001F034FFC046C0460F4B1900002001F08D
:103F80002DFFC046BD4604B0B0BDC046D4110020D0
:103F900040DD4A1F1C0C00200C97000030970000E9
:103FA000389700006C11002074110020701100205F
:103FB0003C970000589700007497000080B582B0CD
:103FC00000AF78600A00BB1C1A80754B19000020F6
:103FD00001F004FF734B24229B5C012B03D0022BC6
:103FE00000D184E0D7E0704B1900002001F0F6FE0C
:103FF0006C4B25229B5C002B02D0012B60D075E01E
:10400000684B56229B5A002B1AD1664B58229B5A5A
:10401000002B15D1634B42229B5C01225340DBB243
:10402000002B05D0614B01211800FFF779FC07E058
:104030003220FFF7B7FB030099B25A4B5622995230
:10404000584B56229B5A1900564B58229B5ACB1A52
:10405000544A5A21525C934218DD524B58229B5AC3
:104060001A00534BD0184F4B5A229B5C1900FFF794
:1040700057FC4C4B58229A5A4A4B5A215B5C9BB2D4
:10408000D31899B2474B582299522FE0454B5822EA
:104090009B5A1A00464BD018424B56229B5ADAB212
:1040A000404B58215B5ADBB2D31ADBB21900FFF741
:1040B00037FC3C4B5622995A3A4B5822995215E0FC
:1040C0003C4B1900002001F089FE3B4B1B68180097
:1040D00001F04CFA334B242200219954374BDB6812
:1040E000002B02D0354BDB689847C04653E0344B79
:1040F0001900002001F072FE2A4B25229B5C002B48
:1041000002D0012B40D045E0264B56229B5A190085
:10411000244B58229B5ACB1A224A5B21525C934271
:1041200018DD204B58229B5A1A00214BD0181D4BEA
:104130005B229B5C1900FFF7E1FB1A4B58229A5A4D
:10414000184B5B215B5C9BB2D31899B2154B58227C
:1041500099521FE0134B58229B5A1A00144BD01847
:10416000104B56229B5ADAB20E4B58215B5ADBB2E7
:10417000D31ADBB21900FFF7C1FB0A4B5622995A3A
:10418000084B5822995205E00A4B1900002001F013
:1041900025FEC046C046C046BD4602B080BDC046F2
:1041A00084970000D4110020A09700002A1200205C
:1041B0001C0C0020C09700006C110020741100201E
:1041C000DC97000090B583B000AF78600A00BB1C9C
:1041D0001A80404B24229B5C012B02D0022B5ED024
:1041E00073E03C4B25229B5C002B02D0012B48D076
:1041F00054E0384B4C229B5C012B4CD1354B4D226B
:104200009B5C002B47D1334B4D2201219954112047
:10421000FFF7C8FA03005B08DBB25B42DBB259B2BE
:104220002C4B4E2299541B20FFF7BCFA03001C02B2
:104230001C20FFF7B7FA03002343180004F01CFC0E
:1042400003000C001800210004F0E0FB030018003C
:1042500004F012FC0022204B03F00AFE03000C00C5
:104260001800210004F0D2FB02001A4B1A650C2042
:10427000FFF798FA03005B09D9B2164B5422995400
:1042800009E0144B6F229B5C002B06D00221122008
:10429000FFF774FA01E0C04617E0C04615E00D4B89
:1042A00025229B5C002B0CD0012B00D00CE0094B8D
:1042B0006F229B5C002B06D002211220FFF75EFAD2
:1042C00001E0C04600E0C046C046C046BD4603B05F
:1042D00090BDC046D411002080844E4080B582B08D
:1042E00000AF78600A00BB1C1A800F4B25229B5C34
:1042F000002B14D0012B00D012E01220FFF752FA4D
:1043000003001A000123134004D005211220FFF7F7
:1043100035FA05E004211220FFF730FA00E0C0462C
:10432000C046BD4602B080BDD411002080B582B029
:1043300000AF78600A00BB1C1A800C4B25229B5CE6
:10434000002B02D0012B0AD00CE0084B4C229B5CC6
:10435000002B06D1054B4C220121995401E0C046A7
:1043600000E0C046C046BD4602B080BDD41100206A
:1043700080B582B000AF78600A00BB1C1A80074B82
:1043800025229B5C002B02D0012B02D002E0C0460C
:1043900000E0C046C046BD4602B080BDD41100203A
:1043A00080B500AF01F02AFBC046BD4680BDC046C7
:1043B00080B582B000AF786001231800BD4602B01E
:1043C00080BDC04680B582B000AF78607B680322B4
:1043D00013405A425341DBB21800BD4602B080BDC3
:1043E00080B582B000AF0200FB1D1A70064BFA1DAB
:1043F000127811001F220A40012191400A001A6020
:10440000C046BD4602B080BD00E100E080B582B08C
:1044100000AF0200FB1D1A70074AFB1D1B78190034
:104420001F230B40012199400B0019008023D1501C
:10443000C046BD4602B080BD00E100E080B582B05C
:1044400000AF0200FB1D1A70084AFB1D1B78190003
:104450001F230B40012199400B00190080235B00B2
:10446000D150C046BD4602B080BDC04600E100E06C
:1044700080B582B000AF0200FB1D1A70084AFB1D18
:104480001B7819001F230B40012199400B001900D4
:10449000C0235B00D150C046BD4602B080BDC046BF
:1044A00000E100E0B0B582B000AF02003960FB1D52
:1044B0001A70FB1D1B787F2B32D92F4CFB1D1B78EC
:1044C0001A000F231340083B99082B4AFB1D1B7849
:1044D00018000F230340083B9B0806339B00D318AA
:1044E00004331B68FA1D1278100003220240D20028
:1044F000FF2090400200D2431A403B689B01FF20FE
:104500001840FB1D1B781D0003232B40DB00984047
:1045100003001A438B1D9B00E31804331A6027E045
:10452000164CFB1D1B785BB29B081449FA1D1278D0
:1045300052B29208C03292005258F91D0978080010
:1045400003210140C900FF2088400100C9431140F8
:104550003A689201FF201040FA1D127815000322DC
:104560002A40D200904002000A43C0339B001A51F7
:10457000C046BD4602B0B0BD00ED00E000E100E085
:1045800080B582B000AF0200FB1D1A70FB1D1B78C6
:104590007F2B18D9174AFB1D1B7819000F230B40DE
:1045A000083B9B0806339B00D31804331A68FB1D95
:1045B0001B78190003230B40DB00DA401300FF22B5
:1045C00013409B0912E00C4AFB1D1B785BB29B0851
:1045D000C0339B009A58FB1D1B78190003230B4026
:1045E000DB00DA401300FF2213409B091800BD4690
:1045F00002B080BD00ED00E000E100E080B582B0D7
:1046000000AF7860C046C046C046C046C046C046FF
:10461000C046C046C046C046C046C046C046C0466A
:104620007B68013B7B60002BECD1C046BD4602B0ED
:1046300080BDC04680B582B000AF0C4B5B68DB0527
:10464000DB0D7B607B68002B0AD07B68103B3B60F6
:104650003B685BB21800FFF793FF0300DBB200E09A
:1046600004231800BD4602B080BDC04600ED00E046
:1046700080B582B000AF78600649A123DB007A687C
:10468000CA5003211120FFF70DFFC046BD4602B0FE
:1046900080BDC0460010014080B500AF0E49D12357
:1046A0009B0080225202CA500B49C1239B008022EA
:1046B0005202CA501120FFF7DBFE1120FFF790FED7
:1046C000054B01221A602F20FFF798FF034B0122B0
:1046D0001A70C046BD4680BD00100140440D002048
:1046E00080B500AF1120FFF791FE1049D2239B0047
:1046F00080225202CA500D49C2239B0080225202DE
:10470000CA500A4B01225A602F20FFF777FF074B50
:1047100001229A60064B00221A602F20FFF76EFFDD
:10472000044B00221A70C046BD4680BD00100140F7
:10473000300D0020440D002080B500AF024A034B2D
:10474000D3581800BD4680BD00100140040500008C
:1047500080B582B000AF786039607A683B68D31A60
:104760001B021B0A1800BD4602B080BD80B582B096
:1047700000AF78600449A823DB007A68CA50C046BD
:10478000BD4602B080BDC0460010014080B586B075
:1047900000AF78604C4B19687A681300DB009B18F7
:1047A0009B00CB18BB60494B1B68013303D1474BBF
:1047B0007A681A6084E0BB685968434B1868434BB9
:1047C0001A681300DB009B189B00C3185B689942B2
:1047D0001ED83D4B19683D4B1A681300DB009B182F
:1047E0009B00CA18384B1868384B19680B00DB005F
:1047F0005B189B00C3185968BB685B68CB1A536091
:10480000324B1A68BB681A62304B7A681A6057E0FC
:10481000BB685B68FB602D4B1B687B612B4B1B6887
:104820003B6117E0284B19683A691300DB009B18BD
:104830009B00CB185B68FA68D31AFB603B697B610D
:10484000214B19683A691300DB009B189B00CB18B9
:104850001B6A3B613B6901330BD01B4B19683A69FA
:104860001300DB009B189B00CB185A68FB689A4228
:10487000D8D33B69013313D0134B19683A6913003D
:10488000DB009B189B00CA180F4B186839690B0096
:10489000DB005B189B00C3185968FB68CB1A536098
:1048A000BB68FA685A60BB683A691A62064B1968B5
:1048B0007A691300DB009B189B00CB187A681A6298
:1048C000C046BD4606B080BD200D00202C0D002046
:1048D00080B586B000AF78603A4B1B687B617B691E
:1048E0003B610FE03A697B689A420FD03B697B617C
:1048F000354B19683A691300DB009B189B00CB18F5
:104900001B6A3B613B690133ECD100E0C0463B6967
:10491000013353D07A693B699A4211D12A4B196805
:10492000284B1A681300DB009B189B00CB181A6AEF
:10493000244B1A60234B1B68013301D1FFF7D0FED3
:10494000214B19683A691300DB009B189B00CB18B8
:104950005B68FB601C4B19687A691300DB009B18CD
:104960009B00CA18184B186839690B00DB005B18EC
:104970009B00C3181B6A1362134B19687A691300F2
:10498000DB009B189B00CB181B6A3B613B69013322
:1049900015D00D4B19683A691300DB009B189B007A
:1049A000CA18094B186839690B00DB005B189B00BB
:1049B000C3185968FB68CB18536000E0C046BD4679
:1049C00006B080BD2C0D0020200D002080B500AF6A
:1049D0001120FFF733FDC046BD4680BD80B500AF56
:1049E0001420FFF72BFDC046BD4680BD80B584B0C6
:1049F00000AF7860124B1B68002B17D0104B1A6861
:104A00007B6898697B68DB69190090470300FB604D
:104A1000FB68BB60BB68002B0ED00A4A6423FF33DF
:104A20001900BB681800FBF7FBFB05E07B689A697F
:104A30007B68DB6918009047C046BD4604B080BD66
:104A4000400D0020FC97000080B584B000AF2C4BD7
:104A50001B68013350D000237B60FFF76DFE02001E
:104A6000284B1B6819001000FFF772FE0300BB60A3
:104A7000234B1B68FB601EE0234B1968FA68130088
:104A8000DB009B189B00CB183B603B685A68BB68F7
:104A90009A4214D83B685B68BA68D31ABB603B681B
:104AA0005B687A68D3187B603B681B6AFB603B6875
:104AB0001800FFF79BFFFB680133DDD100E0C04623
:104AC000124B1A78124B1B789A420CD1104B1B7860
:104AD0000133DAB20E4B1A700D4B1B78022B02D148
:104AE0000B4B00221A700A4B1B781A00094B9200DC
:104AF0007968D150FFF772FFC046BD4604B080BD53
:104B00002C0D0020300D0020200D00203C0D002039
:104B10003D0D0020340D002080B582B000AF7860DC
:104B2000184B1A78184B1B789A4223D0154B1B78D8
:104B30000133DAB2134B1A70124B1B78022B02D1DD
:104B4000104B00221A700F4B1B781A000F4B92006B
:104B5000D2587B681A607B681A680D4B1B68D218A4
:104B60000B4B1A600A4B1B681B021A0A084B1A608F
:104B7000012303E07B6800221A6000231800BD4671
:104B800002B080BD3C0D00203D0D0020340D002002
:104B9000300D002080B586B000AF424B1B683B61F2
:104BA0001723FB18404A12781A7066E03F4B1A68C8
:104BB0001723FB181B78DB00D318FB601623FB18A8
:104BC000FA6812781A7051E0FB6859681623FB18CE
:104BD0001A7813005B009B18DB00CB18BB60162310
:104BE000FB181A781623FB1801321A70FB689B78A1
:104BF0001622BA1812789A4203D11623FB18002203
:104C00001A70BB681B78022B02D0032B28D02CE033
:104C1000274B1968BB685A681300DB009B189B0080
:104C2000CB187B607B681B7D002B1FD0BB685B684B
:104C30001800FFF74DFE7B6800221A7516E01C4B2A
:104C40001968184B1A681300DB009B189B00CB18DF
:104C50003B603B6800221A753B681A6A114B1A6068
:104C6000104B1B680133EAD100E0C046FB685B785B
:104C70001622BA1812789A42A6D11723FB181B786D
:104C80001722BA18591E1170002B8FD1054B1A68C4
:104C90003B69D31A5A1E9341DBB21800BD4606B0D9
:104CA00080BDC0462C0D0020240D0020280D0020C2
:104CB000200D002080B588B000AFF860B9607A6040
:104CC0000023FB6142E0254B1968254B1A6813004D
:104CD000DB009B189B00CB18BB61BB695A68FB6863
:104CE0009A4206D9BB695A68FB68D21ABB695A60F6
:104CF00030E0BB695B68FA68D31AFB60BB695B682C
:104D0000FA69D318FB61BB6900225A60BB690022B3
:104D10001A75134B1B687B61BB691A6A104B1A60CA
:104D2000BB691B69002B11D0BA68FB69D3181B0241
:104D30001A0ABB699A60BB691A69BB69DA607B6849
:104D40001A68BB691A627B687A691A60044B1B682F
:104D50000133B8D1C046BD4608B080BD200D00204B
:104D60002C0D002080B58AB000AF7860624B1B68C4
:104D7000BB612723FB18614A12781A70A7E0604BC9
:104D80001A682723FB181B78DB00D3187B6193E09C
:104D90007B6801330ED07B683B625A4B19683A6AD4
:104DA0001300DB009B189B00CB18FB61FB691B6A9F
:104DB0007B603EE07B695A687B691B7819000B00B9
:104DC0005B005B18DB00D3183B617B691B78013308
:104DD000DAB27B691A707B691A787B699B789A4290
:104DE00002D17B6900221A703B695B683B62454BCC
:104DF00019683A6A1300DB009B189B00CB18FB6113
:104E00003B691B78012B57D1FB691B7D002B00D020
:104E100052E03B699A68FB699A603B69DA68FB6912
:104E2000DA603B691A69FB691A613B695A69FB6977
:104E3000DA61FB699A68344B1B68D31A1B021B0AA0
:104E4000324A93420ED8FB699A682F4B1B681900AF
:104E50001000FFF77DFC0200FB69DB68D218FB69DC
:104E60005A6018E0284B1A68FB699B68190010000B
:104E7000FFF76EFC0300FB60FB69DA68FB689A428F
:104E800006D9FB69DA68FB68D21AFB695A6002E04E
:104E9000FB6900225A60FB6900229A60FB690022CC
:104EA000DA60FB6901221A75FB69012252421A621B
:104EB0003B6A1800FFF76AFC7B68013300D067E7A4
:104EC0007B691A787B695B789A4200D060E7272378
:104ED000FB181B782722BA18591E1170002B00D01E
:104EE0004DE7054B1A68BB69D31A5A1E9341DBB2D2
:104EF0001800BD460AB080BD2C0D0020240D0020F6
:104F0000280D0020200D0020300D0020FEFF7F0026
:104F100090B589B000AF78602A4B1B6801334BD045
:104F2000294B1968274B1A681300DB009B189B005C
:104F3000CB185B68FB61FFF7FFFB0300BB61234BF2
:104F40001B687B617A69BB6911001800FFF700FCE0
:104F5000030003333B611E4B1B7801225340DBB23D
:104F6000002B01D0FFF798FBFA693B69934200D20E
:104F700013007A69D3187B617B691B021B0A7B6172
:104F80007B691800FFF7F2FBFFF7D6FB0300FB601D
:104F9000BA69FB6811001800FFF7DAFB0300DC1C9C
:104FA000BA697B6911001800FFF7D2FB03009C422D
:104FB00004D9FFF70BFD01E0FFF792FBC046BD46A9
:104FC00009B090BD2C0D0020200D0020300D0020D8
:104FD000440D002090B587B000AF01235B427B6099
:104FE0001C4B1B683B611C4B1B68FB600B23FC18B4
:104FF0003B001800FFF790FD030023701723FC18F7
:10500000FFF7C8FD030023700B23FB181B78002B50
:1050100009D03B683A1D39691800FFF74BFE17238A
:10502000FB1801221A707B681800FFF79BFE031E15
:1050300003D01723FB1801221A701723FB181B78C3
:10504000002B03D0FB681800FFF762FFC046BD4687
:1050500007B090BD300D00202C0D002080B582B02F
:1050600000AF786039603B68DAB27B685A70C0463E
:10507000BD4602B080BDC04680B584B000AF786048
:1050800039607B685B780133FB607B689B781A1E14
:10509000FB689A4201D10023FB607B681B781A1ED3
:1050A000FB689A4201D100230EE03B68FA681A605F
:1050B0007B685A687B685B7819000B005B005B18A3
:1050C000DB00D318BB60BB681800BD4604B080BDD0
:1050D00080B586B000AFF860B9607A603B601B4B6A
:1050E0001A68FB68DB00D3181022BA1811001800E8
:1050F000FFF7C2FF03007B617B69002B01D1042312
:1051000020E07B6901221A707B69BA685A60FFF758
:1051100013FB02007B699A607B697A68DA607B69BD
:105120003A681A617B693A6A5A61084B1A68FB68E7
:10513000DB00D3183A6911001800FFF78FFFFFF763
:105140004DFC00231800BD4606B080BD280D002090
:1051500080B584B000AF78603960144B1A687B6802
:10516000DB00D3180822BA1811001800FFF784FFDB
:105170000300FB60FB68002B01D1042312E0FB68F5
:1051800002221A70FB683A685A60084B1A687B68FA
:10519000DB00D318BA6811001800FFF75FFFFFF7B4
:1051A0001DFC00231800BD4604B080BD280D002062
:1051B00080B584B000AF7860144B1A687B68DB0060
:1051C000D3180822BA1811001800FFF755FF030082
:1051D000FB60FB68002B01D1042313E0FB68032272
:1051E0001A70FB68012252425A60084B1A687B68A9
:1051F000DB00D318BA6811001800FFF72FFFFFF784
:10520000EDFB00231800BD4604B080BD280D002032
:1052100080B500AF114AA0235B000021D1500F4A96
:10522000A2235B000021D1500C4AA4235B00002183
:10523000D1500A4AA6235B000021D150074A80239F
:105240005B000021D150054A82235B000021D15030
:10525000FFF7FAFBC046BD4680BDC04600100140C6
:1052600080B500AFFFF7B6FEC046BD4680BDC04664
:1052700080B586B000AFF860080011007B600B239A
:10528000FB18021C1A700A23FB180A1C1A707B6890
:105290001800FFF797F803001A0001235340DBB210
:1052A000002B01D007238BE07B68002B01D1072363
:1052B00086E0FFF715FA444B3A6A1A60434B0B221B
:1052C000BA1812781A70424B7A681A6000237B6110
:1052D00016E03F4B19687A691300DB009B189B00AE
:1052E000CB1800221A703A4B19687A691300DB0058
:1052F0009B189B00CB1800221A757B6901337B61D8
:105300000B23FB181A787B699A42E2DC0B23FB180B
:105310001A781300DB009B189B001A007B689B180F
:105320007B602C4B03221A702B4B7A681A607B68C7
:1053300018337B6000237B6121E0274B1A687B696F
:10534000DB00D3183B613B6900221A703B690022E5
:105350005A703B690A22BA1812789A703B697A68C7
:105360005A600A23FB181A7813005B009B18DB00B5
:105370001A007B689B187B607B6901337B617B69CA
:10538000022BDADD154B012252421A60144B002227
:105390001A70144B00221A701420FFF769F80321C9
:1053A0001420FFF77FF81420FFF71AF8FB681800A5
:1053B000FFF75EF9FFF7C0F902000B4B1A600023FC
:1053C0001800BD4606B080BD400D00201C0D002019
:1053D000200D0020240D0020280D00202C0D002081
:1053E0003C0D00203D0D0020300D002080B586B022
:1053F00000AFF8607A600B23FB180A1C1A70284B68
:105400001B68002B01D1082346E07B68002B01D1EB
:10541000072341E0FB68002B01D107233CE0002378
:105420007B6132E01E4B19687A691300DB009B1820
:105430009B00CB181B78002B24D1194B19687A6973
:105440001300DB009B189B00CB1801221A70144B31
:1054500019687A691300DB009B189B00CB180B229C
:10546000BA1812785A700E4B19687A691300DB006B
:105470009B189B00CB187A689A617A69FB681A605E
:10548000002309E07B6901337B61064B1B781A1E00
:105490007B699A42C6DC04231800BD4606B080BD75
:1054A000200D00201C0D002080B582B000AFFFF75A
:1054B000C1F8031E012B02D0032B03D005E000230B
:1054C0007B6005E001237B6002E002237B60C04635
:1054D0007B681800BD4602B080BDC04690B589B05B
:1054E00002AFF860B9607A601E4B1B68002B01D1D7
:1054F000082333E01C4B1B781A1EFB689A4202D922
:10550000BB68042B01D8072328E0164B1968FA68FA
:105510001300DB009B189B00CB181B78012B01D0DC
:1055200008231BE00F4B1968FA681300DB009B1877
:105530009B00CB185B78012B01D1BB6800E00023F6
:105540007B61FFF7B1FF04007869BA68F9687B688E
:10555000009303002000FFF7BBFD03001800BD46C9
:1055600007B090BD200D00201C0D002080B582B03A
:1055700000AF7860134B1B68002B01D108231DE09E
:10558000114B1B781A1E7B689A4201D8072315E03D
:105590000C4B19687A681300DB009B189B00CB1832
:1055A0001B78012B01D0082308E0FFF77DFF0200E4
:1055B0007B6819001000FFF7CBFD03001800BD4603
:1055C00002B080BD200D00201C0D002080B500AF72
:1055D000074B1B68002B01D1082306E0FFF764FF8F
:1055E00003001800FFF7E4FD03001800BD4680BD6E
:1055F000200D002080B582B000AF7860FFF79CF8E6
:1056000002007B681A6000231800BD4602B080BD0E
:1056100080B584B000AFF860B9607A60BA68FB68A2
:1056200011001800FFF794F802007B681A6000234D
:105630001800BD4604B080BD80B582B000AF020046
:10564000FB1D1A70FB1D1B787F2B18D9174AFB1DF9
:105650001B7819000F230B40083B9B0806339B0067
:10566000D31804331A68FB1D1B78190003230B4061
:10567000DB00DA401300FF2213409B0912E00C4AC2
:10568000FB1D1B785BB29B08C0339B009A58FB1D27
:105690001B78190003230B40DB00DA401300FF22C4
:1056A00013409B091800BD4602B080BD00ED00E02C
:1056B00000E100E080B582B000AF78607B68032233
:1056C00013405A425341DBB21800BD4602B080BDC0
:1056D00080B582B000AF0C4B5B68DB05DB0D7B60F7
:1056E0007B68002B0AD07B68103B3B603B685BB259
:1056F0001800FFF7A1FF0300DBB200E0042318004D
:10570000BD4602B080BDC04600ED00E080B582B06D
:1057100000AF0200FB1D1A70FB1D1B789AB2074BED
:105720001B889A4204D2FB1D1B780133DBB200E0D8
:1057300000231800BD4602B080BDC046540D0020B5
:1057400080B584B000AF3A60BB1D021C1A803B1DBF
:105750000A1C1A803B1D1B8801339AB20E23FB18CA
:10576000D2001A803B681800FFF7A4FF03001A005C
:1057700001235340DBB2002B01D0072318E00E4B6E
:105780003A681A600E23FB181B883A68D2180B4B34
:105790001A600B4B00221A700A4B00221A700A4B37
:1057A000BA1D12881A80094B3A1D12881A800023EC
:1057B0001800BD4604B080BD480D00204C0D0020EF
:1057C000510D0020500D0020520D0020540D0020DE
:1057D00080B58CB000AFF8607A600A23FB180A1C11
:1057E0001A80574B1B880A22BA1812889A4200D98D
:1057F0009FE02A23FB18012252421A801323FB1830
:1058000000221A70FFF764FF03007B627B6A012BA2
:1058100016D01323FB181800FBF778FF03003B6238
:105820003B6A022B01D172B60AE03B6AFB61FB695D
:10583000002B05D0434AFB6959211800FAF7F0FC08
:10584000414B1B78DBB21800FFF760FF03001A0022
:105850003E4B1B78DBB29A420FD03B4B1B78DAB23F
:105860002A23FB181A80384B1B78DBB21800FFF78D
:105870004DFF03001A00344B1A707B6A012B16D0BF
:1058800062B61323FB181B781800FBF759FF0300BF
:10589000BB61BB69022B0AD0BB697B617B69002BB2
:1058A00005D0284A7B6961211800FAF7B9FC2A2340
:1058B000FB181B88264A934238D0264B1A682A23A5
:1058C000FB181B88DB00D3187A681A60FB68002B72
:1058D00020D00A23FB181B88002B1BD01E4B1B68F3
:1058E0002A22BA181288164909884A4398180A23A6
:1058F000FB181A88FB68190003F096F9154B1A6813
:105900002A23FB181B88DB00D3180A22BA18128836
:105910009A8008E00F4B1A682A23FB181B88DB00CB
:10592000D31800229A800023FB6204E00423FB6268
:1059300001E00923FB62FB6A1800BD460CB080BD84
:10594000520D002028980000510D0020500D00201D
:10595000FFFF0000480D00204C0D002080B586B0F0
:1059600000AFF860B9607A6005237B611E4B1B783D
:10597000DAB21E4B1B78DBB29A4230D01B4B1B783D
:10598000DAB21223FB181A80184B1B78DBB218000E
:10599000FFF7BCFE03001A00144B1A70144B1B686F
:1059A0001222BA181288134909884A439A18FB68C8
:1059B0001A60114B1A681223FB181B88DB00D318DE
:1059C0009A88BB681A800C4B1A681223FB181B8834
:1059D000DB00D3181A687B681A6000237B617B693F
:1059E0001800BD4606B080BD510D0020500D0020AE
:1059F0004C0D0020520D0020480D002080B584B0D1
:105A000000AF06E07B68F8680A22BA181288110015
:105A100098473A1D0A23F9180C23FB181800FFF7C2
:105A20009DFF031EEED0C046BD4604B080BDC046FB
:105A300080B584B000AF78600023FB607B68002BEA
:105A400001D100230CE07B681B78002B06D0FB689B
:105A50000133FB607B6801337B60F4E7C046FB6881
:105A60001800BD4604B080BD80B500AFC046BD463D
:105A700080BDC04680B588B000AFF860B9607A607C
:105A8000FFF7F2FF4C49FA6813005B009B18DB003C
:105A9000CB1858331B68BB614749FA6813005B0099
:105AA0009B18DB00CB1854331B687B610023FB6120
:105AB000BA697B699A423FDD3F49FA6813005B008F
:105AC0009B18DB00CB1850331A68BB69D31A3B61B3
:105AD0007B683A69934200DD13003B613649FA68FE
