:1000000000400020013F0000493F00004B3F00003E
:1000100000000000000000000000000000000000E0
:100020000000000000000000000000004D3F000044
:1000300000000000000000004F3F0000513F0000A2
:10004000533F0000533F0000533F00009D0300005A
:10005000533F00000000000099140000533F0000CF
:10006000533F0000533F0000533F0000533F000048
:10007000533F0000533F0000533F0000533F000038
:10008000533F000029280000533F0000533F000069
:1000900079280000533F0000533F0000533F000009
:1000A000533F0000533F000000000000000000002C
:1000B0000000000000000000000000000000000040
:1000C00010B5064C2378002B07D1054B002B02D02E
:1000D000044800E000BF0123237010BDBC040020D1
:1000E000000000001C450000084B10B5002B03D099
:1000F0000749084800E000BF07480368002B00D10B
:1001000010BD064B002BFBD09847F9E7000000001C
:10011000C00400201C450000B804002000000000BE
:10012000164B002B00D1144B9D46402292029A1A86
:10013000924600218B460F461348144A121A04F0C7
:1001400007F80F4B002B00D098470E4B002B00D028
:1001500098470020002104000D000D48002802D01F
:100160000C4804F0C5F803F091FF2000290000F0CE
:10017000C1F803F07BFFC0460000080000400020EB
:100180000000000000000000BC04002074090020F2
:10019000F14200000143000080B500AFBFF34F8F74
:1001A000024B034ADA60BFF34F8FFEE700ED00E039
:1001B0000400FA0580B582B000AF78600800110035
:1001C000FB1C021C1A70BB1C0A1C1A70A023DB0546
:1001D000BA1C127812041100FA1C12789200114312
:1001E0007A68C132FF329200D150C046BD4602B09B
:1001F00080BDC04680B584B000AFF860B9607A6059
:10020000FFF7CAFFC046BD4604B080BD80B582B0CE
:1002100000AF786039603A6880235B03134004D0F4
:10022000094B1900002003F0E5F87A6880235B038E
:10023000134004D0054B1900002003F0DBF8C04642
:10024000BD4602B080BDC0462444000038440000D2
:1002500080B588B000AF80235B03FB6180235B0324
:10026000BB61032203211420FFF7A4FF1D4B1900DB
:10027000012001F0E5F903007B617B693B613B698B
:10028000002B05D0184A3B6932211800FFF7B2FF56
:10029000164BBA69F969164801F024FA0300FB60AD
:1002A000FB68BB60BB68002B05D00F4ABB683821D8
:1002B0001800FFF79FFF0E4B1B78180001F076FA2D
:1002C0000300FB60FB687B607B68002B05D0064A5F
:1002D0007B683B211800FFF78DFFC046BD4608B084
:1002E00080BDC046D8040020504400000D0200002C
:1002F0007109002080B500AF034B1900002003F006
:1003000079F8FFF7A5FFFEE75C44000080B582B0F6
:1003100000AF7860A023DB057A68C132FF3292001B
:100320000321D150C046BD4602B080BD80B582B029
:1003300000AF78600A00FB1C1A70A023DB05FA1CD2
:100340001278920011007A68C132FF329200D150C7
:10035000C046BD4602B080BD80B582B000AF7860B7
:10036000A023DA0501217B689940A123DB00D1504D
:10037000C046BD4602B080BD80B582B000AF786097
:10038000A023DB0501217A6891400A0002495A50F6
:10039000C046BD4602B080BD0C05000080B582B0ED
:1003A00000AF0F4A84235B00D358012B14D10C4AB1
:1003B000C1239B00D358042213400DD0084A842344
:1003C0005B000021D150002000F00CF803007B609E
:1003D0007B68180000F0BEF9C046BD4602B080BD83
:1003E0000030004080B582B000AF0200FB1D1A70E3
:1003F000FB1D1B78002B08D1FB1D1A7813009B00F6
:100400009B18DB00034A9B1800E000231800BD4640
:1004100002B080BDEC04002080B586B000AFF8606B
:1004200008007A6019000B23FB18021C1A700A23BB
:10043000FB180A1C1A701723FB187A68511E8A4190
:100440001A701723FB181B7801225340DBB2002BD4
:1004500005D01F4B1A0071210020FFF7CBFE7B68EF
:10046000FA681A607B680B22BA1812781A717B68D6
:1004700000229A607B6800229A817B680022DA81E0
:100480007B6800221A617B6800229A827B680022C6
:10049000DA827B6800225A837B6800221A837B6899
:1004A00000221A777B6800221A627B6824220021CE
:1004B00099547B682522002199540A23FB181B7844
:1004C000D9B27B6826229954C046BD4606B080BD8D
:1004D0007044000080B586B000AFF8607A603B6081
:1004E0000A23FB180A1C1A801723FB187A68511E6E
:1004F0008A411A701723FB181B7801225340DBB284
:10050000002B05D0204B1A0092210020FFF772FE2D
:100510001623FB183A68511E8A411A701623FB18DD
:100520001B7801225340DBB2002B05D0164B1A007A
:1005300093210020FFF75EFE1523FB183A6A511E37
:100540008A411A701523FB181B7801225340DBB235
:10055000002B05D00C4B1A0094210020FFF74AFE17
:100560007B68FA681A60FB68002B03D00A23FB182B
:100570001A8800E000223B681A803B6A00221A8039
:10058000C046BD4606B080BD7044000080B584B052
:1005900000AF786039600F23FB187A68511E8A41DA
:1005A0001A700F23FB181B7801225340DBB2002B7B
:1005B00005D0124B1A00A1210020FFF71BFE0E23CD
:1005C000FB183A68511E8A411A700E23FB181B78DB
:1005D00001225340DBB2002B05D0084B1A00A221A8
:1005E0000020FFF707FE7B6800221A603B680022AC
:1005F0001A80C046BD4604B080BDC04670440000AD
:1006000080B584B000AF786008001100FB1C021CAC
:100610001A703B000A1C1A800F23FB187A68511EBF
:100620008A411A700F23FB181B7801225340DBB25A
:10063000002B05D0124B1A00AF210020FFF7DAFD86
:100640007B681B6A002B17D00823FB1802221A7044
:100650000823FB1800225A800823FB18FA1C127882
:100660001A700823FB183A0012885A807B681A6AAD
:100670000823FB1818689047C046BD4604B080BDEB
:100680007044000080B584B000AF78600F23FB1881
:100690007A68511E8A411A700F23FB181B780122B9
:1006A0005340DBB2002B05D0284B1A00C02100209C
:1006B000FFF7A0FD7B681A687B689B68002B0FD052
:1006C0007B68DB8999B27B689B899BB2994207D290
:1006D0007B689B687968C98989B25B181B7800E0E0
:1006E00000231B4953507B68DB899BB201339AB2CC
:1006F0007B68DA817B68DB899AB27B681B8B9BB253
:100700009A421FD27B681A687B689B68002B0FD0C7
:100710007B68DB8999B27B689B899BB2994207D23F
:100720007B689B687968C98989B25B181B7800E08F
:100730000023074953507B68DB899BB201339AB28F
:100740007B68DA81C046BD4604B080BD70440000BD
:100750001C05000080B584B000AF78600F23FB1843
:100760007A68511E8A411A700F23FB181B780122E8
:100770005340DBB2002B05D0504B1A00D82100208B
:10078000FFF738FD7B685B8B9BB201339AB27B68C5
:100790005A837B6825229B5CDBB201225340DBB28B
:1007A000002B0BD07B682522012199547B685B8B41
:1007B0009AB27B6800211800FFF722FF7B681A6855
:1007C000A323DB00D2580E23FB181A707B681B6929
:1007D000002B15D07B68DB8A9AB27B689B8A9BB220
:1007E0009A420DD27B681A697B68DB8A9BB2591CDE
:1007F00088B27968C882D3180E22BA1812781A7093
:100800007B68DB899AB27B681B8B9BB29A421FD2B2
:100810007B681A687B689B68002B0FD07B68DB893C
:1008200099B27B689B899BB2994207D27B689B688F
:100830007968C98989B25B181B7800E000232049D8
:1008400053507B68DB899BB201339AB27B68DA81B3
:100850007B685B8B9AB27B681B8B9BB29A4228D3D6
:100860007B681B7FDBB21800FFF776FD0C23FB18BB
:100870007A68D2891A807B6808331A007B680C3347
:1008800019001000FFF782FE7B6810331A007B68A6
:10089000143319001000FFF779FE7B68242202212F
:1008A00099540C23FB181A887B6801211800FFF764
:1008B000A7FEC046BD4604B080BDC04670440000DF
:1008C0001C05000080B588B000AF02003960FB1D38
:1008D0001A703B68002B01D10E23CEE0FB1D1B7864
:1008E0001800FFF77FFD0300FB611B23FB18FA696B
:1008F000511E8A411A701B23FB181B78012253409A
:10090000DBB2002B06D05F4A89235B001900002070
:10091000FFF770FCFB1D1B78002B00D00AE03B6842
:10092000DB7E5A1E9341DBB2FA6957480321FFF779
:1009300073FDC0463B681B691800FFF70DFD3B685F
:100940001B691800FFF7E2FC3B681B691800FFF702
:1009500003FD3B685B681800FFF7D8FC3B68DB6869
:100960001800FFF7D3FC3B689B6800211800FFF7D5
:10097000DDFC3B681B69DAB2FB691A77FB691A6810
:100980003B685968A123DB00D150FB691A683B68BA
:10099000DB683E495350FB691A683B689968A2239B
:1009A000DB00D150FB691A683B681B68384953501B
:1009B000FB691B683A68927E520011003A68527EC9
:1009C00092000A433968097E0A4332495A50FB694A
:1009D0001A6884235B000021D150FB691B795BB24C
:1009E000180000F0D3FB03007B617B69002B07D06C
:1009F000244A4223FF3319007B691800FFF7FAFBF2
:100A0000FB691B795AB23B685B69DBB219001000C5
:100A100000F0CEFB03003B613B69002B06D0194A76
:100A2000A12359003B691800FFF7E4FBFB69002292
:100A30001A62FB691A68C1239B000421D150FB692B
:100A40001B795BB2180000F051FB0300FB60FB68F0
:100A5000002B07D00B4A4A23FF331900FB6818000C
:100A6000FFF7C8FBFB691A68A023DB000121D15006
:100A7000FB6924220221995400231800BD4608B0C6
:100A800080BDC04670440000003000400C050000EE
:100A9000240500005405000080B586B000AF0200B8
:100AA000FB1D1A70FB1D1B781800FFF79BFC030051
:100AB0007B611323FB187A69511E8A411A70132334
:100AC000FB181B7801225340DBB2002B06D02C4AC6
:100AD0005E23FF3319000020FFF78CFB7B691B7935
:100AE0005BB2180000F052FB0300FB60FB68002BB8
:100AF00006D0234AB0235900FB681800FFF77AFBA1
:100B00007B691B795BB2180000F002FB0300BB603D
:100B1000BB68002B07D01A4A6223FF331900BB6859
:100B20001800FFF767FB7B691A68A023DB00002130
:100B3000D1507B691B7FDBB21800FFF71DFC7B697E
:100B4000FF221A777B691A68A123DB000121494241
:100B5000D1507B691B680B49012252425A507B6974
:100B60001A68A223DB0001214942D1507A6900238F
:100B700000210020FFF750FCC046BD4606B080BDF6
:100B8000704400000C05000080B584B000AF020086
:100B9000FB1D1A70FB1D1B781800FFF723FC0300D8
:100BA000FB600B23FB18FA68511E8A411A700B2355
:100BB000FB181B7801225340DBB2002B06D0074AFA
:100BC0007C23FF3319000020FFF714FBFB6824226D
:100BD0009B5CDBB21800BD4604B080BD70440000D1
:100BE00080B584B000AF02003960FB1D1A70FB1D98
:100BF0001B781800FFF7F6FB0300FB600B23FB18C4
:100C0000FA68511E8A411A700B23FB181B780122C7
:100C10005340DBB2002B06D0064A8A23FF3319006B
:100C20000020FFF7E7FAFB683A681A62C046BD4643
:100C300004B080BD70440000B0B58EB002AFB960A2
:100C400011007B600F23FB18021C1A700C23FB1889
:100C50000A1C1A800F23FB181B781800FFF7C2FB31
:100C60000300BB622723FB18BA6A511E8A411A701F
:100C70002723FB181B7801225340DBB2002B06D040
:100C8000634A9A23FF3319000020FFF7B3FA0023C9
:100C9000FB622423FB1800221A801323FB18002276
:100CA0001A70BB6A26229B5CDBB2002B11D0132387
:100CB000FB18180000F0B8FA03003B623B6A002BF7
:100CC0001AD0534AD22359003B6A1800FFF792FA10
:100CD00012E0BB6A1B795BB2180000F019FA03003E
:100CE000FB61FB69002B07D0494AAA23FF33190097
:100CF000FB691800FFF77EFABB6A24229B5CDBB21B
:100D0000022B51D12423FA180C23FB184021791807
:100D10000C881B8898B2A1B2884200D2231C138091
:100D20002423FB181B88002B3BD0BB6A2422012103
:100D30009954BB6A00225A83BB6A25220021995428
:100D4000BB6A2422BA1812881A83BB6A08331C00B3
:100D5000BB6A0C331D00BB6A0E330C22BA18118813
:100D6000B86800932B002200FFF7B4FBBB6A103376
:100D70001A00BB6A14331C00BB6A16334021791871
:100D80000988786800932300FFF7A4FBBB6A1B7FE8
:100D9000DBB21800FFF7F0FABB6A1800FFF772FC2D
:100DA00004E00723FB6201E01123FB62BB6A2622F9
:100DB0009B5CDBB2002B12D01323FB181B781800AE
:100DC00000F04CFA0300BB61BB69002B1AD0104A3B
:100DD000EB235900BB691800FFF70CFA12E0BB6A5D
:100DE0001B795BB2180000F081F903007B617B691D
:100DF000002B07D0064ADC23FF3319007B6918005B
:100E0000FFF7F8F9FB6A1800BD460CB0B0BDC0464C
:100E10007044000080B582B000AF7860C046C04624
:100E2000C046C046C046C046C046C046C046C04692
:100E3000C046C046C046C0467B68013B7B60002B75
:100E4000ECD1C046BD4602B080BDC04680B582B080
:100E500000AF786006E07B68013B7B60054B1800C3
:100E6000FFF7D8FF7B68002BF5D1C046BD4602B026
:100E700080BDC046E703000080B582B000AF02002D
:100E8000FB1D1A70064BFA1D127811001F220A4032
:100E9000012191400A001A60C046BD4602B080BDE3
:100EA00000E100E080B582B000AF0200FB1D1A70C7
:100EB000074AFB1D1B7819001F230B400121994095
:100EC0000B0019008023D150C046BD4602B080BD42
:100ED00000E100E080B582B000AF0200FB1D1A7097
:100EE0000A4A80235B00D358FA1D127811001F2292
:100EF0000A40012191400A00134001D0012300E083
:100F000000231800BD4602B080BDC04600E100E0ED
:100F100080B582B000AF0200FB1D1A70084AFB1DAD
:100F20001B7819001F230B40012199400B00190069
:100F300080235B00D150C046BD4602B080BDC04694
:100F400000E100E080B582B000AF0200FB1D1A7026
:100F5000084AFB1D1B7819001F230B4001219940F3
:100F60000B001900C0235B00D150C046BD4602B043
:100F700080BDC04600E100E0B0B582B000AF020025
:100F80003960FB1D1A70FB1D1B787F2B32D92F4C4B
:100F9000FB1D1B781A000F231340083B99082B4AAE
:100FA000FB1D1B7818000F230340083B9B080633EA
:100FB0009B00D31804331B68FA1D1278100003221B
:100FC0000240D200FF2090400200D2431A403B680A
:100FD0009B01FF201840FB1D1B781D0003232B40A5
:100FE000DB00984003001A438B1D9B00E318043379
:100FF0001A6027E0164CFB1D1B785BB29B08144956
:10100000FA1D127852B29208C03292005258F91D5D
:101010000978080003210140C900FF208840010031
:10102000C94311403A689201FF201040FA1D12781E
:10103000150003222A40D200904002000A43C03328
:101040009B001A51C046BD4602B0B0BD00ED00E0A5
:1010500000E100E080B582B000AF0200FB1D1A7015
:10106000FB1D1B787F2B18D9174AFB1D1B78190015
:101070000F230B40083B9B0806339B00D318043317
:101080001A68FB1D1B78190003230B40DB00DA40B4
:101090001300FF2213409B0912E00C4AFB1D1B7832
:1010A0005BB29B08C0339B009A58FB1D1B7819004C
:1010B00003230B40DB00DA401300FF2213409B099F
:1010C0001800BD4602B080BD00ED00E000E100E088
:1010D00080B500AFBFF34F8F024B034ADA60BFF316
:1010E0004F8FFEE700ED00E00400FA0580B582B006
:1010F00000AF0200FB1D1A70FB1D1B785BB21800CD
:10110000FFF7BAFE00231800BD4602B080BDC046FE
:1011100080B582B000AF0200FB1D1A70FB1D1B786A
:101120005BB21800FFF7BEFE00231800BD4602B0F8
:1011300080BDC04680B582B000AF02003960FB1DA3
:101140001A703B68002B0AD0FB1D1B785BB218009D
:10115000FFF7C0FE02003B681A60002300E00E2388
:101160001800BD4602B080BD80B582B000AF02005D
:10117000FB1D1A70FB1D1B785BB21800FFF7C8FE41
:1011800000231800BD4602B080BDC04680B582B0C5
:1011900000AF0200FB1D1A70FB1D1B785BB218002C
:1011A000FFF7D0FE00231800BD4602B080BDC04648
:1011B00080B582B000AF0200FB1D1A70BB1D0A1C77
:1011C0001A70BB1D1A78FB1D1B785BB2110018004A
:1011D000FFF7D2FE00231800BD4602B080BDC04616
:1011E00080B582B000AF02003960FB1D1A703B6809
:1011F000002B0BD0FB1D1B785BB21800FFF72AFFFA
:101200000300DAB23B681A70002300E00E231800D6
:10121000BD4602B080BDC04680B500AFFFF758FFA5
:1012200000231800BD4680BD80B582B000AF786055
:1012300072B6094B1B785A1E9341DBB21A007B68C9
:101240001A70054B1B780133DAB2034B1A70002376
:101250001800BD4602B080BD1405002080B582B0E4
:1012600000AF0200FB1D1A70094B1B78013BDAB27C
:10127000074B1A70FB1D1B78002B03D1044B002277
:101280001A7062B600231800BD4602B080BDC04689
:101290001405002080B582B000AF0200FB1D1A705B
:1012A000064BFA1D127811001F220A4001219140BD
:1012B0000A001A60C046BD4602B080BD00E100E0F1
:1012C00080B582B000AF0200FB1D1A70084AFB1DFA
:1012D0001B7819001F230B40012199400B001900B6
:1012E000C0235B00D150C046BD4602B080BDC046A1
:1012F00000E100E0B0B582B000AF02003960FB1D34
:101300001A70FB1D1B787F2B32D92F4CFB1D1B78CD
:101310001A000F231340083B99082B4AFB1D1B782A
:1013200018000F230340083B9B0806339B00D3188B
:1013300004331B68FA1D1278100003220240D20009
:10134000FF2090400200D2431A403B689B01FF20DF
:101350001840FB1D1B781D0003232B40DB00984029
:1013600003001A438B1D9B00E31804331A6027E027
:10137000164CFB1D1B785BB29B081449FA1D1278B2
:1013800052B29208C03292005258F91D09780800F2
:1013900003210140C900FF2088400100C9431140DA
:1013A0003A689201FF201040FA1D127815000322BE
:1013B0002A40D200904002000A43C0339B001A51D9
:1013C000C046BD4602B0B0BD00ED00E000E100E067
:1013D00080B582B000AF78607B68032213405A4228
:1013E0005341DBB21800BD4602B080BD80B586B067
:1013F00000AF7860396000237B6144E001227B69A3
:101400009A401300FB603B68FA68134038D07B6851
:10141000DB68FA68134009D180239B023B617B683B
:10142000DA68FB681A437B68DA6009E0C0239B0234
:101430003B617B68DB68FA68D2431A407B68DA60FC
:10144000A023DB05A022D2057969C131FF318900D3
:101450008A58104911407A69C132FF329200D15046
:10146000A023DB05A022D2057969C131FF318900B3
:1014700089583A6911437A69C132FF329200D150DA
:101480007B6901337B617B691F2BB7D9C046BD46A1
:1014900006B080BDFFFFFCFF80B588B000AFA02381
:1014A000DA05A223DB00D358BB613E4ABE235B00B2
:1014B0000021D1501F23FB1800221A7066E03A4B1E
:1014C00019681F23FB181A7813009B009B189B00B8
:1014D000CB183B611F23FB181B7801229A40130095
:1014E0001A00324B1B68134049D03B69DB68DA4372
:1014F000BB695A403B691B6813407B617A693B6951
:1015000011001800FFF772FFA023DA05A223DB0009
:10151000D258BB695340FB60FB68002B16D0BA69F8
:10152000FB681343BB613B69DB68DA43BB695A4024
:101530003B691B681340BB60BA683B691100180027
:10154000FFF754FF7A69BB6813437B61BB69DA43D9
:101550003B699B6813407A6913407B603B695B6819
:10156000BA6913407A6913403B603A687B68134359
:1015700005D03B691B6979683A68100098471F23BA
:10158000FB181A781F23FB1801321A70084B1B78BE
:101590001F22BA1812789A4291D3C046BD4608B0AD
:1015A00080BDC046006000402005002018050020D6
:1015B0001D05002080B584B000AF0200FB1D1A702D
:1015C0000023FB6030E01C4B1968FB1D1A781300E8
:1015D0009B009B189B00CB181B680121FA68914067
:1015E0000A0013401DD0A023DB05A022D205F96814
:1015F000C131FF3189008A5810491140FA68C1325F
:10160000FF329200D150A023DB05A022D205F96859
:10161000C131FF3189008958FA68C132FF32920026
:10162000D150FB680133FB60FB681F2BCBD9C04650
:10163000BD4604B080BDC04620050020FFFFFCFF72
:1016400080B582B000AF02003960FB1D1A703B68A4
:10165000002B01D1072337E03B681800FFF7B8FEE5
:1016600003001A0001235340DBB2002B01D00723F3
:101670002AE0174B3A681A60164BFA1D12781A7056
:10168000154B00221A70154B00221A60104B186877
:10169000104B1B781A0013009B009B189B001A002C
:1016A000002102F055FD0E49C2239B000122524247
:1016B000CA500620FFF704FE01210620FFF71AFE9C
:1016C0000620FFF7E7FD00231800BD4602B080BDED
:1016D000200500201C0500201D0500201805002005
:1016E0000060004080B584B000AFF860B9607A60F7
:1016F0003B602B4B1B68002B01D108234CE03B685F
:10170000002B01D1072347E0264B1A78264B1B7884
:101710009A4201D304233FE0214B1A68214B1B78E6
:1017200019000B009B005B189B00D318B9687A68FE
:101730000A431A601A4B1A681A4B1B7819000B00DF
:101740009B005B189B00D318BA685A60144B1A6848
:10175000144B1B7819000B009B005B189B00D318DF
:101760007A689A600E4B1A680E4B1B7819000B00B2
:101770009B005B189B00D3183A681A61094B1B78D1
:101780005A1CD1B2074A1170FA681370FB681B78B3
:101790001800FFF70FFF00231800BD4604B080BDFE
:1017A000200500201D0500201C05002080B586B006
:1017B00000AF0200FB1D1A704C4B1B68002B01D1BF
:1017C00008238FE04A4B1B78FA1D12789A4201D306
:1017D000072387E0474ABE235B000021D150A023A6
:1017E000DA05A223DB00D358FB60434B1B68002BB8
:1017F00005D14049C1239B0080221206CA50FB1D1F
:101800001B7801229A4013001A003B4B1B681A43B5
:10181000394B1A60354B1968FB1D1A7813009B0071
:101820009B189B00CB180022DA6000237B6155E0F7
:1018300001227B699A401300BB602C4B1968FB1D89
:101840001A7813009B009B189B00CB181B68BA6882
:10185000134040D0FB68BA68134003D0C0239B02FA
:101860003B6118E080239B023B61204B1968FB1D04
:101870001A7813009B009B189B00CA181B4B186812
:10188000FB1D19780B009B005B189B00C318D968DF
:10189000BB680B43D360A023DB05A022D205796986
:1018A000C131FF3189008A58144911407A69C13227
:1018B000FF329200D150A023DB05A022D205796926
:1018C000C131FF31890089583A6911437A69C132BF
:1018D000FF329200D1507B6901337B617B691F2B02
:1018E000A6D900231800BD4606B080BD2005002003
:1018F0001D0500200060004018050020FFFFFCFFD0
:1019000080B582B000AF0200FB1D1A70164B1B6839
:10191000002B01D1082322E0144B1B78FA1D12780A
:101920009A4201D307231AE0FB1D1B781800FFF72A
:1019300041FEFB1D1B7801229A401300DA430C4B39
:101940001B681A400A4B1A60094B1B68002B05D113
:101950000849C2239B0080221206CA5000231800A7
:10196000BD4602B080BDC046200500201D050020F8
:10197000180500200060004080B584B000AF020070
:101980003960FB1D1A70134B1B68002B01D1082313
:101990001CE0114B1B78FA1D12789A4201D30723E1
:1019A00014E00C4B1968FB1D1A7813009B009B1860
:1019B0009B00CB18FB60A023DA05A223DB00D258E2
:1019C000FB681B681A403B681A6000231800BD467C
:1019D00004B080BD200500201D05002080B582B028
:1019E00000AF78607B68032213405A425341DBB258
:1019F0001800BD4602B080BD80B582B000AF0200C5
:101A0000FB1D1A70064BFA1D127811001F220A40A6
:101A1000012191400A001A60C046BD4602B080BD57
:101A200000E100E080B582B000AF0200FB1D1A703B
:101A3000074AFB1D1B7819001F230B400121994009
:101A40000B0019008023D150C046BD4602B080BDB6
:101A500000E100E080B582B000AF0200FB1D1A700B
:101A6000084AFB1D1B7819001F230B4001219940D8
:101A70000B00190080235B00D150C046BD4602B068
:101A800080BDC04600E100E080B582B000AF02003A
:101A9000FB1D1A70084AFB1D1B7819001F230B4001
:101AA000012199400B001900C0235B00D150C046B2
:101AB000BD4602B080BDC04600E100E0B0B582B0D6
:101AC00000AF02003960FB1D1A70FB1D1B787F2BD5
:101AD00032D92F4CFB1D1B781A000F231340083BF3
:101AE00099082B4AFB1D1B7818000F230340083B65
:101AF0009B0806339B00D31804331B68FA1D127829
:101B0000100003220240D200FF2090400200D24386
:101B10001A403B689B01FF201840FB1D1B781D00ED
:101B200003232B40DB00984003001A438B1D9B00CE
:101B3000E31804331A6027E0164CFB1D1B785BB2D8
:101B40009B081449FA1D127852B29208C0329200D2
:101B50005258F91D0978080003210140C900FF20EF
:101B600088400100C94311403A689201FF201040AB
:101B7000FA1D1278150003222A40D200904002007C
:101B80000A43C0339B001A51C046BD4602B0B0BDE7
:101B900000ED00E000E100E080B582B000AF02009F
:101BA000FB1D1A70FB1D1B787F2B18D9174AFB1DD4
:101BB0001B7819000F230B40083B9B0806339B0042
:101BC000D31804331A68FB1D1B78190003230B403C
:101BD000DB00DA401300FF2213409B0912E00C4A9D
:101BE000FB1D1B785BB29B08C0339B009A58FB1D02
:101BF0001B78190003230B40DB00DA401300FF229F
:101C000013409B091800BD4602B080BD00ED00E006
:101C100000E100E080B582B000AF7860C046C04609
:101C2000C046C046C046C046C046C046C046C04684
:101C3000C046C046C046C0467B68013B7B60002B67
:101C4000ECD1C046BD4602B080BDC04680B582B072
:101C500000AF0C4B5B68DB05DB0D7B607B68002B0A
:101C60000AD07B68103B3B603B685BB21800FFF713
:101C700093FF0300DBB200E004231800BD4602B06E
:101C800080BDC04600ED00E080B582B000AF786056
:101C90000649A123DB007A68CA5003211120FFF70F
:101CA0000DFFC046BD4602B080BDC04600100140D9
:101CB00080B500AF0E49D1239B0080225202CA504A
:101CC0000B49C1239B0080225202CA501120FFF70A
:101CD000DBFE1120FFF790FE054B01221A602F203A
:101CE000FFF798FF034B01221A70C046BD4680BD26
:101CF000001001404C05002080B500AF1120FFF717
:101D000091FE1049D2239B0080225202CA500D49F5
:101D1000C2239B0080225202CA500A4B01225A6001
:101D20002F20FFF777FF074B01229A60064B002216
:101D30001A602F20FFF76EFF044B00221A70C04676
:101D4000BD4680BD00100140380500204C05002034
:101D500080B500AF024A034BD3581800BD4680BD82
:101D6000001001400405000080B582B000AF78602B
:101D700039607A683B68D31A1B021B0A1800BD46FB
:101D800002B080BD80B582B000AF78600449A8235E
:101D9000DB007A68CA50C046BD4602B080BDC0466E
:101DA0000010014080B586B000AF78604C4B1968D8
:101DB0007A681300DB009B189B00CB18BB60494B73
:101DC0001B68013303D1474B7A681A6084E0BB6813
:101DD0005968434B1868434B1A681300DB009B1883
:101DE0009B00C3185B6899421ED83D4B19683D4B58
:101DF0001A681300DB009B189B00CA18384B186840
:101E0000384B19680B00DB005B189B00C31859683E
:101E1000BB685B68CB1A5360324B1A68BB681A62A6
:101E2000304B7A681A6057E0BB685B68FB602D4BEB
:101E30001B687B612B4B1B683B6117E0284B1968C3
:101E40003A691300DB009B189B00CB185B68FA68AB
:101E5000D31AFB603B697B61214B19683A69130017
:101E6000DB009B189B00CB181B6A3B613B6901336D
:101E70000BD01B4B19683A691300DB009B189B00C1
:101E8000CB185A68FB689A42D8D33B69013313D008
:101E9000134B19683A691300DB009B189B00CA18A2
:101EA0000F4B186839690B00DB005B189B00C318E7
:101EB0005968FB68CB1A5360BB68FA685A60BB6804
:101EC0003A691A62064B19687A691300DB009B189D
:101ED0009B00CB187A681A62C046BD4606B080BD2A
:101EE000280500203405002080B586B000AF78605A
:101EF0003A4B1B687B617B693B610FE03A697B6809
:101F00009A420FD03B697B61354B19683A691300DF
:101F1000DB009B189B00CB181B6A3B613B690133BC
:101F2000ECD100E0C0463B69013353D07A693B698C
:101F30009A4211D12A4B1968284B1A681300DB000A
:101F40009B189B00CB181A6A244B1A60234B1B6802
:101F5000013301D1FFF7D0FE214B19683A69130014
:101F6000DB009B189B00CB185B68FB601C4B19685F
:101F70007A691300DB009B189B00CA18184B18687D
:101F800039690B00DB005B189B00C3181B6A1362E6
:101F9000134B19687A691300DB009B189B00CB1860
:101FA0001B6A3B613B69013315D00D4B19683A69D7
:101FB0001300DB009B189B00CA18094B186839698D
:101FC0000B00DB005B189B00C3185968FB68CB183B
:101FD000536000E0C046BD4606B080BD3405002019
:101FE0002805002080B500AF1120FFF733FDC04663
:101FF000BD4680BD80B500AF1420FFF72BFDC04665
:10200000BD4680BD80B584B000AF7860124B1B68C0
:10201000002B17D0104B1A687B6898697B68DB69C6
:10202000190090470300FB60FB68BB60BB68002B96
:102030000ED00A4A6423FF331900BB681800FEF76C
:10204000D9F805E07B689A697B68DB6918009047DE
:10205000C046BD4604B080BD480500209C44000039
:1020600080B584B000AF2C4B1B68013350D00023E7
:102070007B60FFF76DFE0200284B1B681900100003
:10208000FFF772FE0300BB60234B1B68FB601EE082
:10209000234B1968FA681300DB009B189B00CB18D0
:1020A0003B603B685A68BB689A4214D83B685B68DF
:1020B000BA68D31ABB603B685B687A68D3187B60E8
:1020C0003B681B6AFB603B681800FFF79BFFFB68DF
:1020D0000133DDD100E0C046124B1A78124B1B7859
:1020E0009A420CD1104B1B780133DAB20E4B1A70A6
:1020F0000D4B1B78022B02D10B4B00221A700A4B9E
:102100001B781A00094B92007968D150FFF772FFD3
:10211000C046BD4604B080BD34050020380500200F
:102120002805002044050020450500203C0500202E
:1021300080B582B000AF7860184B1A78184B1B78C6
:102140009A4223D0154B1B780133DAB2134B1A7025
:10215000124B1B78022B02D1104B00221A700F4B2E
:102160001B781A000F4B9200D2587B681A607B686C
:102170001A680D4B1B68D2180B4B1A600A4B1B6870
:102180001B021A0A084B1A60012303E07B68002235
:102190001A6000231800BD4602B080BD440500202F
:1021A000450500203C0500203805002080B586B09C
:1021B00000AF424B1B683B611723FB18404A127863
:1021C0001A7066E03F4B1A681723FB181B78DB0078
:1021D000D318FB601623FB18FA6812781A7051E0C6
:1021E000FB6859681623FB181A7813005B009B18CC
:1021F000DB00CB18BB601623FB181A781623FB18DC
:1022000001321A70FB689B781622BA1812789A422B
:1022100003D11623FB1800221A70BB681B78022B0F
:1022200002D0032B28D02CE0274B1968BB685A68D2
:102230001300DB009B189B00CB187B607B681B7D29
:10224000002B1FD0BB685B681800FFF74DFE7B6852
:1022500000221A7516E01C4B1968184B1A681300F7
:10226000DB009B189B00CB183B603B6800221A7573
:102270003B681A6A114B1A60104B1B680133EAD194
:1022800000E0C046FB685B781622BA1812789A42C2
:10229000A6D11723FB181B781722BA18591E1170E4
:1022A000002B8FD1054B1A683B69D31A5A1E9341F4
:1022B000DBB21800BD4606B080BDC0463405002024
:1022C0002C050020300500202805002080B588B0AE
:1022D00000AFF860B9607A600023FB6142E0254BF3
:1022E0001968254B1A681300DB009B189B00CB185C
:1022F000BB61BB695A68FB689A4206D9BB695A68D8
:10230000FB68D21ABB695A6030E0BB695B68FA6847
:10231000D31AFB60BB695B68FA69D318FB61BB69C0
:1023200000225A60BB6900221A75134B1B687B613F
:10233000BB691A6A104B1A60BB691B69002B11D06C
:10234000BA68FB69D3181B021A0ABB699A60BB6999
:102350001A69BB69DA607B681A68BB691A627B68B4
:102360007A691A60044B1B680133B8D1C046BD4678
:1023700008B080BD280500203405002080B58AB053
:1023800000AF7860624B1B68BB612723FB18614A72
:1023900012781A70A7E0604B1A682723FB181B7885
:1023A000DB00D3187B6193E07B6801330ED07B6840
:1023B0003B625A4B19683A6A1300DB009B189B007A
:1023C000CB18FB61FB691B6A7B603EE07B695A6846
:1023D0007B691B7819000B005B005B18DB00D318CE
:1023E0003B617B691B780133DAB27B691A707B69C8
:1023F0001A787B699B789A4202D17B6900221A7015
:102400003B695B683B62454B19683A6A1300DB0025
:102410009B189B00CB18FB613B691B78012B57D1A4
:10242000FB691B7D002B00D052E03B699A68FB6979
:102430009A603B69DA68FB69DA603B691A69FB6993
:102440001A613B695A69FB69DA61FB699A68344B26
:102450001B68D31A1B021B0A324A93420ED8FB692F
:102460009A682F4B1B6819001000FFF77DFC0200D3
:10247000FB69DB68D218FB695A6018E0284B1A68C0
:10248000FB699B6819001000FFF76EFC0300FB60FE
:10249000FB69DA68FB689A4206D9FB69DA68FB686F
:1024A000D21AFB695A6002E0FB6900225A60FB699C
:1024B00000229A60FB690022DA60FB6901221A752A
:1024C000FB69012252421A623B6A1800FFF76AFC5C
:1024D0007B68013300D067E77B691A787B695B789A
:1024E0009A4200D060E72723FB181B782722BA18EE
:1024F000591E1170002B00D04DE7054B1A68BB69BF
:10250000D31A5A1E9341DBB21800BD460AB080BDF3
:10251000340500202C05002030050020280500206F
:1025200038050020FEFF7F0090B589B000AF7860CD
:102530002A4B1B6801334BD0294B1968274B1A686B
:102540001300DB009B189B00CB185B68FB61FFF757
:10255000FFFB0300BB61234B1B687B617A69BB698E
:1025600011001800FFF700FC030003333B611E4B12
:102570001B7801225340DBB2002B01D0FFF798FB00
:10258000FA693B69934200D213007A69D3187B61E0
:102590007B691B021B0A7B617B691800FFF7F2FB5A
:1025A000FFF7D6FB0300FB60BA69FB681100180057
:1025B000FFF7DAFB0300DC1CBA697B691100180025
:1025C000FFF7D2FB03009C4204D9FFF70BFD01E0AB
:1025D000FFF792FBC046BD4609B090BD3405002010
:1025E00028050020380500204C05002090B587B054
:1025F00000AF01235B427B601C4B1B683B611C4BA3
:102600001B68FB600B23FC183B001800FFF790FDD4
:10261000030023701723FC18FFF7C8FD0300237085
:102620000B23FB181B78002B09D03B683A1D396936
:102630001800FFF74BFE1723FB1801221A707B6866
:102640001800FFF79BFE031E03D01723FB1801227F
:102650001A701723FB181B78002B03D0FB68180097
:10266000FFF762FFC046BD4607B090BD38050020A9
:102670003405002080B582B000AF786039603B68D7
:10268000DAB27B685A70C046BD4602B080BDC04613
:1026900080B584B000AF786039607B685B780133C7
:1026A000FB607B689B781A1EFB689A4201D100236D
:1026B000FB607B681B781A1EFB689A4201D10023DD
:1026C0000EE03B68FA681A607B685A687B685B7842
:1026D00019000B005B005B18DB00D318BB60BB6804
:1026E0001800BD4604B080BD80B586B000AFF8606C
:1026F000B9607A603B601B4B1A68FB68DB00D3183B
:102700001022BA1811001800FFF7C2FF03007B6106
:102710007B69002B01D1042320E07B6901221A7020
:102720007B69BA685A60FFF713FB02007B699A6005
:102730007B697A68DA607B693A681A617B693A6A10
:102740005A61084B1A68FB68DB00D3183A6911001C
:102750001800FFF78FFFFFF74DFC00231800BD4660
:1027600006B080BD3005002080B584B000AF786031
:102770003960144B1A687B68DB00D3180822BA183A
:1027800011001800FFF784FF0300FB60FB68002BBB
:1027900001D1042312E0FB6802221A70FB683A6838
:1027A0005A60084B1A687B68DB00D318BA681100BE
:1027B0001800FFF75FFFFFF71DFC00231800BD4660
:1027C00004B080BD3005002080B584B000AF7860D3
:1027D000144B1A687B68DB00D3180822BA18110062
:1027E0001800FFF755FF0300FB60FB68002B01D1C9
:1027F000042313E0FB6803221A70FB680122524293
:102800005A60084B1A687B68DB00D318BA6811005D
:102810001800FFF72FFFFFF7EDFB00231800BD4660
:1028200004B080BD3005002080B500AF114AA02360
:102830005B000021D1500F4AA2235B000021D15040
:102840000C4AA4235B000021D1500A4AA6235B0056
:102850000021D150074A80235B000021D150054A56
:1028600082235B000021D150FFF7FAFBC046BD4632
:1028700080BDC0460010014080B500AFFFF7B6FE36
:10288000C046BD4680BDC04680B586B000AFF8608A
:10289000080011007B600B23FB18021C1A700A232E
:1028A000FB180A1C1A707B681800FFF797F80300E2
:1028B0001A0001235340DBB2002B01D007238BE029
:1028C0007B68002B01D1072386E0FFF715FA444B04
:1028D0003A6A1A60434B0B22BA1812781A70424BAC
:1028E0007A681A6000237B6116E03F4B19687A69A9
:1028F0001300DB009B189B00CB1800221A703A4B88
:1029000019687A691300DB009B189B00CB18002222
:102910001A757B6901337B610B23FB181A787B697D
:102920009A42E2DC0B23FB181A781300DB009B1899
:102930009B001A007B689B187B602C4B03221A704B
:102940002B4B7A681A607B6818337B6000237B61AD
:1029500021E0274B1A687B69DB00D3183B613B6998
:1029600000221A703B6900225A703B690A22BA1889
:1029700012789A703B697A685A600A23FB181A78B1
:1029800013005B009B18DB001A007B689B187B60C0
:102990007B6901337B617B69022BDADD154B0122F8
:1029A00052421A60144B00221A70144B00221A7003
:1029B0001420FFF769F803211420FFF77FF8142093
:1029C000FFF71AF8FB681800FFF75EF9FFF7C0F988
:1029D00002000B4B1A6000231800BD4606B080BDF4
:1029E0004805002024050020280500202C05002093
:1029F0003005002034050020440500204505002056
:102A00003805002080B586B000AFF8607A600B23EF
:102A1000FB180A1C1A70284B1B68002B01D10823D5
:102A200046E07B68002B01D1072341E0FB68002BC7
:102A300001D107233CE000237B6132E01E4B196883
:102A40007A691300DB009B189B00CB181B78002BC6
:102A500024D1194B19687A691300DB009B189B007D
:102A6000CB1801221A70144B19687A691300DB0025
:102A70009B189B00CB180B22BA1812785A700E4B79
:102A800019687A691300DB009B189B00CB187A68E1
:102A90009A617A69FB681A60002309E07B69013357
:102AA0007B61064B1B781A1E7B699A42C6DC0423A5
:102AB0001800BD4606B080BD280500202405002072
:102AC00080B582B000AFFFF7C1F8031E012B02D022
:102AD000032B03D005E000237B6005E001237B602E
:102AE00002E002237B60C0467B681800BD4602B04E
:102AF00080BDC04690B589B002AFF860B9607A6019
:102B00001E4B1B68002B01D1082333E01C4B1B78A4
:102B10001A1EFB689A4202D9BB68042B01D807230E
:102B200028E0164B1968FA681300DB009B189B001D
:102B3000CB181B78012B01D008231BE00F4B196821
:102B4000FA681300DB009B189B00CB185B78012B05
:102B500001D1BB6800E000237B61FFF7B1FF0400F7
:102B60007869BA68F9687B68009303002000FFF772
:102B7000BBFD03001800BD4607B090BD280500202E
:102B80002405002080B582B000AF7860134B1B682D
:102B9000002B01D108231DE0114B1B781A1E7B6806
:102BA0009A4201D8072315E00C4B19687A68130084
:102BB000DB009B189B00CB181B78012B01D008234E
:102BC00008E0FFF77DFF02007B6819001000FFF7A7
:102BD000CBFD03001800BD4602B080BD28050020D3
:102BE0002405002080B500AF074B1B68002B01D1E6
:102BF000082306E0FFF764FF03001800FFF7E4FD79
:102C000003001800BD4680BD2805002080B582B0B5
:102C100000AF7860FFF79CF802007B681A60002321
:102C20001800BD4602B080BD80B584B000AFF8602A
:102C3000B9607A60BA68FB6811001800FFF794F871
:102C400002007B681A6000231800BD4604B080BDF6
:102C500080B582B000AF0200FB1D1A70FB1D1B780F
:102C60007F2B18D9174AFB1D1B7819000F230B4027
:102C7000083B9B0806339B00D31804331A68FB1DDE
:102C80001B78190003230B40DB00DA401300FF22FE
:102C900013409B0912E00C4AFB1D1B785BB29B089A
:102CA000C0339B009A58FB1D1B78190003230B406F
:102CB000DB00DA401300FF2213409B091800BD46D9
:102CC00002B080BD00ED00E000E100E080B582B020
:102CD00000AF78607B68032213405A425341DBB255
:102CE0001800BD4602B080BD80B582B000AF0C4B6D
:102CF0005B68DB05DB0D7B607B68002B0AD07B68A3
:102D0000103B3B603B685BB21800FFF7A1FF03007C
:102D1000DBB200E004231800BD4602B080BDC0460F
:102D200000ED00E080B582B000AF0200FB1D1A701C
:102D3000FB1D1B789AB2074B1B889A4204D2FB1DDD
:102D40001B780133DBB200E000231800BD4602B05F
:102D500080BDC0465C05002080B584B000AF3A60FD
:102D6000BB1D021C1A803B1D0A1C1A803B1D1B88C0
:102D700001339AB20E23FB18D2001A803B68180068
:102D8000FFF7A4FF03001A0001235340DBB2002B1E
:102D900001D0072318E00E4B3A681A600E23FB1887
:102DA0001B883A68D2180B4B1A600B4B00221A7022
:102DB0000A4B00221A700A4BBA1D12881A80094B5E
:102DC0003A1D12881A8000231800BD4604B080BD49
:102DD000500500205405002059050020580500200A
:102DE0005A0500205C05002080B58CB000AFF8606B
:102DF0007A600A23FB180A1C1A80574B1B880A2288
:102E0000BA1812889A4200D99FE02A23FB1801229F
:102E100052421A801323FB1800221A70FFF764FF36
:102E200003007B627B6A012B16D01323FB1818006A
:102E3000FEF7FAF903003B623B6A022B01D172B63E
:102E40000AE03B6AFB61FB69002B05D0434AFB6942
:102E500059211800FDF7CEF9414B1B78DBB2180061
:102E6000FFF760FF03001A003E4B1B78DBB29A426B
:102E70000FD03B4B1B78DAB22A23FB181A80384B51
:102E80001B78DBB21800FFF74DFF03001A00344B2C
:102E90001A707B6A012B16D062B61323FB181B78BD
:102EA0001800FEF7DBF90300BB61BB69022B0AD0F7
:102EB000BB697B617B69002B05D0284A7B69612156
:102EC0001800FDF797F92A23FB181B88264A93421E
:102ED00038D0264B1A682A23FB181B88DB00D3182E
:102EE0007A681A60FB68002B20D00A23FB181B8825
:102EF000002B1BD01E4B1B682A22BA1812881649B9
:102F000009884A4398180A23FB181A88FB68190095
:102F100001F0E0F8154B1A682A23FB181B88DB0028
:102F2000D3180A22BA1812889A8008E00F4B1A6840
:102F30002A23FB181B88DB00D31800229A80002369
:102F4000FB6204E00423FB6201E00923FB62FB6AED
:102F50001800BD460CB080BD5A050020C8440000D2
:102F60005905002058050020FFFF000050050020F3
:102F70005405002080B586B000AFF860B9607A6073
:102F800005237B611E4B1B78DAB21E4B1B78DBB22C
:102F90009A4230D01B4B1B78DAB21223FB181A80EE
:102FA000184B1B78DBB21800FFF7BCFE03001A00B9
:102FB000144B1A70144B1B681222BA18128813494A
:102FC00009884A439A18FB681A60114B1A68122341
:102FD000FB181B88DB00D3189A88BB681A800C4B3F
:102FE0001A681223FB181B88DB00D3181A687B6849
:102FF0001A6000237B617B691800BD4606B080BD66
:103000005905002058050020540500205A050020CD
:103010005005002080B584B000AF06E07B68F868FA
:103020000A22BA181288110098473A1D0A23F91883
:103030000C23FB181800FFF79DFF031EEED0C046BF
:10304000BD4604B080BDC04680B584B000AF786096
:103050000023FB607B68002B01D100230CE07B6820
:103060001B78002B06D0FB680133FB607B680133C3
:103070007B60F4E7C046FB681800BD4604B080BD25
:1030800080B500AFC046BD4680BDC04680B588B0A3
:1030900000AFF860B9607A60FFF7F2FF4C49FA6858
:1030A00013005B009B18DB00CB1858331B68BB6117
:1030B0004749FA6813005B009B18DB00CB185433B8
:1030C0001B687B610023FB61BA697B699A423FDD23
:1030D0003F49FA6813005B009B18DB00CB185033A4
:1030E0001A68BB69D31A3B617B683A69934200DD79
:1030F00013003B613649FA6813005B009B18DB0044
:10310000CB184C331A68BB69D1183A69BB681800F0
:1031100000F0E0FF3B69FA69D318FB613B69BA68CC
:10312000D318BB603B697A68D31A7B60BA693B6984
:10313000D318BB612649FA6813005B009B18DB00BB
:10314000CB1850331A68BB699A4201D10023BB6186
:103150007A69BB69D31A3B617B683A69934200DDA7
:1031600013003B613B69002B1FDD1949FA6813000E
:103170005B009B18DB00CB184C331A68BB69D11875
:103180003A69BB68180000F0A5FF3B69FA69D318DB
:10319000FB613B69BA68D318BB603B697A68D31A94
:1031A0007B60BA693B69D318BB61FB69002B09D00E
:1031B0000749FA6813005B009B18DB00CB185833F3
:1031C000BA691A60FB691800BD4608B080BDC046E8
:1031D0000400002080B588B000AFF860B9607A6064
:1031E000FFF74EFF8249FA6813005B009B18DB0073
:1031F000CB182C331B6803221340022B39D07C4997
:10320000FA6813005B009B18DB00CB1828331B689F
:103210007B617749FA6813005B009B18DB00CB18D1
:1032200024331B687A69D31A013BFB61FB69002BCD
:103230000BDA6F49FA6813005B009B18DB00CB18B0
:1032400020331B68FA69D318FB617A68FB699A42DC
:103250000FDD6749FA6813005B009B18DB00CB1891
:103260002C331B680322134001D10023BCE0FB690F
:103270007B607B68002B01D10023B5E00023BB619C
:103280005B49FA6813005B009B18DB00CB182833FE
:103290001B687B615649FA6813005B009B18DB00D2
:1032A000CB1824331B687A69D31A013BFB61FB6995
:1032B000002B0BDA4E49FA6813005B009B18DB0009
:1032C000CB1820331B68FA69D318FB614849FA68A8
:1032D00013005B009B18DB00CB18203319684448AF
:1032E000FA6813005B009B18DB00C31824331B68CB
:1032F000CA1AFB699A4213DC3D49FA6813005B0065
:103300009B18DB00CB18203319683948FA68130082
:103310005B009B18DB00C31824331B68CB1A00E04A
:10332000FB69FB617B68FA69934200DD1300FB6176
:103330002F49FB685A1C13005B009B18DB00CB185D
:10334000043319682A48FA6813005B009B18DB00F5
:10335000C31824331B68CB18FA69B968180000F049
:10336000B9FEFB69BA69D318BB61FB69BA68D318A7
:10337000BB60FB697A68D31A7B601D49FA68130049
:103380005B009B18DB00CB1824331A68FB69D1184B
:103390001748FA6813005B009B18DB00C31824333E
:1033A00019601349FA6813005B009B18DB00CB1807
:1033B000243319680E48FA6813005B009B18DB0081
:1033C000C31820331B68994209D10949FA681300D0
:1033D0005B009B18DB00CB18243300221A607B684B
:1033E000002B00D04CE7BB691800BD4608B080BD7B
:1033F0000400002080B584B000AF786039603B687D
:103400001800FFF721FE0300FB60FA6839687B684B
:103410001800FFF7DFFE03001800BD4604B080BDB2
:1034200080B582B000AFFB1C012219000020FFF71D
:103430002DFE03007B607B68012B02D1FB1C1B78F7
:1034400001E001235B421800BD4602B080BDC046CA
:1034500080B582B000AFFFF7E3FF03007B607B68BD
:10346000002BF8DB7B681800BD4602B080BDC0466B
:1034700080B582B000AFFFF703FE074B9B6D7B600A
:10348000054B5A6D7B689A4201D0012300E000236E
:103490001800BD4602B080BD0400002080B584B095
:1034A00000AFF860B9607A603B60FFF7E9FD264B3A
:1034B0001B691A1EFB689A4240D9FB68002B31D069
:1034C0002149FB685A1C13005B009B18DB00BA689B
:1034D0005A501D49FB685A1C13005B009B18DB0007
:1034E000CB1804337A681A601749FA6813005B0036
:1034F0009B18DB00CB1820333A681A601249FA682F
:1035000013005B009B18DB00CB18283300221A60E5
:103510000D49FA6813005B009B18DB00CB182433BD
:1035200000221A600849FA6813005B009B18DB0050
:10353000CB182C33BA691A60002301E001235B42E7
:103540001800BD4604B080BD0400002080B584B0E2
:1035500000AFF860B9607A603B60FFF791FD264BE1
:103560005B691A1EFB689A4240D9FB68002B31D078
:103570002149FA6813005B009B18DB00CB18483325
:10358000BA681A601C49FA6813005B009B18DB00DC
:10359000CB184C337A681A601749FA6813005B003D
:1035A0009B18DB00CB1850333A681A601249FA684E
:1035B00013005B009B18DB00CB18583300221A6005
:1035C0000D49FA6813005B009B18DB00CB185433DD
:1035D00000221A600849FA6813005B009B18DB00A0
:1035E000CB185C33BA691A60002301E001235B4207
:1035F0001800BD4604B080BD0400002080B500AFB7
:10360000FFF73EFDC046BD4680BDC04680B584B0D4
:1036100000AF0200FB1D1A700C23FB18FF221A706A
:10362000FB1D1B78092B07D8FB1D1B783033DAB242
:103630000C23FB185A700AE0FB1D1B780F2B12D8C5
:10364000FB1D1B783733DAB20C23FB185A70084B7A
:10365000FA1D12781A700C23FB18022219000020A0
:10366000FFF7B8FD00E0C046BD4604B080BDC046CF
:103670007009002080B584B000AF02003960FB1DE6
:103680001A700823FB18FF221A70FB1D1B78092BE8
:1036900007D8FB1D1B783033DAB20823FB185A70A9
:1036A0000EE0FB1D1B780F2B07D8FB1D1B78373353
:1036B000DAB20823FB185A7002E001235B422CE0C7
:1036C0000823FB18022219000020FFF783FD3B6846
:1036D00019000020FFF78EFE0300FB60FB1D1B7826
:1036E000092B07D80F4B1B783033DAB20823FB18AD
:1036F0005A700AE0FB1D1B780F2B06D8094B1B786C
:103700003733DAB20823FB185A700823FB18022259
:1037100019000020FFF75EFDFB681800BD4604B0ED
:1037200080BDC0467009002080B584B000AF7860CD
:103730000A00FB1C1A707B689B68FB60FB685A1CC4
:103740007B685B689A420FDC7B681A68FB68D31859
:10375000FA1C12781A70FB685A1C7B689A607B68A6
:10376000DB685A1C7B68DA607B689A687B685B68F8
:103770009A4215D17B6818697B6819687B689B68D9
:103780001A00FFF727FD021E7B689B689A4204D04F
:103790007B6801225242DA6002E07B6800229A6074
:1037A000C046BD4604B080BD80B58AB000AFF860A9
:1037B000B9607A603B6001237B62BB683B62012396
:1037C000FB6108E07968386A00F0C4FB03003B62E3
:1037D000FB690133FB613A6A7B689A42F2D23A682C
:1037E000FB699A4201D93B68FB617B6B0122134064
:1037F0002DD13B6B002B2AD07B6B0222134007D0CC
:103800003B68002B04D11B23FB1830221A7003E005
:103810001B23FB1820221A700BE01B23FB181A78BD
:10382000FB6811001800FFF77FFFFB68DB68002BC7
:1038300064DB3B6B002B0AD03B6B5A1E3A63FA6980
:103840009342EAD803E07B6A7A6853437B62796AE1
:10385000B86800F07FFB030019007A6800239142EA
:103860005B41DAB23B68591E39600121012B01DC52
:103870000023191CCBB21343DBB2002BE3D1796ACE
:10388000B86800F067FB03007B617B697A6A534389
:10389000BA68D31ABB601C4A7B69D3181A78FB68D4
:1038A00011001800FFF740FFFB68DB68002B09DB05
:1038B0007968786A00F04EFB03007B627B6A002B1C
:1038C000DDD100E0C0467B6B0122134019D03B6B79
:1038D000002B16D008E0FB6820211800FFF724FF1A
:1038E000FB68DB68002B0BDB3B6B002B09D03B6BD1
:1038F0005A1E3A63FA699342EDD802E0C04600E0EE
:10390000C046BD460AB080BD0445000090B589B0F0
:1039100002AFF860B9607A603B60BB68DA179B1849
:1039200053403B6101237B6108E07968386900F00E
:1039300011FB03003B617B6901337B613A697B6862
:103940009A42F2D23A687B699A4201D93B687B611C
:10395000BB6A002B09D0BB68002B03DBFB6A042287
:10396000134002D0BB6A013BBB62FB6A02221340D8
:1039700002D03B68002B19D0FB6A0122134015D1FD
:10398000BB6A002B12D008E0FB6820211800FFF76B
:10399000CBFEFB68DB68002B52DBBB6A002B05D03B
:1039A000BB6A5A1EBA627A699342EDD8BB68002B93
:1039B0000CDABB685B42BB60FB682D211800FFF787
:1039C000B3FEFB68DB68002B0DDA3EE0FB6A0422E5
:1039D000134008D0FB682B211800FFF7A5FEFB68F9
:1039E000DB68002B2EDBFB6A022213401CD0FB6A33
:1039F0000122134018D13B68002B15D1BB6A002B64
:103A000012D008E0FB6830211800FFF78DFEFB683C
:103A1000DB68002B18DBBB6A002B05D0BB6A5A1E83
:103A2000BA627A699342EDD8B9683C687A68F868F6
:103A3000FB6A0193BB6A00932300FFF7B5FE04E025
:103A4000C04602E0C04600E0C046BD4607B090BD9B
:103A500080B5A2B002AFF860B9607A605023FB185D
:103A60001022BA181A605023FB1840225A605023C3
:103A7000FB1800229A605023FB18FA681A61502341
:103A8000FB180022DA60BB685A1CBA607F22BA18A1
:103A90001B7813707F23FB181B78002B00D15FE18C
:103AA0007F23FB181B78252B00D049E100237B677F
:103AB0007F23FB18BA6812781A707F23FB181B78D3
:103AC0002B2B18D002DC232B1DD025E02D2B02D070
:103AD000302B08D020E07B6F012213437B67BB684B
:103AE0000133BB6017E07B6F022213437B67BB6827
:103AF0000133BB600FE07B6F042213437B67BB681D
:103B00000133BB6007E07B6F082213437B67BB6810
:103B10000133BB60C046CBE700233B677F23FB1824
:103B2000BA6812781A707F23FB181B782F2B14D9D0
:103B30007F23FB181B78392B0FD8BB680133BB6080
:103B40003A6F13009B009B185B001A007F23FB1841
:103B50001B78D318303B3B67E0E70023BB677F232C
:103B6000FB18BA6812781A707F23FB181B782E2B6B
:103B700021D1BB680133BB607F23FB18BA68127880
:103B80001A707F23FB181B782F2B14D97F23FB1867
:103B90001B78392B0FD8BB680133BB60BA6F130099
:103BA0009B009B185B001A007F23FB181B78D3181F
:103BB000303BBB67E0E77F23FB18BA6812781A70C6
:103BC0007F23FB181B786C2B04D07F23FB181B78FA
:103BD000682B07D1BB685A1CBA607F22BA181B78C1
:103BE0001370EDE7C0467F23FB181B78642B29D0A8
:103BF00007DC582B4ED0632B0FD0252B00D194E03F
:103C00009AE0732B5AD003DC702B00D17AE093E05A
:103C1000752B2BD0782B3DD08EE07B681B68191D4F
:103C20007A6811601B68BB666723FB18BA6E1A704E
:103C30006723FB181A785023FB1811001800FFF7B0
:103C400073FD79E07B681B68191D7A6811601B6839
:103C5000BB66BA6FB96E5023F8187B6F01933B6F48
:103C6000009313000A22FFF751FE65E07B681B6892
:103C7000191D7A6811601B68BB66B96EBA6F502354
:103C8000F8187B6F01933B6F009313000A22FFF734
:103C90008BFD51E07B681B68191D7A6811601B68F9
:103CA000BB66B96EBA6F5023F8187B6F01933B6FF8
:103CB000009313001022FFF777FD3DE07B681B683F
:103CC000191D7A6811601B68FB66FB6E5A1CFA6648
:103CD0007F22BA181B7813707F23FB181B78002BE8
:103CE0000ED07F23FB181A785023FB181100180000
:103CF000FFF71AFD5023FB18DB68002BE5DA1BE009
:103D0000C04619E07B681B68191D7A6811601B6842
:103D1000BB66B96E5023F818002301930823009363
:103D200008231022FFF740FD06E05023FB18252151
:103D30001800FFF7F9FCC046BB680133BB6008E020
:103D40007F23FB181A785023FB1811001800FFF787
:103D5000EBFC5023FB18DB68002B00DB93E600E054
:103D6000C0465023FB18DB68002B18DD5023FB18DE
:103D70009B68002B09D05023FB189B681A00102366
:103D8000F918FB681800FFF725FA5023FB18DA68CA
:103D90005023FB189B68D2185023FB18DA6050237D
:103DA000FB18DB681800BD4620B080BD0EB480B59E
:103DB00085B000AF78602023FB18FB600C23FA1855
:103DC000F9697B681800FFF743FE03001800BD4641
:103DD00005B080BC08BC03B01847C04680B500AF32
:103DE000024B034A1A60C046BD4680BD7C000020DD
:103DF0000024F40080B500AF00F01CF8031E06D0CC
:103E0000094B0A4A1A600A4B802212021A6000F01B
:103E100051F8031E05D08023DA05C123DB00012100
:103E2000D150C046BD4680BD04050040DFFF07C03D
:103E3000186C004080B500AF1A4B1B68FF2213407E
:103E4000012B2AD1184B1B680F22134025D1174B89
:103E50001B68F022134006D1154B1B68F02213405B
:103E600001D101231AE0114B1B68F0221340102BE3
:103E700006D10F4B1B68F022134001D101230DE046
:103E80000A4B1B68F0221340302B06D1084B1B68ED
:103E9000F022134001D1012300E000231800BD46A9
:103EA00080BDC046E00F00F0E40F00F0E80F00F026
:103EB000EC0F00F080B500AF0D4B1B68FF221340E4
:103EC000012B11D10B4B1B680F2213400CD10A4B55
:103ED0001B68F0221340402B06D1084B1B68F022D0
:103EE000134001D1012300E000231800BD4680BD2E
:103EF000E00F00F0E40F00F0E80F00F0EC0F00F02E
:103F000003210A4802680A430260094802680A431A
:103F100002600849084A094B9B1A03DD043BC85854
:103F2000D050FBDC06488047064800472405004087
:103F3000540500402845000000000020BC0400207B
:103F4000F53D000021010000FEE7FEE7FEE7FEE789
:103F5000FEE7FEE7002243088B4274D303098B423D
:103F60005FD3030A8B4244D3030B8B4228D3030C49
:103F70008B420DD3FF22090212BA030C8B4202D3EB
:103F80001212090265D0030B8B4219D300E0090A13
:103F9000C30B8B4201D3CB03C01A5241830B8B421C
:103FA00001D38B03C01A5241430B8B4201D34B0305
:103FB000C01A5241030B8B4201D30B03C01A52416A
:103FC000C30A8B4201D3CB02C01A5241830A8B42EF
:103FD00001D38B02C01A5241430A8B4201D34B02D8
:103FE000C01A5241030A8B4201D30B02C01A52413C
:103FF000CDD2C3098B4201D3CB01C01A52418309F0
:104000008B4201D38B01C01A524143098B4201D329
:104010004B01C01A524103098B4201D30B01C01A54
:104020005241C3088B4201D3CB00C01A52418308CE
:104030008B4201D38B00C01A524143088B4201D3FB
:104040004B00C01A5241411A00D20146524110465B
:104050007047FFE701B5002000F006F802BDC0463A
:104060000029F7D076E770477047C04610B50021A9
:10407000040000F0BFF8044B1868C36B002B00D09D
:104080009847200000F0C0F91845000070B50D4EAB
:104090000D4D0024AD1BAD1005D0A300F358013425
:1040A0009847A542F9D100F0B1F9084E084D002417
:1040B000AD1BAD1005D0A300F35801349847A542BD
:1040C000F9D170BDAC040020AC040020AC04002089
:1040D000B404002070B50F2A32D90C0004430B0041
:1040E000A40731D115000400103D2D0901352D0123
:1040F00049191E6826605E6866609E68A660DE6874
:104100001033E66010349942F3D10F234519134060
:10411000032B1BD91C1F0023A4080134A400CE5874
:10412000EE5004339C42FAD103232D1909191A4089
:1041300005D00023CC5CEC5401339A42FAD170BD17
:104140000500002AF5D1FAE70500F2E71A00F8E7C2
:1041500070B583073FD0541E002A3BD0CEB2030077
:10416000032503E0621E002C34D0140001335A1ED4
:1041700016702B42F6D1032C24D9FF250D402A02BC
:1041800015432A0415430F2C11D92600103E360979
:10419000013636011A009B19156055609560D5608F
:1041A00010329342F8D10F221440032C0AD9261F53
:1041B000B6080136B6001A009B1920C29342FCD102
:1041C00003221440002C05D0C9B21C191970013308
:1041D0009C42FBD170BD14000300CCE7034B10B52B
:1041E000002B02D0024800F083F810BD0000000050
:1041F00001430000F0B55F4656464D464446F0B4D4
:104200000F00394B85B01B68019002934933FF338F
:104210000393A422029B52009E58002E4ED0039B73
:104220009946C4235B00984604339A467468B044A8
:10423000A5007519B244013C08D52DE06B1DFF3374
:104240001B689F4204D0043D013C25D3002FF5D1CB
:1042500073686A68013BA34239D000236B60002A6F
:10426000F1D0736841469B460123A3400968194277
:104270002BD05146096819422BD12B008433196881
:104280000198904773685B45C3D14B461B68B342A6
:10429000BFD1043D013CD9D2144B002B0ED0736822
:1042A000002B1BD13368002B1CD04A463000136012
:1042B00000E000BF4B461E68002EB2D105B03CBCEA
:1042C00090469946A246AB46F0BD9047DAE7746047
:1042D000C5E72B00843318689047D3E73368B146AD
:1042E0001E00E9E70023FAE718450000000000007F
:1042F00010B5010000230022002000F01BF810BDC3
:1043000070B5094B094CE41AA41009D0084AA51845
:10431000AD00ED182B68013C9847043D002CF9D105
:1043200000F07AF870BDC046B4040020B804002044
:10433000FFFFFF3FF8B544465F4656464D469B4655
:104340002F4BF0B41C68A4235B000500E0580E005E
:10435000904600284BD043681F2B0DDC5C1C002DC1
:1043600021D102339B0044601E5000203CBC90468B
:104370009946A246AB46F8BD224B002B3CD0C82044
:10438000400000E000BF002836D0A42200235200E5
:10439000A15843600160A0504032835004328350E2
:1043A0000124002DDDD09A009146814442468821A7
:1043B0004F467A50C4225200904680444246873984
:1043C000994012688A460A43944642466146116003
:1043D000842249465F4652008F50022DC1D102000F
:1043E00055468D32FF3211680D431560B9E7200044
:1043F0004D30FF30E050AEE701204042B6E7C04606
:104400001845000000000000FEE7C046F8B5C046B1
:10441000F8BC08BC9E467047F8B5C046F8BC08BC5E
:104420009E4670476E72665F6770696F5F70696EF7
:104430005F7365742E0A0A006E72665F6770696F3B
:104440005F70696E5F636C6561722E0A0A0000001E
:104450002E2E2F6D61696E2E630000001B5B324AA9
:104460004259206C69627261202E0A0A0000000025
:104470002E2E2F2E2E2F2E2E2F2E2E2F2F536F75AA
:104480007263652F7370695F6D61737465722F73EA
:1044900070695F6D61737465722E63002E2E2F2E0E
:1044A0002E2F2E2E2F2E2E2F2F536F757263652FCA
:1044B0006170705F636F6D6D6F6E2F6170705F7490
:1044C000696D65722E6300002E2E2F2E2E2F2E2E3C
:1044D0002F2E2E2F2F536F757263652F6170705FB3
:1044E000636F6D6D6F6E2F6170705F73636865646D
:1044F000756C65722E6300005465726D696E616C37
:10450000000000003031323334353637383941421B
:1045100043444546430000008000002000000000A6
:0845200000BCFF7F0100000058
:1045280000000000534547474552205254540000AC
:10453800000000000200000002000000F844000033
:1045480060050020000400000000000000000000DA
:104558000000000000000000000000000000000053
:10456800000000000000000000000000F844000007
:10457800600900201000000000000000000000009A
:104588000000000000000000000000000000000023
:104598000000000000000000000000000024F400FB
:1045A800000000006C030020D40300203C0400201D
:1045B80000000000000000000000000000000000F3
:1045C80000000000000000000000000000000000E3
:1045D800000000001445000000000000000000007A
:1045E80000000000000000000000000000000000C3
:1045F80000000000000000000000000000000000B3
:1046080000000000000000000000000000000000A2
:104618000000000000000000000000000000000092
:104628000000000000000000000000000000000082
:104638000000000000000000000000000000000072
:104648000000000000000000010000000000000061
:104658000E33CDAB34126DE6ECDE05000B00000026
:104668000000000000000000000000000000000042
:104678000000000000000000000000000000000032
:104688000000000000000000000000000000000022
:104698000000000000000000000000000000000012
:1049C800000000000000000080000020DD41000021
:0C49D800E9000000C10000000000000029
:0400000300003F01B9
:00000001FF
